:020000040000fa
:080000000402040000000000ee
:020000040000fa
:10040000c6020400000000004fce2000807f2200c2
:100410000001880000000000050007000c00070034
:1004200044660200000000000040da000000fe0008
:100430004440a900806820000000e0000300320072
:1004400000002000a00188004440a8000000060031
:10045000801a2700010020001600370062004000cb
:10046000e0804800910188009001ba0062004000dd
:10047000e0804800910188009002ba0062004000cc
:10048000e08048000002eb006028e10005003a002f
:100490008301e90007003300038009000059eb00e5
:1004a000040037006128e100010032000082eb0007
:1004b00005000700910188001001ba000200e00069
:1004c000e6ff3a00000005009101880080027800f4
:1004d00062004000e08048003559ba008301e9001d
:1004e000080032002559ba008301e90005003200f6
:1004f0000400e000f4ff320015d9ba008301e900de
:10050000f1ff3a0000000600000278008001780048
:10051000010037008159780002004200808f5100ad
:10052000fcff3a000400780000000600000278009a
:100530008001780001003700b159780002004200c4
:10054000808f5100fcff3a00040078000000060094
:1005500080007800010037000000e8001004e0008f
:10056000fdff3a0001005000000006008001780005
:100570000001780011407800315978000004e00053
:10058000fcff3a000300780000000600881f780096
:1005900002047800e5ff0700080040004f047800df
:1005a000000006000000fa00881f780000047800b0
:1005b0003fb99700ea81570080007800602c200046
:1005c0009d000700800078000000e0000200350078
:1005d0000040eb0080707c00010078004f04780040
:1005e0000080fa0000000600ec874700889fbe00ec
:1005f0008a9fbe008c9fbe008e1f7800f0b79f00c0
:1006000081bf9f0082047800000478000100370059
:100610000804e800184778000e00fb003e010700c0
:100620000000e000faff3a00d0c2b300804f57004c
:100630000500320000c0e900804f57000200320080
:1006400000477800010037000804e8000900e000d6
:1006500045003500e18f5400430032004002200085
:10066000808f540040003c000900e0000e00340080
:10067000f08f54001a003a0000c3b300984f1000e6
:1006800016003a009840900080c7b30080cf500019
:100690000300320080c5b30080cf50000f003a0045
:1006a0000884e8000e003700a900200000c3b30052
:1006b000984f10000a003a009840900080c7b3009d
:1006c00080cf5000040032008900200080c5b300b4
:1006d00080cf500002003a000884e80009012000a1
:1006e00008057800010037000a05e80000c3b300e0
:1006f0009a4f1000fcff32008a0578006066b8004f
:100700000e00370050ac200000425200c4ef9f00a2
:100710006149b9000c00be002a0a07004fea9700a1
:100720000401fb00cf91de008b05e800ccb79f00f1
:10073000ddb79f0000064100818649001b00fb00d9
:10074000fd000700800078000901780050ac20000f
:1007500000010700000278000000e000e9ff3a0015
:100760008b0f540006003a000fb897000000e0001d
:1007700029003200ffb097000108780026003700fa
:100780008a80550000aa2000694078000000fb0024
:1007900000805000160033004240a9000f003c00ca
:1007a0004fe997000200fb00cf80de0000005600fa
:1007b00081805e00800f5600818f5e000700390047
:1007c0006149b900ef0907004fb19700dfb1970009
:1007d000820f5000838f5800050032002002200055
:1007e000b06488000086eb008086eb0005003700cf
:1007f000d0c2b300804f570002003a0060061600d6
:10080000e0861e008fb997000300e000030032006d
:100810008b097800010037006066b8000c00be004c
:100820004f0778004f06be004f05be004f04be00c4
:10083000cf00b100000006006200fa00889fbe00f1
:100840008a9fbe000004be00020578008300780085
:1008500060f92f000f004000ce00070088979f002e
:1008600099979f000000eb00a09f9f009a45780099
:100870000b80fb000000ea00cf04de000904e90061
:1008800050c2b30080cf5500010032000904780047
:100890000800e0000b003400080178008a007800ae
:1008a0001f9097008f9197000300010090979f0081
:1008b0000000e000930032002f98970008004000ed
:1008c000a09f9f000905450050c2b30080cf55008e
:1008d000040032000b04e000e4ff3a002f98970078
:1008e000890037000000eb00809f9f00f0979f0079
:1008f000e0979f00d0979f00c0979f00b0979f0000
:10090000c09f9f0009003700e0c420000080500015
:100910000000400021c42000e08078004f9897003c
:1009200001007000c09f9f000a05e8001a4478008b
:100930008800fb00e0c420009b00070080007800d6
:100940000000e000f0ff3a00a0c2b300804f540066
:100950000e003a00bf8897000180e900b08f9f0029
:1009600090007800b19f9f000100e00005003d006d
:100970000100ea00b09f9f004f9897000020a00060
:10098000c09f9f000a05e80010003700b19f9f003c
:1009900009003700bf989700f0ff2700808f5000b4
:1009a000040032006a08b900000041000300400062
:1009b000b09f9f000a05e8001a01fb0003fd2f000d
:1009c00003004100e90f5000f2ff3600e0c2b3001f
:1009d0009a4f1000040032000080eb00909f9f00af
:1009e0008a0478001c0037008a04e800a0c2b30023
:1009f000994f100007003a00bf8897000180e90076
:100a0000b08f9f0010007800909f9f008a84e800bc
:100a1000110037000000eb00909f9f000900370095
:100a20009f989700f0ff2700808f5000040032004d
:100a30006a08b9000000410003004000909f9f0039
:100a40008904e8001901fb0003fd2f0003004100a9
:100a5000e90f5000f2ff3600194478008800fb00cf
:100a6000a0cd2000500007000000e00002003a0086
:100a700000447800010037008904e800a87f9f0047
:100a800080c6b300804f540004003a006640500016
:100a9000994f14000700320008003700c0c6b300a9
:100aa000804f540005003a00994f140003003a00ab
:100ab00065404000a07f9f008904e8000905e80028
:100ac000c8fb2f000f04440060f92f000f00400006
:100ad0008085e8008801780019417800800078005e
:100ae0000b007800380007000000e00005003a0025
:100af000880078000b007800b80107000000e000d3
:100b00005aff3d000080eb004f05be004f04be00c1
:100b10000080fa00000006006900e10004003500d2
:100b20006d00e100030034000002b100010032005a
:100b30000000050010000500800078001104b100dd
:100b4000030035009101b10001003c000050a000fd
:100b500000000600820178000400370090cf1000ea
:100b6000050032000000e8008301e9000300e00016
:100b7000faff3a000000eb0000000600a0648000cd
:100b80000000e000010032000000010060c9200008
:100b9000000006000200fa00f1bf9f000108780083
:100ba0000080fa0000000600040037001004e00096
:100bb00001003a00000005000000e80090cf10009e
:100bc000faff3a0000000600889fbe008a1f7800e6
:100bd0000004780001027800824478000305780060
:100be00070c6b300804f510021003c0000c0e900f6
:100bf000804f5100e5003d0072405000804f510091
:100c0000510132000d003c006c405000804f5100fb
:100c100066013c0000c0e900804f5100db003d0050
:100c200050c2b300804f51005d0132007c40400053
:100c3000804f51005d013a00d400370010c6b30068
:100c4000804f5100d100320004003c006940500048
:100c5000804f510055013a007500370030c6b3008f
:100c6000804f5100180032000040e80009003700b2
:100c700000c7b300804f51002401320008003c003f
:100c800000c0e900804f5100ea00320068003c00db
:100c90006540500080cf540044013a000f003700f7
:100ca00050c7b300804f51006100320063404000e4
:100cb000804f51005e00320065405000804f51006f
:100cc0003a013a00200137009180e900010a7800da
:100cd0007800900011f079003a013700a860900088
:100ce000c0c6b30080cf50000a003a00140078005c
:100cf00064015000020a78001200be004f88de0036
:100d0000cf80de001202be0000037800800378006e
:100d10001600370010c7b30080cf500003003a0020
:100d200094007800688050000500370014017800b6
:100d3000a0c6b30080cf500005003a006800510003
:100d4000000a78003002be002003be000700370012
:100d50000280e900000a78001000780000027800a4
:100d6000cfa2de000503780086037800049cbe0055
:100d70000694be00a860900080c6b30080cf5000eb
:100d80000e00320020c6b30080cf500005003a00ac
:100d90000400fb00cf80de000101780082017800b2
:100da0000a00370040c7b30080cf50000300320074
:100db0006640400080cf500006003a0004007800f2
:100dc000cf80de000101780082017800009cbe0027
:100dd0000294be003800be002801be00e00f5000a3
:100de000e08f5800e00f5900e08f590003003d00ec
:100df00078009000d1c2b3000a00370008109000bc
:100e00000018a3000300320078009000b1c2b300c4
:100e1000040037000008a30057003200780090005b
:100e200001c2b30001707d000000e80051003700ee
:100e3000a8609000c0c6b30080cf500007003a0001
:100e40009400780064805000000a78001002be0010
:100e50000003eb00860378001600370010c7b300cc
:100e600080cf500003003a00940078006880500062
:100e70000500370014017800a0c6b30080cf5000f1
:100e800005003a0068005100000a78003002be00f8
:100e90002003be00070037000280e900000a780046
:100ea00010007800000278000500200006002000f5
:100eb00007002000049cbe000694be00a8609000bd
:100ec00080c6b30080cf50000e00320020c6b300b1
:100ed00080cf500005003a000480fb000100200094
:100ee00002002000030020000a00370040c7b300c2
:100ef00080cf5000030032006640400080cf500099
:100f000006003a00040078000100200002002000e2
:100f100003002000009cbe000294be000810900058
:100f20000038a300140032003800be002801be00c3
:100f3000e00f5000e08f5800e00f5900e08f59009b
:100f40000d00320080c7b30080cf54000300320090
:100f500080c5b30080cf540007003a0078009000ad
:100f600001c3b30001707d008000e80089707d003e
:100f70000080e800700498007800900000004500b0
:100f800060049800894078006c003700a8609000e9
:100f900014017800c0c4b30080cf500005003a00af
:100fa00068005100000a78005001be004000be00f9
:100fb0000400370064005100000a78001000be00f1
:100fc000da080700009cbe000294be0038009000c2
:100fd0000000e00003003d0078009000d1c2b300a3
:100fe0000a003700081090000018a3000300320028
:100ff00078009000b1c2b300040037000008a300dd
:10100000050032007800900001c2b30001707d003d
:101010000000e8007004980078009000000045008f
:1010200060049800894078000800780035010700c6
:1010300066003700a8609000c0c6b30080cf5000a3
:10104000250032000a003c006440500080cf500070
:101050002800320000c0e80080cf500014003200a9
:101060006840500080cf500022003a000a0037004c
:1010700040c7b30080cf50001e00320066404000e1
:1010800080cf50001b0032006940500080cf5000dc
:1010900018003a00060037001480e900000a7800c2
:1010a00010007800485c900008487800470037003e
:1010b0001480e900000a78001002780068089000a7
:1010c000cf80de000101780082017800009abe0026
:1010d0000292be003d0037001480e900000a78004b
:1010e0001001780068089000cf80de000089be0003
:1010f000360037001480e900000a780010007800fc
:10110000680c900008087800300037001180e90072
:101110008008780010007800cf80de0001017800a0
:1011200082017800009cbe000294be00780090000e
:10113000000045006004980081c7b30008007800f3
:101140001a030700210037001480e900000a780024
:101150009001780063049800580990000200e000b4
:1011600003003d0003007800f9fc07000a00370087
:101170008000eb000300780076fe07008000780016
:101180000000e00003003200680090000080500082
:101190000100370058089000100c98000b00370031
:1011a0007800900002707d00060037007800900003
:1011b000800045000904e00001003a0059c2b30074
:1011c000894878000000e800700498000000eb00f7
:1011d0004f0578004f04be00000006000400fa002e
:1011e000889fbe008a9fbe008c1f78000004780094
:1011f0000106780070089000f8009000010050008f
:1012000088089000010050009808900001005000ec
:10121000a808900001005000b8089000010050009c
:10122000c80890008105500000022200a0bf9f0066
:101230000003230090bf9f00081090000028a30027
:1012400018003a000b00e000160034008b04780010
:1012500009057800e28f5400020036002a002000c1
:10126000020037000900e0000b003400c8019000c4
:101270000a017800ec80570058009000030001003c
:10128000500498000000e0009600320068089000ca
:101290000a004000600c98008a8454004240a90073
:1012a000ebff3c00780190000200e0000b003400ee
:1012b000c80190008c0078005800900003000100e5
:1012c000500498000000e00086003200680890009a
:1012d000f800900001004000600c9800880c90001d
:1012e0000900e0001500340009057800e28f540081
:1012f000020036002a002000020037000900e0004a
:101300000b003400c80190000a017800ee805700fd
:101310005800900003000100500498000000e00015
:1013200070003200680890000a004000600c9800cd
:101330008a8454004240a900ebff3c001809900049
:101340000200e0000b003400c8019000e8009000ab
:101350005800900003000100500498000000e000d5
:10136000600032006808900098089000010040007a
:10137000600c9800a80c90000900e00015003400f3
:1013800009057800e28f5400020036002a00200090
:10139000020037000900e0000b003400c801900093
:1013a0000a017800ee805700580090000300010009
:1013b000500498000000e0004a00320068089000e5
:1013c0000a004000600c98008a8454004240a90042
:1013d000ebff3c00380990000200e0000d003400f3
:1013e000e80090001808900080804000c80190003c
:1013f0005800900003000100500498000000e00035
:101400003800320068089000b808900001004000e1
:10141000600c9800c80c90000900e0001500340032
:1014200009057800e28f5400020036002a002000ef
:10143000020037000900e0000b003400c8019000f2
:101440000a017800ee805700580090000300010068
:10145000500498000000e00022003200680890006c
:101460000a004000600c98008a8454004240a900a1
:10147000ebff3c00081090000028a3001b00320086
:101480000b00e000190034008b0478000905780097
:10149000e28f5400020036002a00200002003700cc
:1014a0000900e0000b003400c80190000a01780038
:1014b000ec80570058009000030001005004980091
:1014c0000000e00007003200680890000a004000b9
:1014d000600c98008a8454004240a9000300340044
:1014e000eaff37000080eb00010037000000eb004e
:1014f0004f0678004f05be004f04be000080fa0082
:10150000000006002f04b000889fbe008a9fbe0026
:101510008c9fbe008e1f780080bf9f00014778001f
:101520005001be004000be00a09f9f00b19f9f00e1
:10153000c29f9f00d39f9f0010c6b300804f5700eb
:101540001500320010c4b300804f57001200320063
:101550000fb99700520890000000e00003003d0022
:1015600060002000500998000b0037000000e000e8
:1015700009003a0070c6b300804f570003003200e4
:1015800070c4b300804f570003003a0010002000e1
:101590008fb99700d00998008fb8970020fb2f00d3
:1015a0000f004000b402070000017800e20f500075
:1015b00014003a00300020000fba9700100a98007b
:1015c00010c6b300804f57000a003200644040004c
:1015d000804f5700070032000040e800804f57005e
:1015e0000400320081ca20000040e800804f57000c
:1015f00001003a00c1ca20008fba97006500900030
:10160000150037000000e000170034003000200013
:101610008fb897009008980010c6b300804f57000d
:101620000a00320064404000804f5700070032003b
:101630000040e800804f57000400320001cb20003a
:101640000040e800804f570001003a0041cb2000e5
:101650000fb9970062009000315878003158780037
:1016600011487800cb01370014c6b300844f5700ef
:101670000300320010c4b300804f570011003a003d
:101680008fba9700e50190008300780000c3b30093
:1016900080587800e102980080c7b300844f57005b
:1016a0000100320080c5b300804878000380e80064
:1016b0008fb89700e0009800710090000080e8006b
:1016c000f00098000200e00005003a00929f9f00a1
:1016d000c3fb2f000f8141009f999700a90137009c
:1016e00084cb2000f4b79f0010c6b300804f570092
:1016f0000500320010c4b300804f5700b0003a001c
:1017000095cc2000f5b79f008fb897005108900046
:1017100012022000a2b79f000000e0000200350086
:101720000000e800a0b79f00afb197008301e80078
:10173000e3b79f006022b8006033b8002f9897008d
:10174000bf9897004f999700df99970016070700f9
:101750008fb897003102be002103be000000e000f8
:1017600004003d000400be000601be0003f0a2001c
:10177000020037000400be000601be00a09f9f00cb
:10178000b19f9f00c29f9f00d39f9f001f9997000a
:1017900064015100929f9f00c3fb2f000f80410006
:1017a0000048eb00d4fb2f000f024200c4b79f009b
:1017b00032003700c20120000300200045fb2f004b
:1017c0000f804200580207002f9c9700bf9c970093
:1017d0004f9d9700df9d97000800be000a01be00e4
:1017e000f60607000006be006fb1970067015100c2
:1017f000e2b79f004240a9000a0034001b0707001f
:101800000002be000203be000800be000a01be00c6
:1018100019070700a09f9f00b19f9f00c29f9f00d4
:10182000d39f9f00cfb197006780410071002000d7
:10183000060037000000e9006f4866004c6add00d2
:101840004466de000c067200c4eede00e00f5600b7
:10185000e08f5e00050034008100e900e18f400068
:10186000f4ff3a00010037000060eb008100e9005e
:10187000fdff3b0067004000c0b79f00efb297003c
:101880000500e000090034006022b8006033b800b1
:101890002f989700bf9897004f999700df9997006e
:1018a000f70607000000e000c2ff3c00c0fb2f006d
:1018b0008f0040004fb19700010051000000e90087
:1018c000afb19700830f500001003d00a0b79f000b
:1018d000afb297000500e00004003d0085017800ec
:1018e000d0fb2f000f0140002e0037002fb19700d2
:1018f000800f510005003d000100410010409000a4
:10190000f5c0b300e74f500001003c008042eb00ff
:10191000d3fb2f000f8041002fb29700040040003e
:101920008000e9000402e900114178008100e9002b
:10193000854f5100fbff32008401e800afb09700f3
:101940000100500000004200efcf520001003a00b9
:101950000248e80025fb2f008f8242006b81420085
:101960000400e00005003d008301e8001f98970097
:1019700064004000909f9f006a8142000300410084
:101980008000e90003027800040037001100fb002a
:10199000ffb29700e0c87a008100e9000402e90084
:1019a000faff3b008fb89700510890000000e0005c
:1019b000f4003d000300e900d0089800f100370072
:1019c0002f9c9700bf9c97004f9d9700df9d97002d
:1019d0006022b8006033b8000800be000a01be00f3
:1019e000710607000000e00005003d000bf0a200ba
:1019f000a89f9f00b99f9f00ca9f9f00db9f9f00e9
:101a00001f989700725927000280b900026a2800c7
:101a1000130020009f060700e4005000919f9f00e4
:101a200015003b00e3801000c0ff2f000084600021
:101a30000801ea00929f9f002f989700bf98970097
:101a40004f999700df999700a9ae20000700370053
:101a50000808a300030032003902be002903be00bb
:101a60009b0607000884d100e88444000800e000d9
:101a7000f7ff3c001c0037009f9997000300e0002f
:101a80001d003400c0ff2f0000806000909f9f0069
:101a9000000478006000b8000200200003ff23006b
:101aa000a9ae2000070037000808a3000300320099
:101ab0003902be002903be00850607000884d10054
:101ac000e88444000800e000f7ff3c000002be008c
:101ad0000203be002f989700bf9897004f99970078
:101ae000df999700ef060700a09f9f00b19f9f001e
:101af000c29f9f00d39f9f000fba97005409900088
:101b000060c6b300804f570004003200610020001f
:101b100060c4b300804f570002003a009f9a9700bc
:101b2000ea80420001014100d2b79f00f30f51004b
:101b30000200340030012000d0b79f0000c3b30082
:101b4000c07f9f00d1fb2f008f804000b1b79f0066
:101b5000310037000800be000a01be00170607006a
:101b60000006be005fb1970068015100d2b79f0028
:101b70004240a9000e0034003c0607000002be00ef
:101b80000203be000800be000a01be003a060700bc
:101b90006022b80046782d00771924004c06070013
:101ba000a09f9f00b19f9f00c29f9f00d39f9f0057
:101bb000bfb1970068844100890020000800370009
:101bc000a2002000030020000c00be00d20107008c
:101bd0000804e90004c3b300044c41000006be0041
:101be000e00f5600e08f5e00070034008904e90032
:101bf000e18f4400f2ff3a00030037000804e900d7
:101c000000c3b300004c78008904e900fbff3b00ef
:101c100068044400b8b79f00dfb297000500e000f9
:101c20000b0034002f9c9700bf9c97004f9d97009e
:101c3000df9d97006022b8006033b8000800be0046
:101c40000a01be000e0607000000e000c1ff3c00d4
:101c5000c1fb2f000f8040003fb1970000005100f2
:101c60008001e9001f9a9700e7004200d5fb2f0092
:101c70000f814200010037000201e80000c3b300f9
:101c8000924f1000fcff3200d4fb2f000f004200e7
:101c9000808040008280500000804100820150001e
:101ca000919f9f008fba9700550a900060c6b300bd
:101cb000804f57000300320060c4b300804f5700cc
:101cc00002003a008100e8000800370050c6b30067
:101cd000804f5700040032008000eb0050c4b30076
:101ce000804f570001003a0011002000010242001d
:101cf000848f510001003d00030278000400e000e1
:101d000002003d00840178001e003700830f52005e
:101d100005003d00e440790097c3b30040c3b30021
:101d200080cf500001003c0007c3b3000400410015
:101d30008001e900840278008502e90013437800fd
:101d40008301e900874f5300fbff32008501e80063
:101d5000040050008080420090c3b30080cf530045
:101d600001003a008648e8000500e00005003d005b
:101d70000201e9008301e8001f9897000000e800d5
:101d8000909f9f001f9a97008e4078000fb8970091
:101d90007b0107004f0778004f06be004f05be00cd
:101da0004f04be002f04b100000006006f02b00017
:101db000889fbe008a9fbe008c9fbe008e1f780049
:101dc0000006780090be200080bf9f0080c5b30051
:101dd00080cf50000700320082002000f2b79f0041
:101de00083bd200083bf9f007740400080cf50001c
:101df0000a00320080c7b30080cf500005003200d7
:101e0000a4002000f4b79f0080c5b30080cf50002d
:101e100002003a0000012000f0b79f003c04be0021
:101e20002c05be0040c6b30080cf50000300320036
:101e30006540400080cf50000b003a00e00f540096
:101e4000e08f5c00e00f5d00e08f5d0006003d006c
:101e50006000b8006011b800080450008984580080
:101e60000a0559008b855900e00f5400e08f5c0093
:101e7000e00f5d00e08f5d0004003a005c08900018
:101e80008d0120000000e0000c003200ffb0970040
:101e900001027800cfa2de000503780086037800f7
:101ea0000800be000a01be00a90307000fba970090
:101eb00064407800d0e79f007d0120007fb097004c
:101ec00000027800cfa2de000503780086037800c8
:101ed0000800be000a01be0096030700009ebe0077
:101ee0000296be000d00e900e1fc2f008f8040004b
:101ef000008740001a0037007fb197000202780087
:101f0000cfa2de0005037800860378003c00be0007
:101f10002c01be00920307000205be000004be00b3
:101f20008d06e900ffb1970003027800cfa2de0022
:101f300005037800860378000800be000a01be0091
:101f4000ca0207003fb29700000052008fb8970006
:101f500060cf7800089ebe000a96be000e07e9001a
:101f60003c00be002c01be00b0b79f00c1b79f006f
:101f7000d2b79f00e3b79f00e00f5000e08f5800fa
:101f8000e00f5900e08f5900020034000d00e0001e
:101f9000d9ff3c00ffb09700e88f500010003a00d6
:101fa0000c1090000038a3000d003200f78f56008f
:101fb00006003e00e2fc2f000d014100e2c07f0060
:101fc00000c3b30080cf5000050032008d06e90049
:101fd00000c3b300e3fc2f008d81410080f17f003e
:101fe00078811600120e98006c009000e3fc2f0020
:101ff0008f8141008d8041004cf907001c09900041
:102000005c089000800f510006003d000200500067
:10201000000e98000c1090000040a10000169800df
:102020000f0037000000e0000d003d000c10900094
:1020300074006000f00f500009003a007c08900026
:10204000fc009000010050008c089000010050003e
:10205000020050004240a90001003400000e980028
:102060004f0778004f06be004f05be004f04be006c
:102070006f02b10000000600889fbe008004780057
:102080006684400000ff2700180060004401de0065
:10209000f07f2000800f51000e003a00800ceb0012
:1020a000180478006f0064001c003a0021009000c2
:1020b0000000e00019003a00110090000000e0006c
:1020c00016003a00100020001100e0001400320059
:1020d000120037000200e00005003c00010078001b
:1020e000db010700000178000000e00008003c0070
:1020f000f00028001800600001fe2300010c7000b1
:1021000020c02f00800c41000080eb00040037004d
:10211000800ceb000000eb000100370020002000e5
:102120004f04be0000000600889fbe008a1f780092
:102130008c9fbe00000478000206be00e60440004a
:10214000190178000200d0004505de008a00780001
:10215000f07f2000800f55000c003a006f006100f6
:1021600068003a00280090000000e00065003a0096
:10217000180090000000e00062003a00100020000b
:102180001800e000600032005e0037000a00e00046
:1021900007003a0008007800ad01070080007800d1
:1021a0000000e000020034000a007800560037000a
:1021b0006108b9000c0140008d814800e07f2000db
:1021c000800f5100e08f59000d0034001900e0002d
:1021d00004003d006000b8000200200003ff2f0053
:1021e000030037006000b8000200200003ff270052
:1021f000009cbe000294be00100020004200370088
:1022000019027800e00f5100e08f590008003400f7
:10221000f10028008100620002004100000040003f
:102220000000400000004000808c70003300370048
:1022300000002800000362006f0062000040a00060
:10224000800c780061015100e0815900c0fc2f0032
:10225000f1ff2f00800f5100818f59000d003d00cc
:10226000860c78000000eb00200498001004980011
:10227000000c7800240037008880e800110c7800fa
:10228000640044009008780019087800800ceb0086
:1022900070014100f00f4100f7ff34008202ea00b4
:1022a000150032008881e8007082120098007800e2
:1022b0008508de00130078000400dd00008c70004b
:1022c00064014400930078008508de001200780065
:1022d0000400dd0080897000920078008508de002f
:1022e000190078000400dd000089700019007800f2
:1022f0000500de00800c7800990c73000080eb0074
:1023000001003700200020004f06be004f05780076
:102310004f04be00000006000800fa00889fbe00bf
:102320008a9fbe008c9fbe00e0b79f00f1b79f0060
:102330000206be005704070080bf9f0091bf9f00a8
:102340000001be000c00be001e0307006fb1970025
:10235000ffb1970000055100818559000fbc97001f
:102360009fbc97000800be000a01be004f06be00d9
:102370004f05be004f04be000080fa0000000600ba
:10238000ec874700889fbe008a9fbe008c9fbe00de
:102390008e1f78000004780001457800020678005e
:1023a00083047800840678000300e00002003c000b
:1023b000190020002cce200060c6b300804f5500cd
:1023c0000e00320060c4b300804f55000b00320095
:1023d00070c6b300804f55000300320070c4b300d4
:1023e000804f55009c003a00e48f46008000350085
:1023f00058089000808f56007d003d008d05e80054
:1024000060c6b300804f55001000320060c4b300b6
:10241000804f55000d003200081090000038a300d6
:1024200004003a0058089000808f540001003d00dd
:10243000590c9800580890000b005000500c980060
:1024400002003b000000eb00500c98000b00e00085
:1024500027003c00180990006800900001c3b300f9
:10246000017178008201e800130c98005808900070
:102470000000e00003003c00081090000038a300ba
:102480000500320068009000e1c2b300817178005d
:102490000280e800100c9800d80890000b00ea00b9
:1024a000808f500001003d008105ea000b00ea002a
:1024b000200c98000b804000500c9800890f5000b1
:1024c00001003d0080047800390c980068009000fd
:1024d0009808900001004000090178008c00780005
:1024e00012f8070058089000090050001a00370041
:1024f00098089000680090008b8f540018003d00f1
:1025000001004000090178008c00780007f80700fe
:102510001808900009014000120c9800098055002d
:10252000200c9800580890000000e00003003c00d8
:10253000081090000038a30006003200e800900068
:10254000e0c2b30000f17800380890000000e80015
:10255000300c980058089000400c9800a4003700f8
:10256000010040000b0178008c007800eff70700b5
:10257000180890000b014000120c98008b84540046
:10258000580890000000e00003003c000810900094
:102590000038a3000500320068009000e1c2b300db
:1025a000017178000200e800100c980058089000b3
:1025b000890f500001003d00800478006800900001
:1025c00098089000010040008b0046000901780047
:1025d000d6f707001808900009004000100c98007a
:1025e0005808900009005000200c98008000370027
:1025f00070c6b300804f55000300320070c4b300b2
:10260000804f550014003a0058089000808f540005
:1026100004003d00081090000038a30001003a00bb
:10262000590c9800580890000000e900500c9800e0
:1026300002003b000000eb00500c980070c6b30095
:10264000804f550002003a005ac6b3000b00370015
:102650005ac4b3000900370010c6b300804f5500bc
:1026600002003a000ac7b3000400370010c4b300e8
:10267000804f550001003a000ac5b30018099000c8
:10268000680090003c7178008201e800130c98000b
:102690000c027800580890000000e00003003c00a5
:1026a000081090000038a30017003200e8009000e6
:1026b000e0c2b30080f178008280e800110c98003d
:1026c000580890000000e0000f0034008904e90081
:1026d000890f500001003d008004780068009000e0
:1026e0000100400009017800840078008ff707009e
:1026f0001808900009004000100c9800580890003d
:1027000009005000200c9800680090009808900084
:10271000010040000086e8000a5878008000780038
:102720000d00e00004003500b0c2b300804878001e
:102730008c04780004003700d0c2b30080487800d1
:102740008c0478008d06ea008005eb00788757003e
:1027500006003700a10020000d007800b50007003a
:10276000015f78008b05e800800678000d00e0002e
:10277000f8ff3c00e18f550009003c0050c6b30053
:10278000804f55000300320050c4b300804f550005
:1027900003003a0000c3b300005e78008c047800a8
:1027a0000b00e000040032000b00e900f880570045
:1027b000008040000700370000c3b300805c780051
:1027c000060037008b05e90001c3b30090dc400030
:1027d0000000e9000b00e000faff3c0068009000f8
:1027e000980890000100400000805400300c9800d0
:1027f0000810900074006000f00f50000e003a00c6
:10280000780090009808900001004000a80890000f
:1028100001004000b808900001004000c808900086
:102820008100400078089000808f500002003d0039
:1028300001005000000c98004f0778004f06be00c2
:102840004f05be004f04be00cf00b10000000600df
:10285000881f780000027800e6024000150078002a
:1028600001002800810360006f006000800a78008a
:1028700012003a00240090000000e0000f003a002f
:10288000140090000000e0000c003a001600200048
:102890001400e0006300320008003700e40042004a
:1028a000910a78000480e800900878001408780005
:1028b000020a780070035300010037001600200060
:1028c000150178001500e000f4ff32001300370016
:1028d0006401420080004000120078004f00de00da
:1028e000808a70008480e800120078008001400037
:1028f000110078004f00de0000897100910178001e
:1029000003814100140078004f00de008008710050
:1029100014047800080a44000603e9001500780052
:10292000ef0f5000eaff36003a0037000481e8005c
:102930009400d10092017800038041000000400023
:102940000000400000004000000040000000400087
:102950000000400000004000000040000000400077
:102960000000400000004000000040000000400067
:1029700000004000008a7000e40042008301d100a2
:1029800011047800080044000000400000004000ee
:102990000000400000004000000040000000400037
:1029a0000000400000004000000040000000400027
:1029b0000000400000004000000040000000400017
:1029c000008971001101d100950178000380410058
:1029d00000004000000040000000400000004000f7
:1029e00000004000000040000000400000004000e7
:1029f00000004000000040000000400000004000d7
:102a0000000040000000400080087100950ad100dd
:102a10000603e80015007800ff0f5000c3ff3e00da
:102a2000ef0a6000958a7300060078004f04780072
:102a30000000060001017800801f780011000900e5
:102a40000200d800800078004f0078000191b900a2
:102a500082025000010278000400be00000006005f
:102a6000480107000400be0000000600889fbe0069
:102a70008a9fbe008c1f78000205be000004be00c5
:102a80000006eb00e00f5000e08f5800e00f590007
:102a9000e08f590007003d006000b8006011b800e9
:102aa00008045000898458000a0559008b85590094
:102ab0001c002000e00f5200e08f5a00e00f5b0086
:102ac000e08f5b0002003d000f0007000c00a20039
:102ad0000800be000a01be009f0107000203be00fd
:102ae0000002be000c00e0000100320006000700fa
:102af0000400be000601be004f0678004f05be0070
:102b00004f04be00000006006000b8006011b8006d
:102b1000040250008582580006035900878359003b
:102b200000000600881f7800000478005001be00f5
:102b30004000be000000420081804a0002014b00bc
:102b400083814b00009cbe000294be000400e100a3
:102b50000588e1000690e1000798e10002003100dd
:102b6000680044001008e8004f04780000000600e8
:102b7000f4874700889fbe008a9fbe008c9fbe00de
:102b80008e1f78000205be000004be00d4b79f006f
:102b9000e5b79f00f6b79f0087bf9f000000eb00de
:102ba000c0b79f00b0b79f00a0b79f0090b79f002d
:102bb00080b79f000d042000bfb097004fb0970072
:102bc000000140000000e00014003d004f08de005e
:102bd00000007100c0b79f00ad00070001003d007c
:102be00012002000b000070001003d00120020008c
:102bf000b500070001003d0012002000ba000700e8
:102c0000be000700feff3a00c2000700c800070030
:102c10000f004000c3ff0700270037004f08de0009
:102c200000067100ccb79f009900070001003d002d
:102c3000120020009c00070001003d00120020004f
:102c4000a100070001003d0012002000a6000700bf
:102c5000aa000700feff3a00ae0007000fb297007f
:102c60009fb297002fb39700bfb39700b60007003d
:102c70000000520081805a0002015b0083815b00ea
:102c800080b79f0091b79f00a2b79f00b3b79f0086
:102c90000007eb00ac0007000020e10001a8e10004
:102ca00002b0e10003b8e100010031001e00200085
:102cb0000e005600c0b79f004fb297000400e0001e
:102cc0000700350010002000010020006011b8004e
:102cd00008047000898470000a0571008b857100fa
:102ce0008d06e900b4ff3a000400e00003003d0057
:102cf0008f0007000f0040008aff07004fa89700d1
:102d00000000e00004003a000fb497009fb4970061
:102d10002fb59700bfb59700970007004f077800c1
:102d20004f06be004f05be004f04be004f01b1006c
:102d300000000600881f780018002000881f780017
:102d40008bff07008f87e9004f0478000000060022
:102d5000801feb0086ff07008f87e9000000060058
:102d6000889fbe008a9fbe008c1f78007b000700f2
:102d700005003d002f00070007003d003d00070053
:102d80000006eb00040037003f00070002003d0092
:102d9000300007001c00200077000700e5ff070057
:102da0000203be000002be000c00e0000100320081
:102db000280007000400be000601be004f06780090
:102dc0004f05be004f04be0000000600889fbe00f5
:102dd0008a9fbe008c1f78006000070003003d0042
:102de0001400070006003d0004003700260007001d
:102df00003003d006000b8006011b8001d0007002e
:102e00005d000700d2ff07000203be000002be0003
:102e10000c00e000010032000e0007000400be00bc
:102e20000601be004f0678004f05be004f04be00ed
:102e3000000006006000b8006011b80008045000ef
:102e4000898458000a0559008b8559001c00200010
:102e5000030037006000b8006011b80005003700bb
:102e6000e00f5200e08f5a00e00f5b00e08f5b0044
:102e70000000060004025000858258000603590035
:102e800087835900000006000006eb00f4ff3700be
:102e90000180400090b79f000001eb008fb09700c9
:102ea0000100e000000006000200700090b79f00e3
:102eb0000180400080b79f000001eb00ffa8970051
:102ec0000100e000000006000200700080b79f00d3
:102ed00001804000f0af9f000001eb00efa89700d9
:102ee0000100e0000000060002007000f0af9f004b
:102ef0000182400020000700f50305008301d10096
:102f00000281d3008180d3000080d3008502e900d4
:102f10000000060000027200e4af9f0008044400b5
:102f200089844c000a054d008b854d000000060089
:102f30003fb29700cfb297005fb39700efb397000f
:102f400000fe2f00000006003fb09700cfb09700b2
:102f50005fb19700efb19700000006000205be00c8
:102f60000004be00e00f5000e08f5800e00f590051
:102f7000e08f5900000006000800be000a01be00f4
:102f8000000006006022b800060220000000d00009
:102f90008180d2000482d2008582d2000000a0008d
:102fa0000202520083825a0003003b0002024200e8
:102fb00083824a000000a1000603e900f3ff3a0003
:102fc00000000600020ab900001bb9000200b800a8
:102fd000810042008100430000000600889fbe007f
:102fe0008a9fbe00010578000100e0000400350062
:102ff00008003c000000e00020003200050037001f
:1030000060001000e080180002003b0001f02c007e
:103010001a0037000004be006011b8006b092000e0
:103020000982cf00020039000882cf000441b000bd
:10303000694252000e00320008003b00828171009c
:10304000610164008904d1000884d3008b05e80085
:103050000442e800f9ff3a00050037000804440084
:1030600089844c008b05e9000442e900fbff3a002b
:103070005b0007000af0a70001f0a0004f05be00aa
:103080004f04be0000000600889fbe008a9fbe005d
:103090008c1f7800780007007f00330003866c00e7
:1030a0006450e100240032006420e1002700320077
:1030b0006150e100220032006120e1002100320075
:1030c0008b854200eb07b1000134b800003ab8002c
:1030d0000804420089844a00013ab8000030b80070
:1030e0008880400009014a000400330000004000cd
:1030f00081804800020149008b05e900c909dd0013
:10310000830170000100320013002000c814de00ab
:103110004814dd004709de001200b200c808de00d6
:10312000088470002e00070001f0a1000cf0a70039
:1031300001f0a000610037006120e100630032006f
:103140000801be000200be00f7ff37006150e10039
:10315000fcff3a005d003700889fbe008a9fbe00da
:103160008c9fbe000404b8000506b8008904460020
:1031700060854e000606b8000a054600e0854e0050
:103180000706b8008b054600040eb8008904460007
:103190000a854e00e0854d00050eb8000a05460080
:1031a0008b854e00060eb8008b0546000416b8004d
:1031b0000a0546008b854e000516b8008b054600b3
:1031c000041eb8008b0546000800be000a01be00c0
:1031d0004f06be004f05be004f04be0000000600b3
:1031e00081002000618055000b003d000b00200095
:1031f00061fe2f000100e1001d003400828171009a
:10320000610164008904d1000884d3000000e80053
:10321000faff3a00710020006100640003007000b2
:10322000020060000900320061044400e0844c00a8
:103230000988a500050032008b05e8006808e10058
:1032400002003a008904d1000884d300f20f200064
:103250000258e10005003d00c75ddd00f907b2003e
:103260008980750008007800000006000bf8270030
:103270008b007800000005000004be001600070067
:103280000003be000405be000200be0012000700dd
:10329000844f7500000006000200be006450e1008b
:1032a000050036006420e100020036000968a30032
:1032b00001003a000800be000160a0004f0678003f
:1032c0004f05be004f04be0000000600f0ff2f00b7
:1032d000f1ff2700f9ff3700c70ade00f107b2004f
:1032e000f50fb20008003200e1cf420002003200c8
:1032f0000170a00024000500810f70000100320061
:103300000408050044000500810f700002003a0027
:10331000140005008502e9000000400081c048005b
:10332000fcff3b000170a000240005008103780031
:10333000e9ff07000001be006000b8000478a300a8
:1033400013003a006220e10015003e000d00390034
:103350008301d1000281d3008180d3008301d10099
:103360000281d3008180d3008301d1000281d30088
:103370008180d3000538b000c42add00f300b2001c
:103380008381720007f0a70003f0a0000000060090
:10339000f3ff2700f2ff2f006110b900fbff370099
:1033a00003ff2700f7ff37008f1fd1001701070029
:1033b0008f87e9000000e000000006001400fa001a
:1033c000889fbe008a9fbe008c9fbe000004be0086
:1033d0000205be00680047000a90be000890be00cb
:1033e000330107000070a7000bf0a100304320005c
:1033f0009e02900080825200b0fe2f000028e10063
:1034000011003d00b0fc2f000028e1001500340041
:103410001e0990008e0890007e0090000501b0000b
:103420000201d1008180d3000080d3008502e80032
:10343000fbff3a000b00e00058013b006000100069
:10344000e080180055013700f0ff2f00f1ff270042
:103450000b00e00051013b000100280000002000ab
:103460004e0137006000b8004c0137004f89de0084
:10347000820178004e01370007f0a2008301370077
:10348000809feb00e10007008f87e9000000e0006b
:1034900000000600839f68000100e00002003d007c
:1034a00060001000e08018000300e00002003d0012
:1034b00060011100e0811900b2fe07004f00e0003a
:1034c00002003b0060001000e080180000000600d1
:1034d0002800fa00889fbe008a9fbe008c9fbe0015
:1034e00003866b00190107000028a30064003a005e
:1034f0000128a30067003a000008a30062003a0018
:103500000108a30065003a001e009000be0890006c
:1035100081064000ed3fb100f4805700ee019000bd
:10352000111ab8008e099000311bb8009e09900056
:10353000311cb800511db800f48557004600070043
:10354000fe0190003a0007008b85e8003e0007006e
:103550008e09900040000700ee0190003400070043
:103560008b85e800380007008e09900040000700b6
:103570009e0990001b18b800890440000a85480085
:10358000fe019000340007008b85e800380007003a
:10359000ee019000300007008e0990001b18b80063
:1035a000890440000a8548000a98a30008003a00f0
:1035b0000402420085824a0006034b0087834b00c9
:1035c00008044c0089844c000a054d008d06e90072
:1035d00084827200850273004c3add00850272001d
:1035e0000100320015002000443ade001400b20051
:1035f0004538de00cb45dd000b007000c540de0025
:10360000cb4ddd008b8070004549de00cb55dd00e1
:103610000b017100c551de000d0378009801070011
:1036200003f0a1000cf0a70003f0a000db003700be
:103630001b18b8008502400006834800e0834b0059
:1036400060044c00070037001b18b8000603400058
:1036500087834800faff37001b18b8008703400033
:1036600008844800e0844c0060054d00000006001e
:103670001b18b8000804400089844800faff37008e
:103680000108a300c2003a005800be005801be0065
:10369000e3ff37000008a300bd003a0009047800ea
:1036a000f9ff37002800fa00889fbe008a9fbe00fd
:1036b0008c9fbe0003866b00a40007006400e1003d
:1036c000440032006408e1004a0032006100e10079
:1036d000460032006108e10049003200ec06470074
:1036e0006000b8003d02be003d03be00f4865700f6
:1036f0006011b8003d04be003d05be007d03200002
:103700000b0037000000a0008d06e9001300320016
:103710000402420085824a0006034b0087834b0067
:103720000000400081804800020149008381490077
:103730000802520089825a000a035b008b835b00f7
:10374000f0ff3b000802420089824a000a034b0056
:103750008b834b008d06e900edff3a0084827200f6
:1037600086827200f707b200878272000100320081
:10377000150020001e0490003e0b9000060354002c
:10378000e63fb0000368a300070032000000a70076
:103790000500a0008301d1000281d3008180d30005
:1037a0000080d3000603e8008301d1000281d3002a
:1037b0008180d3000080d3000002eb000482d2009d
:1037c0002f01070003f0a1000cf0a70003f0a000f8
:1037d00072003700640247006408e1006c003200a8
:1037e0003400be003401be00f6ff37006108e1007e
:1037f000670032006011b8006000b800f1ff3700c8
:1038000003ff270002002000fbff3700889fbe0057
:103810008a9fbe008c9fbe000404be000605be0049
:10382000809fbe00829fbe00410107000406780011
:103830000800be000a01be003d01070084067800b2
:103840004f03be004f02be008d4f76007fb0970041
:1038500013003300f0ff2f008b8f6b0006003b003e
:103860000d0666000c00a7000a00370007f0a6004e
:10387000100020000a003700880f5200898f5a007c
:103880008a0f5b008b8f5b00030039001000200063
:1038900001003e000000200007f0a7000000ea0041
:1038a0004f06be004f05be004f04be0000000600dc
:1038b000800078005002be005003be004439de0094
:1038c000f700b200f37f200003016100090032001d
:1038d0000218e10016003a008501720083017300ae
:1038e000838173000008200015003a00400020008a
:1038f0001300370085017200830173008381730018
:1039000005003a0004a8be0006a8be001000200072
:103910000b0037000201e9000402420085824a00e0
:1039200006034b0087834b000748a300f9ff3200d2
:103930000740a00004a8be0006a8be00200020008a
:10394000800098009200980000000600680447007c
:103950000294be000094be00fc0447008694be00a2
:103960008494be0009007800d1ff070008007800a9
:10397000cfff070099007800814f70000b003b00db
:103980000800be00fc0007004f00b1000300370034
:10399000f3ff2700f2ff2f006110b9004f06be00b1
:1039a0004f05be004f04be000080fa000000060074
:1039b000889fbe00830478000300e0002c003500df
:1039c00003003c00008270000402710026003200f7
:1039d00036432000c50020008383cf000a00390051
:1039e0000541b1008283cf00070039000541b100d5
:1039f0008183cf00040039000541b1008083cf00ee
:103a0000010039000541b10085c353006022b800b0
:103a1000120032000a003b008482720061026000e2
:103a20008301d1000281d3008180d3000080d300c4
:103a30000603e8008743e800f7ff3a000700370075
:103a40000000400081804800020149008381490054
:103a50000603e9008743e900f9ff3a008800070000
:103a600009f0a70003f0a0004f04be00000006000c
:103a700060001000e080180060011900e08119006a
:103a8000d3ff3b00033e2c00f7ff37002800fa006d
:103a9000889fbe008a9fbe008c9fbe0007067800ec
:103aa000878669000c003b000304780087047800d7
:103ab00008f0a10009f0a100840f5000858f580084
:103ac000860f5900890f5c00030033000cf0a20040
:103ad00001003a000cf0a1009cff07006400e10027
:103ae0005f003200780147006408e10061003200a5
:103af0006c014700748557003200be001201be0001
:103b00003a04be001a05be001e039000be0a9000d3
:103b10008503530006003d000004fd008104fd0004
:103b20000205fd008305fd008703ea000503780018
:103b30000df8a3000400320060041400e0841c00af
:103b400060051d00e0851d006022b8007d03200097
:103b50000d38e1008006eb000b0039004433dd0036
:103b6000f300b200830173003900370084827200d1
:103b70000d027800e10664008b85d1000a85d30030
:103b80008984d3000884d3008703e900f7ff3b0052
:103b900008004000898048000a0149008b814900e3
:103ba00004003b0060001000e08018006001190074
:103bb000e08119000358a300090032008d827200d1
:103bc00084827200610260008301d1000281d3000f
:103bd0008180d3000080d3000603e8001b0037007b
:103be0000348a30017003a000600e0001700340065
:103bf0000603e9000d00a300000048008180480092
:103c000002014900838149000348a3000f003a00e4
:103c10000600e000090034000603e900000040004f
:103c200081804800020149008381490001003a0077
:103c30000003eb000348a300f5ff32006022b80048
:103c40000200370084827200618266000c00070067
:103c500003f0a1000cf0a70003f0a0004fff370015
:103c6000640147006408e10002003a000df8a30077
:103c700047ff3a003200be001201be0047ff370086
:103c80001800200057002000080453000d003d00dc
:103c90000600200097fc2f000740e1001e003400c2
:103ca00084827200610260008301d1000281d3002e
:103cb0008180d3000080d3000804e800f8ff3a00b8
:103cc00047002000610460000504740004046400df
:103cd0000d00320061004000e080480060014900b2
:103ce000e081490003b8a500070032000603e800a0
:103cf0006538e10004003a008301d1000281d3005d
:103d00008180d3000080d300f87f20000830e100dc
:103d100003003500080378006000b8006011b800a7
:103d20004433dd00f300b20083017300000006009d
:103d300005ff270005826100070032000428e1002a
:103d400001003200240005000600070001003a00cf
:103d5000440005000408050002000700f9ff3a00ce
:103d6000140005006f8261008102700085027100fd
:103d70008502720000000600e48240001078a30073
:103d800007003200640240001178a3003400be0036
:103d90001401be00040032000330a700000006003a
:103da0003500be001501be000330a0000000060073
:103db00000c0eb003cecb7003decb7003eecb700b8
:103dc0003fecb70040ecb70041ecb7000040eb001f
:103dd00038ecb70039ecb7003aecb7003becb70071
:103de00000000600881f78000104780082c32000cc
:103df000124178000281fb0091c3200091407800bd
:103e0000c208dd00c13fb2008180400081804000d7
:103e1000818040008180400081804000818040009e
:103e200002827000a2c32000124178000281fb00d0
:103e3000b1c3200091407800c208dd00c13fb2004c
:103e4000818040008180400081804000818040006e
:103e50008180400081804000828270001003be009b
:103e6000860f5200878f5a005800320021a7200089
:103e7000914078008180fb0073cabf004200dd00e2
:103e8000c03fb200000040000000400000004000c1
:103e900000004000000040000000400001017000f0
:103ea00041a72000914078008180fb0075cabf00c7
:103eb0004200dd00c03fb2000000400000004000b2
:103ec00000004000000040000000400000004000f2
:103ed00081017000820f5200838f5a0041003a0026
:103ee000a1a62000914078008180fb006bcabf0032
:103ef0004200dd00c03fb200000040000000400072
:103f000000004000000040000000400000004000b1
:103f100001017000c1a62000914078008180fb0063
:103f20006dcabf004200dd00c03fb200000040008b
:103f30000000400000004000000040000000400081
:103f4000000040008101700006016900878169005e
:103f5000e1a62000914078008180fb006fcabf007d
:103f60004200dd00c03fb200000040000000400001
:103f70000000400000004000000040000000400041
:103f80000102700001a72000914078008180fb00b1
:103f900071cabf004200dd00c03fb2000000400017
:103fa0000000400000004000000040000000400011
:103fb0000000400081027000040161008581610001
:103fc000e00f5100e08f590006003200c0c320000e
:103fd00005000900305c78006800b1001000200086
:103fe000010037000000eb004f04780000000600dd
:103ff000881f780000047800100078005a42020000
:1040000000000000000c7800180090005a420200e6
:104010000000000010049800380090005a4202008e
:1040200000000000300498004f04780000000600f3
:10403000889fbe008a1f780000057800e23d0200dc
:10404000000000000000e000fcff3200f0ac2000a7
:10405000703b02000000000019002000090d7800ec
:10406000008020001005980068c0b3004845980003
:1040700040c0b300504598006800450071a9200079
:1040800005000900315878006000b100a1a62000a9
:10409000914078008180fb006bcabf004200dd00c8
:1040a000c03fb2000000400000004000000040009f
:1040b00000004000000040000000400001017000ce
:1040c000c1a62000914078008180fb006dcabf002e
:1040d0004200dd00c03fb200000040000000400090
:1040e00000004000000040000000400000004000d0
:1040f0008101700072059800030d98000a00780095
:10410000bbff070072004500c20120008840780014
:10411000aa36020000000000c10120000a00780059
:104120005635020000000000ae3b02000000000017
:10413000090078004f0578004f04be00000006001b
:104140001c00fa000003780010002000d0b79f0088
:1041500000c0eb00e0f79f00f0f79f0080ff9f009a
:1041600090ff9f00a0ff9f00b0ff9f00a1a620002e
:10417000914078008180fb006bcabf004200dd00e7
:10418000c03fb200000040000000400000004000be
:1041900000004000000040000000400001017000ed
:1041a000c1a62000914078008180fb006dcabf004d
:1041b0004200dd00c03fb2000000400000004000af
:1041c00000004000000040000000400000004000ef
:1041d0008101700036006900a68069000001be0000
:1041e000e1a62000914078008180fb006fcabf00eb
:1041f0004200dd00c03fb20000004000000040006f
:1042000000004000000040000000400000004000ae
:104210000102700001a72000914078008180fb001e
:1042200071cabf004200dd00c03fb2000000400084
:10423000000040000000400000004000000040007e
:10424000000040008102700004016100858161006e
:10425000e00f5100e08f59001d00320021a720001f
:10426000914078008180fb0073cabf004200dd00ee
:10427000c03fb200000040000000400000004000cd
:1042800000004000000040000000400001017000fc
:1042900041a72000914078008180fb0075cabf00d3
:1042a0004200dd00c03fb2000000400000004000be
:1042b00000004000000040000000400000004000fe
:1042c00081017000e2bf9f00f3bf9f000300370031
:1042d0001600be00e0bf9f00f1bf9f007c8057002a
:1042e00053ff07000080fa00000006001c00fa00df
:1042f000606180000000e00003003200e10f500028
:104300007c003a005d003700c10120007c8057002e
:1043100096340200000000002a370200000000006e
:104320007c80570032ff07002fb09700e10f50004c
:1043300070003a00cfb0970060402000808f50009e
:104340006c003a005fb09700e20f50001a003a008c
:10435000130037000040eb00ca22020000000000fa
:1043600074805700c1c3200005000900b0587800d0
:104370006000b1001fb89700afb8970038ecb700e5
:104380004801de000200780039ecb7000100780037
:104390003aecb7004808de003becb70055003700a8
:1043a0000040eb00be220200000000000000e00020
:1043b000ebff3200e7ff3700e10f50002f003a001b
:1043c0006fba9700ffba9700a1a62000914078002d
:1043d0008180fb006bcabf004200dd00c03fb2001d
:1043e00000004000000040000000400000004000cd
:1043f000000040000000400001017000c1a6200044
:10440000914078008180fb006dcabf004200dd0052
:10441000c03fb2000000400000004000000040002b
:1044200000004000000040000000400081017000da
:10443000820f5200838f5a002e003a000900370085
:104440000040eb00be220200000000000000e0007f
:104450002a0032000040eb00ca22020000000000e7
:10446000240037001fb89700afb89700840f5000a2
:10447000858f5800f2ff3a00f6ff37002000200039
:10448000d0b79f000040eb00b02202000000000007
:104490000000e0000800320000c0eb00e0f79f00e1
:1044a000f0f79f0080ff9f0090ff9f00a0ff9f00fc
:1044b000b0ff9f000600370090618000a16180007e
:1044c000b0bf9f00c1bf9f00b1618000d1bf9f00fe
:1044d0007061800081618000e0bf9f00f1bf9f009c
:1044e0007c805700d2fe07000000e0001000320080
:1044f0002c2cef00100020000d0037001fb8970093
:10450000afb8970070618800816188006fb0970034
:10451000ffb0970090618800a16188008fb8970074
:10452000b16188001000200060618800d3ff37006f
:104530000080fa0000000600602ba9000000eb00dc
:1045400090598800342bef00362bef00604ba90008
:10455000606ba90061ebb70060aba900000006002a
:104560008000eb0090598000ea0f500001003a00f3
:10457000110020000100780000000600600bd5004b
:104580006100600000000600e05a8800f15a8800cf
:104590000000060012b62000124178008241e800b7
:1045a0000300780061ebb70091598000eb8f500059
:1045b0002b003e00100020008100dd00010078008b
:1045c0001030b2000a003a0000c0200000806000f5
:1045d0000a003a0001007800e00fb200200032002b
:1045e00080002000e9cf510015003e001300370085
:1045f0000200780061ebb70000000600a0598000bf
:10460000b1598000e00f5000e08f58000e003200da
:104610008060020000000000a2598000b3598000b1
:1046200002005000838058007296280093002000fa
:10463000820f5000838f580003003e0020002000ae
:104640009059880000000600806002000000000011
:10465000a0598800b1598800b00020009059880006
:1046600000000600600ba800722802000000000095
:104670000000e00044003a00e1a7200091407800eb
:104680008180fb007fcabf004200dd00c03fb20056
:10469000000040000000400000004000000040001a
:1046a00000004000000040000101700001a820004f
:1046b000914078008180fb0081cabf004200dd008c
:1046c000c03fb20000004000000040000000400079
:1046d0000000400000004000000040008101700028
:1046e000020078006aeab7004810de006beab70003
:1046f000030078006ceab7004818de006deab700e6
:1047000021a82000914078008180fb0083cabf006f
:104710004200dd00c03fb200000040000000400049
:104720000000400000004000000040000000400089
:104730000101700041a82000914078008180fb00b9
:1047400085cabf004200dd00c03fb200000040004b
:104750000000400000004000000040000000400059
:104760000000400081017000020078006eeab7008e
:104770004810de006feab7000300780070eab70067
:104780004818de0071eab70000000600600ba900bf
:104790001000200090598800000006009059800009
:1047a0000000cf000000e9004f00de00000006001e
:1047b000e05a8000f15a80004e3f020000000000e5
:1047c000223f0200000000006101b800e25a8800a8
:1047d000f35a88000100200000000600881f7800be
:1047e000403802000000000061006000000040004e
:1047f000000040000000400000004000015b80001d
:104800000140a10080807000015b88004408de0048
:10481000614160004208de0061406000804f51004d
:1048200051003200610061000000400000004000c3
:104830000120a10080807000015b88007080600012
:1048400047003a00602ba90090598800e1a720009a
:10485000914078008180fb007fcabf004200dd00ec
:10486000c03fb200000040000000400000004000d7
:104870000000400000004000000040000101700006
:1048800001a82000914078008180fb0081cabf0010
:104890004200dd00c03fb2000000400000004000c8
:1048a0000000400000004000000040000000400008
:1048b00081017000020078006aeab7004810de004b
:1048c0006beab700030078006ceab7004818de0016
:1048d0006deab70021a82000914078008180fb009c
:1048e00083cabf004200dd00c03fb20000004000ac
:1048f00000004000000040000000400000004000b8
:10490000000040000101700041a8200091407800a3
:104910008180fb0085cabf004200dd00c03fb200bd
:104920000000400000004000000040000000400087
:10493000000040000000400081017000020078008b
:104940006eeab7004810de006feab7000300780097
:1049500070eab7004818de0071eab70002003700bd
:1049600010002000905988000040eb0072280200df
:10497000000000000000e00004003200602ba900ed
:10498000322bef0060aba80008003700005b80000e
:104990000058a300040032000048a30002003200c7
:1049a000100020009059880060aba900600bab009c
:1049b00002003200602ba900322bef0090598000da
:1049c0000100200061005000e0805800ea0f500014
:1049d000e08f580073013e00006001000a003700bc
:1049e0007a003700ab003700ed003700ec003700ed
:1049f000eb00370026013700310137003d01370059
:104a0000490137004a01370072a92000124178009d
:104a10000281fb000300200098cabf000080fb0059
:104a2000010020000000400081804800000040009c
:104a30008180480000004000818048000000400064
:104a40008180480000004000818048000000400054
:104a50008180480000004000818048000000400044
:104a600081804800020140008381480099cabf004c
:104a70008080fb000000200002014000838148008c
:104a80009acabf000080fb00010020000000400027
:104a90008180480000004000818048000000400004
:104aa00081804800000040008180480000004000f4
:104ab00081804800000040008180480000004000e4
:104ac00081804800000040008180480000004000d4
:104ad00081804800000040008180480000004000c4
:104ae00081804800000040008180480000004000b4
:104af00081804800000040008180480000004000a4
:104b00008180480000004000818048000000400093
:104b10008180480000004000818048000000400083
:104b20008180480000004000818048000000400073
:104b30008180480000004000818048000000400063
:104b40008180480000004000818048000201400050
:104b5000838148009bcabf000080fb000100200049
:104b600002014000838148009ccabf000080fb0016
:104b7000010020000000400081804800000040004b
:104b80008180480000004000818048000000400013
:104b90008180480000004000818048000000400003
:104ba00081804800000040008180480000004000f3
:104bb000818048000200400083804800e05a88005d
:104bc000f15a88002000200090598800005b800086
:104bd000680460001b003a00606ba8000004fd0040
:104be0006eeab7006feab70070eab70071eab70083
:104bf0000004fd0008407800edfe070057ebb70009
:104c000008407800eafe0700e20f200003002000c1
:104c100030150200000000000040e80056ebb7002d
:104c200090ea2f00a05a880040b52000a020020082
:104c3000000000008060020000000000c0598800f1
:104c4000d1598800e1b4200040b52000f21e0200d6
:104c5000000000000000e0000c003a00806002004c
:104c600000000000c2598000d359800002005000ab
:104c70008380580042422f00820f5000e08f58007e
:104c8000c800360030002000c5003700606ba90066
:104c9000c4003700606ba900602ba8001100200041
:104ca000115a88004eebef004febef0050ebef0096
:104cb00051ebef0052ebef0053ebef00a25a8000f4
:104cc000b35a8000020078006aeab7004810de009c
:104cd0006beab700030078006ceab7004818de0002
:104ce0006deab7006eeaef006feaef00706aef005e
:104cf000716aef0044b4200070a92000050009008b
:104d0000305a7800e159880000802000f05988006e
:104d100060c0b30040ebb70040c0b30041ebb70048
:104d2000525a8800635a8800c0b32000f81f02005e
:104d300000000000223f02000000000042012000ad
:104d4000110009000280d80044422f000500200015
:104d50006033b8000100780001002000020020004c
:104d6000030020003615020000000000440120006e
:104d7000050020006033b8009a1602000000000011
:104d8000c05a8800d15a88008060020000000000ec
:104d9000c0598800d15988004000200080003700a9
:104da0008060020000000000c2598000d3598000da
:104db0000200500083805800c25a8000d35a8000fd
:104dc000820f5000838f580076003600806002000a
:104dd00000000000c0598800d1598800223f02001d
:104de0000000000042012000110009000280d800ec
:104df00044422f00050020006033b8000100780015
:104e000001002000020020000300200036150200ef
:104e10000000000044012000050020006033b800bd
:104e20009a1602000000000044422f0005002000f6
:104e30000000420081804a00c05a8800d15a880090
:104e4000e23d0200000000000000e000fcff320034
:104e5000f0ac2000703b020000000000c201200006
:104e600061c0b300e0b42000aa36020000000000d8
:104e7000c1012000c0b32000563502000000000030
:104e8000ae3b020000000000322bec004500370072
:104e90008060020000000000c2598000d3598000e9
:104ea0000200500083805800c25a8000d35a80000c
:104eb000820f5000838f58003a00360037003700c9
:104ec0008060020000000000c0598800d1598800ad
:104ed00090cab3006aeab700e0cfb3006beab7004c
:104ee00010c0b3006ceab7006deab7009000200074
:104ef0002b0037008060020000000000c2598000d3
:104f0000d35980000200500083805800028723009c
:104f100093032000820f5000838f58002100360039
:104f2000200020001e003700602ba9001d00370064
:104f300020002000105a880010002000e05988004e
:104f400000802000f0598800c0b32000f81f020044
:104f500000000000e23d0200000000000000e00050
:104f6000fcff3200f0ac2000703b020000000000ab
:104f7000c201200061c0b300e0b42000aa360200e4
:104f800000000000c1012000c0b32000563502001f
:104f900000000000ae3b020000000000a000200066
:104fa000905988004f047800000006000400fa00c1
:104fb00000004000818048000000400081804800df
:104fc00000004000818048000000400081804800cf
:104fd000e0bf9f00f1bf9f006fb89700ffb8970038
:104fe00061005000e0805800e0bf9f00f1bf9f00cb
:104ff0006fb89700ffb89700e10f4000e08f4800be
:10500000f5ff3a000080fa0000000600889fbe000d
:105010008a1f780080047800060037009001200085
:1050200001002000e1ff07000844e900e14f4400cf
:10503000faff3a008904e900e18f440002003200df
:1050400048c0b300f8ff37004f0578004f04be009a
:1050500000000600980ce20003003a001000200057
:10506000c06488008eebef008ecbbf00e14f4000a4
:1050700003003200b6610200000000008eebef007a
:1050800010002000805c8800926bef00928ba800db
:10509000922ba800000006008ecbbf00e14f40001d
:1050a00003003200b6610200000000008eebef004a
:1050b000902bef0000000600900be20003003a0086
:1050c00010002000805c8800920ba9000000060000
:1050d000805c80000000e000010032001000200031
:1050e00000000600905c8000610060000000060087
:1050f000905c80006200600002003200922ba900e8
:105100001000200000000600905c80004300de00dc
:1051100061006000000006000800fa00889fbe00e1
:105120000044eb00d8f79f006a805700ea63020052
:10513000000000006ff09700e24f5000e6003a00d8
:10514000c001200044620200000000008844780092
:1051500078a920006a805700ea630200000000007e
:105160006ff09700984f5000f2003a008944e80031
:105170000804e800e6cf5400f6ff3a00924bab007b
:1051800008003a0000012000446202000000000014
:105190004100200000ba200012640200000000005c
:1051a000b40ba800000f20004462020000000000c1
:1051b0006a84570008007800ea63020000000000db
:1051c0000000e000c4003200eff0970030c3b300ed
:1051d00080cf50008e00320007003e00e3cf500029
:1051e00031003200e6cf500050003200e1cf5000d5
:1051f000ae003a001700370060c3b30080cf500004
:1052000070003200e1cf4000b30032000040e900fe
:1052100080cf5000a5003a0008007800ea63020041
:10522000000000006ff09700e14f5000c1003a000d
:105230006b805700ea63020000000000924bab0055
:10524000dbff32005ff09700e24f5000d8ff3a00da
:10525000b800370008007800ea6302000000000090
:105260006ff09700e44f5000b2003a00924bab0051
:1052700007003200004478006a805700ea630200a9
:10528000000000000844e900c9ff3200faff3700bf
:105290004100200080ba20001264020000000000db
:1052a000b44ba800c2ff37006c805700ea630200cd
:1052b000000000004ff09700e34f50009d003600c3
:1052c000924bab000700320048c0b3006a80570021
:1052d000ea630200000000000844e9000600320012
:1052e000faff37004100200040ba2000126402009b
:1052f00000000000b42ba800cff09700e4c05000dd
:10530000c1f79f00030037006a805700ea6302007c
:10531000000000004ff297000440e900c0f79f0032
:10532000e14f4000f8ff3a00a1ff37006c805700c2
:10533000ea630200000000004ff09700e34f5000c6
:105340007c003600924bab0018003a004100200070
:10535000c0ba20001264020000000000b46ba80074
:10536000cff0970064c05000c0f79f00e34f50009b
:105370000e003600924bab000c003a0041002000ba
:1053800000bb20001264020000000000b48ba800e3
:105390004ff2970064425200c4f79f0003003700a9
:1053a0006a805700ea63020000000000cff0970017
:1053b0000140e900c0f79f00e14f4000f8ff3a00cc
:1053c0007bff370008007800ea630200000000005d
:1053d0006ff09700e44f500056003a006580570088
:1053e000ea6302000000000066805700ea630200e2
:1053f0000000000067805700ea6302000000000020
:1054000068805700ea6302000000000068ff370070
:1054100008007800ea630200000000006ff09700c7
:10542000e44f500043003a00924bab0008003200ba
:105430000044eb006a805700ea63020000000000ad
:105440000844e800e44f540059ff3200f9ff3700e8
:10545000b0b92000ea63020000000000a0b92000fb
:10546000ea6302000000000090b92000ea63020035
:105470000000000080b92000ea6302000000000084
:10548000c05c8000d15c8000c509de004b0add00f5
:105490004501de00020172000200500083805800c6
:1054a000c05c8800d15c880041ff37006c805700e9
:1054b000010037006a805700ea6302000000000024
:1054c000cff097000140e900c0f79f00e14f400096
:1054d000f8ff3a0036ff37005ff09700e24f5000c8
:1054e00006003a004fb89700dfb89700e05c8800ec
:1054f000f15c8800924ba80009003700e25c800054
:10550000f35c80004fb89700dfb89700800f510020
:10551000818f5900020032000040eb00d0f79f005d
:105520003e640200000000005ff097000080fb0076
:10553000030037003e640200000000000000eb00a2
:105540004f04be000080fa0000000600889fbe00e5
:105550008a1f7800804478000105780010c0b300ed
:105560007e6202000000000010c0b3007e620200f4
:105570000000000060c0b3007e6202000000000076
:105580000040eb007e6202000000000020c1b3007a
:105590007e6202000000000030c2b3007e620200a2
:1055a0000000000040c3b3007e6202000000000063
:1055b00060c5b3007e620200000000000040eb0006
:1055c0007e620200000000000040eb007e620200ec
:1055d000000000000040eb00928bab0001003a009d
:1055e00000c8b3007e620200000000000040eb0033
:1055f0007e62020000000000e3cf540007003a0082
:105600000a00e000050032004100200000ba20003e
:10561000a4620200000000000c0037000040eb0014
:105620007e620200000000000040eb007e6202008b
:10563000000000000040eb007e620200000000005d
:105640000040eb007e620200000000000044eb001e
:105650000040eb007e620200000000000844e80009
:10566000ec4f5400faff3a006100200070a92000be
:10567000a462020000000000a8ccb3000040eb00d0
:105680007e620200000000000844e900fbff3a00cf
:1056900030c6b3007e6202000000000020c8b300e4
:1056a0007e6202000000000030c5b3007e6202008e
:1056b0000000000030c6b3007e620200000000005f
:1056c00050c3b3007e6202000000000010c0b300af
:1056d0007e62020000000000094078007e62020045
:1056e00000000000e1cf540002003a00924ba900f4
:1056f00016003700e3cf540014003a000a00e0001f
:1057000012003a0060c3b3007e6202000000000095
:1057100040c0b3007e620200000000009fcbbf00cb
:105720007e620200000000009ecbbf007e6202008d
:10573000000000009dcbbf007e6202000000000060
:105740009ccbbf007e6202000000000070c3b3006b
:105750007e6202000000000040c0b3007e620200d2
:105760000000000010c0b3007e62020000000000d4
:1057700030c0b3007e6202000000000060c0b300d1
:105780007e62020000000000c0c0b3007e62020022
:1057900000000000e3cf540003003a000a00e000dc
:1057a0000800320011003700e1cf54000f003a002a
:1057b000005d8000115d8000e00f5000e08f580018
:1057c0000a00320020c3b3007e6202000000000025
:1057d00040c0b3007e6202000000000041002000d3
:1057e00000ba2000a46202000000000000c0eb002c
:1057f000010037000040eb007e6202000000000064
:10580000f14c8000b0122000808f5000f9ff36006c
:10581000a1a62000914078008180fb006bcabf00e8
:105820004200dd00c03fb200000040000000400028
:105830000000400000004000000040000000400068
:1058400001047000c1a62000914078008180fb0017
:105850006dcabf004200dd00c03fb2000000400042
:105860000000400000004000000040000000400038
:1058700000004000810470000a00e00006003a00c9
:105880000005fd006aeab7006beab7006ceab700f2
:105890006deab7000005fd00e662020000000000ae
:1058a000080078006aeab7004840de006beab700fb
:1058b000090078006ceab7004848de006deab700de
:1058c0004f0578004f04be0000000600805c800099
:1058d0000100200061005000e0805800eb0f5000f4
:1058e000e08f58002e013e00006001000b003700e1
:1058f00014003700400037004b00370062003700cb
:10590000c7003700ea003700f9003700e800370029
:10591000f7003700e6003700f500370032042000ba
:105920008000eb0040042000d26102000000000073
:105930008eebb700e14f400019013200200020003b
:10594000805c8800c0032000c05c88009a2bef00b8
:10595000b46bef00920ba900924ba90040380200f3
:10596000000000000000e0000d0132008ecbbf00ff
:105970005462020000000000b1122000810f5000ac
:1059800007013600915c80004408de000080ea00d8
:105990006100600000004000000040000000400086
:1059a000000040000140a10080807000915c8800f0
:1059b0008ecbbf00e2c0b3000440bc00209a2000a0
:1059c00000004100a2002000f10f2000840202002c
:1059d000000000008000eb0010c0b300dbfe0700f9
:1059e0008060020000000000a05c8800b15c8800bc
:1059f00030002000d40037008ecbbf00ca63020005
:105a000000000000910f2000810f5000240036009c
:105a1000926ba800c0fd0700e24f5000e0003a0082
:105a200040002000805c88008ecbbf0054620200e2
:105a30000000000011102000810f5000d800360037
:105a40008ecbbf00e2c0b3000440bc00209a20000f
:105a500000004100a20020008180e90084020200d1
:105a6000000000008000eb0030c0b300b7fe07006c
:105a70008060020000000000a05c8800b15c88002b
:105a800050002000b00037008ecbbf00ca63020078
:105a900000000000910f2000810f50000c003e001c
:105aa0008060020000000000a25c8000b35c800007
:105ab000020050008380580072842e0013002000e2
:105ac000820f5000838f5800b50036009d003700cc
:105ad00091fd0700e54f500003003200e64f5000f3
:105ae000af003a00970037008ecbbf00b6610200ce
:105af000000000008eebef0080600200000000005c
:105b0000a05c8800b15c880060002000805c880098
:105b1000922ba800920ba800a35d80000308a300ad
:105b20000a003200005d8000115d80006aeab70063
:105b30004801de00020078006beab700010078003f
:105b40006ceab7004808de006deab7000328a3003e
:105b50000a003200405d8000515d80006eeab700af
:105b60004801de00020078006feab700010078000b
:105b700070eab7004808de0071eab7000318a30016
:105b80000a003200205d8000315d800072eab700bb
:105b90004801de000200780073eab70001007800d7
:105ba00074eab7004808de0075eab7000338a300be
:105bb0000a003200605d8000715d800076eab70007
:105bc0004801de000200780077eab70001007800a3
:105bd00078eab7004808de0079eab7007a6aef0091
:105be0007b6aef007c6aef007d6aef000348a30048
:105bf0006b003200805d8000915d80007aeab70022
:105c00004801de00020078007beab700010078005e
:105c10007ceab7004808de007deab7000000060015
:105c20008060020000000000a45c8000b55c800081
:105c3000040050008580580032422f00820f50002f
:105c4000e08f580056003600c25c8000d35c8000b4
:105c5000e10f5100e08f59000b00360040422f0049
:105c6000010020000400400085804800a05c8800fe
:105c7000b15c880061015100e0815900c25c88007c
:105c8000d35c880000000600320420008000eb0096
:105c900040042000d2610200000000008eebb7003b
:105ca000e14f40003e00320070002000805c880020
:105cb0008ecbbf00546202000000000011102000d3
:105cc000810f5000360036001100200030c0b300b4
:105cd0001efe0700924ba900806002000000000039
:105ce000a05c8800b15c8800902bec0000000600ee
:105cf0008ecbbf00ca63020000000000910f20009d
:105d0000810f500012003e00806002000000000081
:105d1000a25c8000b35c80000200500083805800c9
:105d200072842e0013002000820f5000838f5800d1
:105d30001b003600900bec00805c8800ec0f5000dc
:105d40001700360020002000805c8800000006005c
:105d5000f1fc0700e54f500003003200e64f500011
:105d60000f003a000c0037008ecbbf00b661020076
:105d7000000000008eebef008060020000000000d9
:105d8000a05c8800b15c880060002000805c880016
:105d9000922ba8000000060020002000805c8800f4
:105da000000006000000eb00140cab0002003a00fb
:105db000140ca800100020000000060080ccbf00da
:105dc000e14f400003003200b66102000000000015
:105dd00080ecef007000200010648800140ca90013
:105de00014ccbf000000d10061006000000006007c
:105df000889fbe000004780081447800c1c1200063
:105e00001e400200000000000000e000040032001c
:105e1000142ca800700020001064880006003700d1
:105e2000586188004061880010648800090078008b
:105e300026ecb700142ca9004f04be000000060099
:105e4000889fbe008a9fbe008c1f78008005780066
:105e500000057800bb4478000904e0000c00320023
:105e6000e0c2b30080cf5400090032000040e800d7
:105e700080cf5400060032006340500080cf5400b1
:105e8000030032007240400080cf5400f1ff3a001e
:105e90000ac455000844e900084078007e62020008
:105ea000000000008880fb000a007800a462020065
:105eb00000000000000045000005e8000904e000c3
:105ec00009003200f0c2b30080cf54000600320057
