:020000040000fa
:080000000002040000000000f2
:020000040000fa
:10040000ef5121000e7f22000e0188000000000045
:100410000c000700c0262500010020001100070085
:10042000000020000000e000020032000000020096
:100430000000000090730200000000000040da009d
:100440000000fe004440a900a04720000000e0009a
:100450000300320000002000a00188004440a800f2
:100460000000060091018800800078000000eb0089
:1004700015003700e280400032a0b4009101ba00bc
:10048000e280400032a0b4009102ba00e280400055
:1004900032a0b4000002eb00472bde00f507b200eb
:1004a000602ce10004003a000059eb008301e900f0
:1004b000fdff3e00040037006128e100010032002a
:1004c0000082eb00040007001101ba000200e00006
:1004d000e8ff3a00000006003159ba008301e90044
:1004e0000c0032002159ba008301e90008003200f3
:1004f0000400e00003003a00e280400032a0b400b3
:10050000f5ff370011d9ba008301e900faff3a007c
:100510008100e800e180400032a0b4000000060045
:100520000040da000000fe0003f0a200889fbe0039
:100530008a9fbe008c1f780022010700290133002a
:100540006450e1004f0032006420e10052003200ac
:1005500003826c0007003b000905d0000306d000b1
:10056000820f54000c065d000200390002003200c8
:1005700089017800030678008582550004003d005b
:100580000003fd008103fd008502ea008b85420027
:10059000840f720002003b0060001000e080180031
:1005a0006011b8000005eb007a28e1000a0039006c
:1005b00006007800c75ddd00f707b2008780750090
:1005c0002d003700828171000a017800610560000a
:1005d0008180d1000080d3008502e900f9ff3b0053
:1005e000060440008784480002003b0060041400b9
:1005f000e0841c000988a300070032008a81710092
:1006000082817100610164008904d1000884d300f3
:100610008b05e800170037000978a30013003a00a3
:100620000b00e000130034008b05e90008044400cf
:1006300089844c000a4474000978a3000d003a0034
:100640000b00e000070034008b05e90008044400bb
:1006500089844c0001003a000b0020000978a300b7
:10066000f7ff32000001eb000200370082817100c9
:100670000a017800980007000cf0a70001f0a00024
:10068000e10037006420e10002003a00838f6c0033
:10069000e10033000801be000200be00da003700ae
:1006a000889fbe008a9fbe008c1f7800c50007008f
:1006b000cc00330003866c006450e1002e00320051
:1006c0006420e100330032006150e1002f0032006d
:1006d0006120e1003100320085855500eb07b00054
:1006e0000900200008042000050037000804440029
:1006f00089844c000a0031000603430087834b00c5
:100700000001530081815b00f8ff33000203be004b
:100710000800a0000804440089844c00f6ff39005a
:10072000c639dd0083017300010032001300200090
:100730008904d1000884d3000998a3000500320081
:100740000800a7000300a0008904d1000884d3009a
:100750008b05e8008904d1000884d3000001eb0078
:100760000281d2005c00070001f0a1000cf0a7009c
:1007700001f0a000a40037006420e100a6003200d0
:100780000801be000200be00f7ff37006120e10053
:10079000a10032006000b800f3ff37000000200025
:1007a00001f82700f0ff37000001be0070000700cd
:1007b0000470a70003f0a1006509b1001600320023
:1007c0000d0035006828e10006003500f0ff2f001d
:1007d000f1ff27000300e00013003b0001002800a8
:1007e0000000050000004000818048008502e9000b
:1007f000fcff3a0008003700f88f420002003c007e
:100800008000eb00000005008100d1000080d300d3
:100810008502e800fcff3a000300e00002003b0014
:1008200060001000e080180000000600889fbe00f5
:100830008a9fbe00010578000100e0000400350039
:1008400008003c000000e0002000320005003700f6
:1008500060001000e080180002003b0001f02c0056
:100860001a0037000004be006011b8006b092000b8
:100870000982cf00020039000882cf000441b00095
:10088000694252000e00320008003b008281710074
:10089000610164008904d1000884d3008b05e8005d
:1008a0000442e800f9ff3a0005003700080444005c
:1008b00089844c008b05e9000442e900fbff3a0003
:1008c000050007000af0a70001f0a0004f05be00d8
:1008d0004f04be000000060081002000618055002a
:1008e0000b003d000b00200061fe2f000100e10025
:1008f0001d00340082817100610164008904d1000f
:100900000884d3000000e800faff3a0071002000dc
:100910006100640003007000020060000900320002
:1009200061044400e0844c000988a5000500320001
:100930008b05e8006808e10002003a008904d10054
:100940000884d300f20f20000258e10005003d00aa
:10095000c75ddd00f907b2008980750008007800e6
:10096000000006000bf827008b007800000005004f
:10097000c70ade00f107b200f50fb200080032002e
:10098000e1cf4200020032000170a0002400050007
:10099000810f7000010032000408050044000500ca
:1009a000810f700002003a00140005008502e90082
:1009b0000000400081c04800fcff3b000170a00027
:1009c000240005000004be00e9ff07000003be008c
:1009d0000405be000200be00e5ff0700844f75005d
:1009e000000006000200be006450e1000500360071
:1009f0006420e100020036000968a30001003a000b
:100a00000800be000160a0004f0678004f05be0040
:100a10004f04be0000000600f0ff2f00f1ff27008a
:100a2000f9ff3700889fbe008a9fbe008c1f7800a8
:100a3000e4ff0700ebff330003866c006450e10025
:100a4000240032006420e100270032006150e10000
:100a5000220032006120e100210032008b8542003b
:100a6000eb07b1000134b800003ab80008044200b6
:100a700089844a00013ab8000030b80088804000fc
:100a800009014a0004003300000040008180480052
:100a9000020149008b05e900c909dd0083017000ee
:100aa0000100320013002000c814de004814dd00ed
:100ab0004709de001200b200c808de00088470009a
:100ac00085ff070001f0a1000cf0a70001f0a000d5
:100ad000cdff37006120e100cfff32000801be00ea
:100ae0000200be00f7ff37006150e100fcff3a0052
:100af000c9ff37004c0107000400be0000000600db
:100b0000881f7800000478005001be004000be003d
:100b100004004000858048000601490087814900a3
:100b2000009cbe000294be000400e1000588e100c4
:100b30000690e1000798e1000200310068004400df
:100b40001008e8004f04780000000600f487470012
:100b5000889fbe008a9fbe008c9fbe008e1f7800bb
:100b60000205be000004be00d4b79f00e5b79f0099
:100b7000f6b79f0087bf9f000000eb00c0b79f0043
:100b8000b0b79f00a0b79f0090b79f0080b79f00ad
:100b90000d042000bfb097004fb097000001400047
:100ba0000000e0000f003d004f08de000000710073
:100bb000c0b79f004d00070001003d00120020005b
:100bc0005000070001003d00120020005500070002
:100bd00061000700660007000f004000c8ff070023
:100be000220037004f08de0000067100ccb79f00de
:100bf0003e00070001003d001200200041000700f8
:100c000001003d00120020004600070052000700ce
:100c10000fb297009fb297002fb39700bfb3970012
:100c2000590007000000520081805a0002015b0059
:100c300083815b0080b79f0091b79f00a2b79f00a0
:100c4000b3b79f000007eb004f0007000020e10052
:100c500001a8e10002b0e10003b8e10001003100a9
:100c60001e0020000e005600c0b79f004fb2970034
:100c70000400e00007003500100020000100200003
:100c80006011b80008047000898470000a057100c2
:100c90008b8571008d06e900beff3a000400e0007c
:100ca00003003d00320007000f00400094ff0700e2
:100cb0004fa897000000e00004003a000fb497002e
:100cc0009fb497002fb59700bfb597000800be00ee
:100cd0000a01be004f0778004f06be004f05be0058
:100ce0004f04be004f01b10000000600018040002b
:100cf00090b79f000001eb008fb097000100e0006b
:100d0000000006000200700090b79f0001804000c4
:100d100080b79f000001eb00ffa897000100e000f2
:100d2000000006000200700080b79f0001804000b4
:100d30006faa9700cf20de0001007000f0af9f0087
:100d4000040242000800be000a01be004f18de0087
:100d50000002720000000600e4af9f000804440097
:100d600089844c000a054d008b854d00000006006b
:100d70003fb29700cfb297005fb39700efb39700f1
:100d800000fe2f00000006003fb09700cfb0970094
:100d90005fb19700efb1970000000600881f780050
:100da00018002000881f780068ff07008f87e9007f
:100db0004f04780000000600801feb0063ff07006f
:100dc0008f87e90000000600889fbe008a9fbe0052
:100dd0008c1f78000205be000004be00e00f50002a
:100de000e08f5800e00f5900e08f59000c003d00e3
:100df0006000b8006011b8000804500089845800f1
:100e00000a0559008b8559001c0020001f000700af
:100e100008003d00180007000006eb000500370041
:100e20000006eb001900070002003d000f0007005c
:100e30001c0020000800be000a01be00d7ff07000a
:100e40000203be000002be000c00e0000100320000
:100e5000060007000400be000601be004f06780031
:100e60004f05be004f04be00000006006000b80041
:100e70006011b8000000370004025000858258005d
:100e8000060359008783590000000600e00f520056
:100e9000e08f5a00e00f5b00e08f5b00000006006f
:100ea000889fbe008a9fbe008c1f78000205be008e
:100eb0000004be00e00f5000e08f5800e00f590022
:100ec000e08f59000a003d006000b8006011b800d2
:100ed00008045000898458000a0559008b85590080
:100ee0001c0020001800070007003d000500370027
:100ef0000006eb001400070003003d006000b8008e
:100f00006011b800150007000800be000a01be000d
:100f1000a9ff07000203be000002be000c00e000b3
:100f2000030032006000b8006011b8000b00070039
:100f30000400be000601be004f0678004f05be004b
:100f40004f04be0000000600e00f5200e08f5a0080
:100f5000e00f5b00e08f5b00000006000402500021
:100f60008582580006035900878359000000060057
:100f7000889fbe008a9fbe008c1f78000205be00bd
:100f80000004be000006eb00e00f5000e08f5800a8
:100f9000e00f5900e08f590007003d006000b800e5
:100fa0006011b80008045000898458000a055900ef
:100fb0008b8559001c002000e00f5200e08f5a0082
:100fc000e00f5b00e08f5b0002003d000f000700b8
:100fd0000c00a2000800be000a01be0022000700ab
:100fe0000203be000002be000c00e000010032005f
:100ff000060007000400be000601be004f06780090
:101000004f05be004f04be00000006006000b8009f
:101010006011b80004025000858258000603590090
:1010200087835900000006006022b80006022000f5
:101030000000d0008180d2000482d2008582d200dc
:101040000000a0000202520083825a000300310017
:101050000202420083824a000000a1000603e90068
:10106000f3ff3a0000000600889fbe008a9fbe0082
:101070008c9fbe000404b8000506b8008904460031
:1010800060854e000606b8000a054600e0854e0061
:101090000706b8008b054600040eb8008904460018
:1010a0000a854e00e0854d00050eb8000a05460091
:1010b0008b854e00060eb8008b0546000416b8005e
:1010c0000a0546008b854e000516b8008b054600c4
:1010d000041eb8008b0546000800be000a01be00d1
:1010e0004f06be004f05be004f04be0000000600c4
:1010f0000001780000c2b300010037000201e800df
:101100009240780080cf5000fcff3200e9cf5000c1
:10111000faff3200d0c2b30080cf500003003a0083
:101120000201e80014c0b300050037000042eb00e4
:10113000b0c2b30080cf500001003a000201e800c5
:101140008000eb0005fd2f00040037006a08b9009d
:1011500000804100850040000201e8009201fb0090
:1011600005804100e90f5000f8ff36000404e0005c
:10117000010032008100ea00010078000000060052
:101180000002780082427800034878008100fb006a
:10119000a2002000110009008200d8008000fd009c
:1011a0000043b00070fa9f00014078000104e000a5
:1011b000030032000043b00060fa9f000000060008
:1011c00065fa9f0000000600800078006300600060
:1011d0000f003a0042062000811f7800110009002c
:1011e0008280d80001007800cf0078000000e00085
:1011f00008003a00c012200001004000021920003f
:10120000110009000280d8000100e0000100320056
:10121000d0160500e0160500889fbe008a1f7800e2
:101220008c9fbe001004be00c203200003002000fb
:101230000800be00f409070050a48800c203200083
:10124000030020000800be000c0907000004be00d7
:10125000c203200003002000eb09070060a48800ff
:10126000c2032000030020000800be00030907009d
:101270000006be008201200003002000e2090700f2
:1012800070a4880082012000030020000c00be0032
:10129000fa08070080a48800640040007200200063
:1012a000110009000200d80001017800b2a48800f2
:1012b00060042000040037000000550080a488006e
:1012c000404921001000e800a0a488008aa4800002
:1012d000a0a48000bcff0700800f5500f6ff3d0072
:1012e0006200600001f02f00010466000004740039
:1012f000caa48800204921000008eb008002780081
:10130000a4502100080037000280510080a488000a
:101310001500e80090a488000880fb000000d100c0
:10132000088460000004740083a4800090a48000fe
:1013300064407800084070000081fb004810dd0028
:10134000f80fb20000047400828f5100eeff3d00e0
:101350000300e80080a48800a04821004f06be00da
:101360004f0578004f04be00000006000400fa009c
:10137000c2a58000c10320000191b9003002110014
:10138000a0821900e4bf9f00f5bf9f006480570052
:10139000a1ff07000080fa0000000600889fbe0041
:1013a0008a9fbe0080047800600090006300b9004e
:1013b000e244210000014100cb492100924d780018
:1013c000d04921009240900001487800e049210076
:1013d00022419000024878000ac2b300f04921007f
:1013e0000a487800490090006300b9004246210095
:1013f00000014100004a210012487800104a2100f3
:101400009240900001487800204a2100224190003b
:1014100002487800304a21000a487800b90090005c
:101420008a4178000a417800604a210054ff070091
:10143000a9009000a3c3b30002c3b300904a2100e7
:101440004fff070099009000a3c3b30002c3b3008d
:10145000c04a21004aff0700990078008a417800bd
:1014600002c3b300f04a210045ff0700d9009000f5
:1014700048062000110009008800d8008000fd0007
:10148000f3c040008041eb000a417800204b21006e
:101490003bff070059009000110009000800d80028
:1014a000a3c0b30002c3b300404b210034ff0700c8
:1014b0000b0078004f05be004f04be000000060080
:1014c000aaff0700b5ff370000027800810178000d
:1014d00001007800110009000280d8008400e800b3
:1014e0000000e0000200320001027800f9ff37003e
:1014f0008048eb00110009008281d8008000fd00c7
:1015000081017800e94f500001003400674040003d
:1015100005c3b300055240000100e000f5ff3a00aa
:101520000400780000000600881f7800000478009e
:101530000100e0000200350080017800040037005f
:1015400080017800d0c2b300805978008100ea00a1
:1015500003007800dcff0700080078004f047800e3
:10156000000006008001eb000200370061f0790006
:101570008301e800828f5100fcff3a000000060062
:101580008001eb0002003700817178008301e800e0
:10159000828f5100fcff3a000000060080017800b5
:1015a000d01620000018b800421ade0004024000e5
:1015b000e082480042062000110009008281d80024
:1015c0000001780002025200e0825a000219200055
:1015d000110009008281d8008000fd000100420056
:1015e000e0804a0000000600889fbe0000037800eb
:1015f0000102e80010bf200000a2b90010442f0033
:101600000400400044062000811f780011000900fa
:101610000480d800cf007800000141006114b800b8
:10162000e18f50001400360002192000110009005b
:101630000283d800010078000000e00007003200bb
:101640006300630008003a00110009000483d80019
:101650008000fd000000e0000300320010002000c8
:1016600001002000020037002000200001002000bf
:101670000004540081845c000600e900c7ff0700f5
:1016800008004000898048004f04be0000000600aa
:10169000889fbe008a9fbe008c9fbe000006780017
:1016a000d0069000a0fb2f00008046000081eb00d8
:1016b0008081eb0021032000810f500033003e00a9
:1016c000120020008000eb00207b2000c6ff0700f6
:1016d0000005be00c0762000008046003c0190005e
:1016e000cc009000c0ff07000004be000a055000b7
:1016f0008b85580072002000030020000a00be0005
:10170000c108070064004000e0804800720020002b
:1017100003002000bc08070060069800b076200097
:10172000008046009dff0700000454000804e90003
:101730007806980082012000030020000a00be0005
:10174000620907002c019000cf91de0000004100eb
:1017500081804900c2032000030020005b090700cc
:101760001c019000cf91de00000041008180490003
:10177000c203200003002000540907001c01780068
:10178000cf91de0000014100818149000200be00ce
:101790004f06be004f05be004f04be00000006000d
:1017a0008001780000017800010037000201e800a4
:1017b0001204e000fdff3a00314078000059780043
:1017c0000004e000fcff3a0003007800000006007f
:1017d00010417800814f5100040032000000e80001
:1017e0000204e000faff3a000000eb0000000600ef
:1017f00010417800b141510003003a000000e800b8
:101800000204e000faff3a000300fb0000000600bb
:10181000800178000001780031407800005978009c
:101820000004e000fcff3a0003007800000006001e
:10183000800078003004e000feff3a000100500014
:101840000000e90000000600000378008002780034
:10185000020278008001eb00080037000402e90072
:1018600063c07800805a78008301e8000004e0003b
:1018700002003a008000eb0006003700828f510022
:10188000f6ff3a00fbff37000040eb0080f07a00e3
:101890008100e800848f5000fbff3a0006007800ca
:1018a00000000600889fbe000004be000000e000ab
:1018b00003003a00e8a880000800e00013003200ae
:1018c0000800be00fe050700000444001804e00004
:1018d00004003a000000eb00e0a888000004780053
:1018e0000a0037000800be00e105070000004400c0
:1018f000e0a888001004e000020032000058eb006d
:10190000010037000000eb00e0a888000800780024
:101910004f04be00000006000000fa004fb9970017
:10192000e8815700020007000080fa00000006006e
:101930000c00fa00881f780000027800820278000c
:10194000030178008001eb00e18f50000e003600ab
:101950000100e900e0bf9f000004eb00a8bf9f006a
:1019600094bf9f00b4bf9f00200c2000c0bf9f0009
:10197000850078006e8057007500070080017800b0
:101980001fb8970008487800030078004f047800db
:101990000080fa00000006000c00fa00889fbe00dc
:1019a00000047800cfb09700f0ff2700d0bf9f0061
:1019b0008004eb0099bf9f0088bf9f00a8bf9f00d5
:1019c000200c2000b0bf9f00788157007080570026
:1019d0005f0007000fb89700094878000fb897001c
:1019e00008045000080078004f04be000080fa0090
:1019f00000000600889fbe008a1f780080407800a3
:101a00000004e00021003d008040ea00d0c6b300a1
:101a100080cf5000090034008104fb004206200002
:101a2000110009008204d80000017800010078004c
:101a30004311dd00ea2421001f0037000100fb00f4
:101a4000e324210039003700a20020001100090022
:101a50000200d80000017800010078004311dd0089
:101a6000030141004300dd00030040003002be00de
:101a70002003be0042209000d2209000f22190006e
:101a800062219000ef0707002e003700d0c6b30098
:101a900080cf5000230034008104fb004206200068
:101aa000110009008204d8000001780001007800cc
:101ab0004311dd00ea2f21000a014100a8002000a7
:101ac000110009000800d8004300dd000a004000b2
:101ad00040229000d022900060239000f0239000dc
:101ae0000288900092889000b2899000228990002c
:101af000d4070700801f7800010278001100090058
:101b00008804d8000102fd004f0078000402fb00a9
:101b10004322dd000a0242005403be004402be001c
:101b2000d8ff37000100fb00e32f2100eacf50006f
:101b3000c5ff3c004300dd00030040005001be0033
:101b40004000be004f0578004f04be0000000600b4
:101b50008f03b000889fbe008a9fbe008c9fbe008e
:101b60008e1f7800e0b79f00f1b79f0082bf9f00f3
:101b70000000eb00a0b79f00e60437008001eb00f7
:101b800050c2b30080cf5000090032000100fb00ba
:101b9000efb09700ec040700e10f4000dd043200d5
:101ba000afb097008100e800a1b79f00d9043700cb
:101bb0007fb1970092407800d0c2b30080cf500030
:101bc0000c00320007003c006d40500080cf5000f8
:101bd0000d0032006b40400080cf500019003a00e9
:101be0000e00370000c3b30080cf500015003a004c
:101bf0000f0037000330a0007fb297000402e80016
:101c0000f4b79f00eaff37000300a000ffb297007f
:101c10008502e800f5b79f00e5ff37000310a0003c
:101c20007fb697000c06e800fcb79f00e0ff370086
:101c30000320a0007fb097000000e800f0b79f00ed
:101c4000dbff37000318a300010032000300a100ee
:101c50000338a300010032000320a1000100fb00b3
:101c600002fd2f0002004000e90f500010003e006e
:101c70008000eb00c1b79f00020278004fb19700cf
:101c80006a10b900ffb297001501fb000001410086
:101c900004014100c2b79f005500fb00f5b79f004b
:101ca00004004000e90f50000d003e00f3ff370034
:101cb0000006eb00ccb79f00a0c2b30080cf50005d
:101cc00007003a000fb89700c000780080bf9f005f
:101cd000c1b79f007fb197000201e800f2b79f00f3
:101ce000e0c2b3007fb29700944f100021003a0089
:101cf000830678000de0a0008400e80064405000f6
:101d0000914f100004003200f1b79f008002eb00f9
:101d1000b5b79f00100037000fbe97004c00780049
:101d20008cbf9f00b0b79f00ffb097008180e80094
:101d3000f1b79f00130037003fb297006a20b90047
:101d40000000410003004000b0b79f00ffb29700c1
:101d50008502e800f5b79f007fb697001c01fb00e5
:101d600003fd2f0003004100e90f5000f2ff360091
:101d700004003700830678000dc0a0000000eb00cf
:101d8000b0b79f007fb19700b2407800f2b79f00d4
:101d9000c17f9f00c0c6b30080cf50002700320033
:101da00014003c006840500080cf50009d0032007d
:101db00009003c006c40500080cf500029003200e8
:101dc0006b40400080cf5000720032000104e00000
:101dd000560432008e00370060c6b30080cf50003a
:101de0001c0032006340400080cf500088003a0061
:101df0008c00370030c7b30080cf50001c00320089
:101e000007003c006440500080cf500013003200b7
:101e10000040e80080cf50007d003a0011003700fc
:101e200050c7b30080cf50007d00320063404000b7
:101e300080cf500076003a000b00370000002800e9
:101e40000d48a30001003a000001200080867600c2
:101e5000ccff37000da0a000720037000d60a0007d
:101e6000700037000d50a0000d70a0006d0037000d
:101e70008fb997004300780083bf9f00000478006b
:101e80000000e00001003a00a84b21008004eb00b4
:101e9000010037008104e8008900780008804400d0
:101ea0001004e000fbff3a003fb297000400e0009e
:101eb00003003200890f52000100310084047800d1
:101ec0000007eb00cfb29700898f52000100360067
:101ed000098752004368de00e106600019003a00fd
:101ee0000d06780009003700efb0970000022000cf
:101ef00015040700e10f4000030032002fb09700e7
:101f00000000e800a0b79f000c06e8008e0f560006
:101f1000f5ff3a000087eb000a00370088007800e0
:101f20003100fb0001047800efb0970006040700c1
:101f3000e10f400003003200afb097008100e800dd
:101f4000a1b79f000900e90080047800e10f40007c
:101f5000f2ff3a000006eb000d00e0000a003a0034
:101f6000ec033700efb0970000022000f6030700f3
:101f7000e10f4000030032002fb197000201e8009a
:101f8000a2b79f000c06e8008e0f5600f5ff3a003e
:101f9000e00337008fb997004300780083bf9f00ac
:101fa000cf80de0001017800820178000205be00ca
:101fb0000004be000203be000002be004822de0094
:101fc000482edd0004027600c47f9f000d48a30068
:101fd0000a0032000404e00008003200e14f420031
:101fe00006003200d1fb2f00018047000448780032
:101ff000184098002900200002003700d07f9f0081
:1020000019002000d2fb2f0002844700a6ff3700f2
:10201000c3fb2f000384470019002000a2ff3700f4
:102020000d0cb30000702000008266002702320011
:102030000dc8a3000200320064002000b4b79f0066
:102040000d48a300050032000fba97004401be00fe
:102050004400be0084bf9f00040037008fba970081
:102060004500be0085bf9f00dd050700e0af9f0073
:10207000f1af9f0082b79f0093b79f006022b80026
:102080006033b8006fa89700ffa897000fb19700c2
:102090009fb19700150507000000e0000a003d0011
:1020a0006fa89700ffa897000fb197009fb1970006
:1020b00003f0a200e0af9f00f1af9f0082b79f0046
:1020c00093b79f003d00b3000000eb0080a79f0086
:1020d0006022b8006033b8006fa89700ffa897008f
:1020e0000fb197009fb19700730507000000e00053
:1020f000340032006fa89700ffa897000fb1970037
:102100009fb19700c606070003fc2f00038147001c
:102110003a0607000fa097000000e9006300b9002d
:10212000a2002000110009000200d8008000fd007c
:1021300081a79f000100e00002003d000100e900ce
:1021400080a79f000fa497000840ea0029fe07001f
:102150006faa9700ffaa97000fb397009fb397004d
:1021600038060700a0af9f00b1af9f00c2af9f002d
:10217000d3af9f006022b8000600200007ff2300b5
:10218000da0407000000e00002003d000800e9005a
:102190000b0037006022b800060020004702240030
:1021a0002fa89700bfa897004fa99700dfa9970015
:1021b000d30407000000e000020035000800e8003a
:1021c00080a79f003fb29700f80f520057003c00d5
:1021d000d0c6b300804f5200290036000485fb00b2
:1021e00042062000110009000285d8000001780095
:1021f000010478004311dd00eb2421000b014100b4
:102200006022b8000600200007fe2300028890002c
:1022100092889000b28990002289900009060700f8
:10222000a9002000809fbe00110009000984d80089
:10223000000478004f00be004344dd000b0444005e
:1022400048229000d822900068239000f823900044
:10225000fc050700801f78000102780011000900ca
:102260000985d8000102fd004f0078004322dd00ff
:102270000b0242005403be004402be001f003700a0
:102280000480fb00e9242100ea4f520014003600cc
:10229000a2002000110009000280d800000178008f
:1022a000010478004311dd00090141006022b800fb
:1022b0000600200007fe230042209000d22090005c
:1022c000f221900062219000de0507004344dd000a
:1022d000090444003802be002803be00070037008e
:1022e0004300dd00090040006022b8000600200025
:1022f00007fe23005001be004000be00d1050700cc
:102300000002be000203be006fa89700ffa897005e
:102310000fb197009fb19700f7030700e0af9f0050
:10232000f1af9f0082b79f0093b79f000fa4970063
:10233000e90f540015003c006022b8006033b8007b
:102340006fa89700ffa897000fb197009fb1970063
:10235000d90407000000e000320032006fa89700a7
:10236000ffa897000fb197009fb197003b050700aa
:10237000e00f5000e08f5800e00f5900e08f590047
:1023800028003a00e10f5400260034000400200029
:1023900005002e00b6e02200170124002fa89700a8
:1023a000bfa897004fa99700dfa997004f04070027
:1023b0000000e00002003d007300540001003700ff
:1023c0007200540080a79f000fc0970089fd07008e
:1023d000a0af9f00b1af9f00c2af9f00d3af9f00df
:1023e0000002be000203be006fa89700ffa897007e
:1023f0000fb197009fb1970046040700170507002b
:102400000205be000004be006000b8006011b80004
:10241000a0a79f00b1a79f00c2a79f00d3a79f00be
:102420002e0037006fa89700ffa897000fb1970004
:102430009fb19700090507000205be000004be0019
:10244000e00f5000e08f5800e00f5900e08f590076
:10245000020035003205070013003700100020008d
:10246000010020006011b800080060008980600051
:102470000a0161008b8161008b03d1000a83d300c4
:102480008982d3000882d30000007200818072002c
:102490000201730083817300210507000002be0062
:1024a0000203be00940307000002be000203be0048
:1024b0006fa89700ffa897000fb197009fb19700f2
:1024c000d5050700a0a79f00b1a79f00c2a79f0046
:1024d000d3a79f000000eb0080a79f0014c0b300ab
:1024e000e53a21000b0037000400fb004300dd004b
:1024f000050040005001be004000be000040e10069
:1025000001c8e10002d0e10003d8e1000300390076
:102510000442e800f44f5200f3ff3a00c47f9f00ea
:102520000400fb00bfb09700008040008fa0970020
:10253000010040004fb1970000075100bfb1970064
:102540000300e000010032000e07e900638066002e
:10255000010032000e07e9000d28a300260032001a
:10256000e18066000d18a3000c003200d0022000ac
:102570000100e00001003a000080e900efb09700a0
:1025800071020700e10f4000180032002fb29700df
:102590000402e800a4b79f00140037000100e00027
:1025a00012003200efb09700000220006602070020
:1025b000e10f40000d003200afb297008502e80045
:1025c000a5b79f0009003700efb097000003200077
:1025d0005d020700e10f4000030032002fb69700b4
:1025e0000c06e800acb79f000e07e9000e00e00003
:1025f000f5ff3c003d0037000d38a3000a00320013
:102600000b003700efb09700000220004e020700d9
:10261000e10f4000030032002fb097000000e800f7
:10262000a0b79f000e07e9000e00e000f5ff3c0098
:10263000e18066000d18a3000c003200d0022000db
:102640000100e00001003a000080e900efb09700cf
:102650003d020700e10f400024003200afb09700b8
:102660008100e800a1b79f00200037000100e000d2
:102670001e003200efb09700000220003202070077
:10268000e10f4000190032002fb197000201e8006d
:10269000a2b79f00150037000000fb004300dd00db
:1026a000e13a2100010040003002be002003be00dc
:1026b0000800be000a01be00b8f90700a40020000f
:1026c000050020006033b800bbf907000003b0002c
:1026d000efb097001c020700e10f4000030032003a
:1026e000afb197008301e800a3b79f004f7a97002e
:1026f0000440e900c07f9f00e14f4000e6ff3a0040
:102700000b003700efb09700000320000e02070017
:10271000e10f400003003200afb297008502e800ed
:10272000a5b79f000fa097000000e90080a79f00b9
:102730000fa097000000e000f2ff3c003fb69700ba
:1027400020c1b300f20f560001003c006fe097007b
:10275000c07f9f00cf7897000100fb003fb197003a
:1027600000005100e0a79f000104e00008003200d3
:10277000efb09700e0022000f3010700e10f4000f6
:1027800003003200afb197008301e800a3b79f00b8
:102790004f78970097fc07000002be000203be00be
:1027a0002fa09700bfa097004fa19700dfa197002f
:1027b000a4040700290407001e0037000000fb00e6
:1027c0004300dd00ec3a21000c0040003002be0066
:1027d0002003be000800be000a01be006ff907001a
:1027e000a4002000050020006033b80072f9070043
:1027f0000003b000efb09700d3010700e10f4000e5
:10280000030032002fb297000402e800a4b79f0033
:10281000cf7a97000500fb004300dd000c0040006c
:102820003002be002003be000800be000a01be0048
:1028300061f907000205be000004be004f7e97004c
:102840000c40e900c07f9f00e14f4000dbff3a00f1
:102850000006eb0009003700efb0970000032000ee
:10286000b9010700e10f4000030032002fb09700cc
:102870000000e800a0b79f000c06e800efa097005a
:10288000810f5600f4ff3a000d38a300a101320079
:102890000e00e0009f0134000006eb00efb097004f
:1028a00000022000a8010700e10f400003003200f1
:1028b0002fb197000201e800a2b79f000c06e800c4
:1028c0008e0f560093013200f4ff37000d007800a0
:1028d000000cb20028003a000d00e00005003d00a9
:1028e0008fb997004305be004304be0083bf9f001d
:1028f000140037000d48a3000b0032000fba9700f8
:102900004400be0084bf9f004f89de00cf91de00ef
:102910000002be0002037800820378000605be00b4
:102920000404be00070037008fba97004500780006
:1029300085bf9f0000047800cfc4de000905780041
:102940008a057800e00f5400e08f5c00e00f5d0026
:10295000e08f5d0020003d003d00b3006000b80046
:102960006011b80008045000898458000a05590015
:102970008b855900180037000d00e00005003d0070
:102980000fbe97004c05be004c04be008cbf9f00dc
:10299000110037000d48a300080032008fba9700dd
:1029a0004500be0085bf9f000401780084017800c7
:1029b0000205be000004be00070037000fbe9700ee
:1029c0004c0078008cbf9f000004780009002000b4
:1029d0000a0020000b0020003fb097000000e0003c
:1029e00007003a00e00f5400e08f5c00e00f5d004c
:1029f000e08f5d0002003a0011002000b1b79f0097
:102a00000d0778000e0cb20000042000800f570064
:102a10002f00320003003c000e00e00007003200ef
:102a20003f00370000082000800f570014003200dc
:102a3000000c2000800f570039003a0014c0b3008a
:102a4000e53a21000b0037000400fb004300dd00e5
:102a5000050040005001be004000be000040e10003
:102a600001c8e10002d0e10003d8e1002b003900e9
:102a70000442e800f44f5200f3ff3a002700370009
:102a800000012000010020006011b80014c0b30054
:102a90000040e10001c8e10002d0e10003d8e100fc
:102aa0001e003900450020000000d0008180d200c7
:102ab0000281d2008381d2008502e900faff3a0048
:102ac0000442e800f04f5200f1ff3a0013003700d3
:102ad00080002000010020006011b80014c0b30085
:102ae0000040e10001c8e10002d0e10003d8e100ac
:102af0000a0039003c0020000000d0008180d20094
:102b00000281d2008381d2000c06e900faff3a006c
:102b10000442e800f54f5200f1ff3a00c47f9f00e5
:102b2000cf7897000100fb003fb19700820f500063
:102b300002003d00c27f9f0004003700bfb1970034
:102b4000808f510001003d00b0b79f004fb2970049
:102b50000400e000040032006380660002003200de
:102b60000402e900c4b79f000de8a3000b00320087
:102b7000cfb297003fb697008c8f520003003c0005
:102b80000000eb00c0b79f0004003700cfb09700f3
:102b90003fb1970082805000c1b79f00cf79970066
:102ba0000300fb000002eb0094a79f00cfb2970048
:102bb000808f5200020034000080520090a79f00d6
:102bc0000d28a30037003200e18066000d18a30035
:102bd0000c003200d00220000100e00001003a00a9
:102be0000080e900efb09700d7000700e10f400038
:102bf0000e0032002fb697000c06e800acb79f001d
:102c00000a0037000100e00008003200efb0970032
:102c100000022000cc000700e10f4000030032005a
:102c20002fb097000000e800a0b79f009fa097007a
:102c30000100e0000f0032000006eb00efb097004b
:102c400000032000c0000700e10f40000300320035
:102c50002fb197000201e800a2b79f000c06e80020
:102c60009fa19700830f5600f4ff3a000002eb008b
:102c700094a79f00bfb29700c328dd00603a2100ef
:102c80008080400091af9f004228dd00640050002a
:102c900080af9f006328b900f0a79f006306500033
:102ca000820037001fa697000c00e00011003200e0
:102cb000688066000f003a0000067800efb09700c9
:102cc00000022000a0000700e10f400003003200d6
:102cd0002fb097000000e800a0b79f000c06e800a6
:102ce0009fa09700810f5600f4ff3a000001eb000f
:102cf00092a79f00e18066000d18a3000c0032002f
:102d0000d00220000100e00001003a000080e9004c
:102d1000efb097008c000700e10f4000d5ff3200b4
:102d2000afb197008301e800a3b79f00d1ff370040
:102d30000100e000cfff3200efb09700000220005a
:102d400081000700e10f4000caff32002fb2970058
:102d50000402e800a4b79f00c6ff3700000420006b
:102d6000800f57003000320003003c000e00e000ee
:102d7000070032003d00370000082000800f570098
:102d800011003200000c2000800f570037003a007d
:102d90001fa897003002be002003be000800be003e
:102da0000a01be00fdf70700a40020000500200076
:102db0006033b80000f8070004c3b30004424000c9
:102dc000c47f9f0029003700154c2100d5b79f0014
:102dd0000d58a30002003a00204d2100d0b79f00fb
:102de00014002000050020006033b8008fa8970071
:102df0008100e900050033000402d0008582d20082
:102e00000683d2008783d200f9ff37000800be0096
:102e10000a01be00e1f707006f0060005fb1970094
:102e200062407800100037001400200005002000e8
:102e30006033b8008c0178008301e900050033009d
:102e40000402d0008582d2000683d2008783d2009c
:102e5000f9ff37000800be000a01be00cff70700e7
:102e6000674060000043b000c07f9f004f7a97002a
:102e70000400fb00efb0970033000700e10f4000b3
:102e800003003200afb297008502e800a5b79f00ab
:102e90001fa897006800500090af9f008fa8970070
:102ea000e480500081af9f0063065600d0ff2f00e2
:102eb0003fb197000090b900ffa19700008041004a
:102ec00063005000800f5600a4ff3a000d38a300a5
:102ed000100032001fa297000400e0000d00340033
:102ee0000006eb00efb0970000022000160007007c
:102ef000e10f400003003200afb297008502e80006
:102f0000a5b79f000c06e8001fa09700800f560091
:102f1000f4ff3a007fb19700b2407800f2b79f000b
:102f2000c17f9f000104e00014fb3a002fb097001e
:102f30004f0778004f06be004f05be004f04be008d
:102f40008f03b10000000600889fbe0000017800da
:102f500001047800b10090000118a3004000320085
:102f60000198a30003003a00180090000000e00060
:102f70003b003a000190a0003104980082047800e0
:102f8000f90fb200180090000000e00002003a00c3
:102f900028009000000c7800ea8f540006003a00e8
:102fa000380090000078a30003003a008800780001
:102fb000d0002000e4ff0700180290006121b90052
:102fc00058009000e8009000800f5100818f590058
:102fd0000b0032000400e80010049800180078008c
:102fe00009587800000c780011c0b300a0512100ee
:102ff00001487800ea8f54000600320019003700bb
:1030000088007800094078004100070080047800bb
:1030100014003700380090000088a300110032002f
:1030200018019000a8009000480090007b00070065
:1030300098009000810f500004003200380090008a
:103040000003b300300498008084eb000000eb0024
:103050001004980028009000000c78000100370050
:103060008084eb00090078004f04be0000000600d9
:10307000889fbe008a9fbe00800578000105780009
:103080006044b8000200370061044400e0844c0052
:103090006b407c000004e000050032008000fb0073
:1030a0000a007800caf907000000e000f6ff3200cd
:1030b0000800be004f05be004f04be000000060021
:1030c000889fbe008a9fbe008005780001057800b9
:1030d0006044b8000200370061044400e0844c0002
:1030e0006b407c000004e000050032008000fb0023
:1030f0000a007800b6f907000000e000f6ff3a0089
:103100000800be004f05be004f04be0000000600d0
:103110000200fa00889fbe00a0ff9f000104780013
:10312000b1009000810478000904b200020032006e
:103130000000fb00360037000118a30005003a002c
:103140000103b30031049800190498000080eb00db
:103150002f003700580090000000e00006003a0001
:103160004800900012002000e68057002b00070066
:103170001904980024003700280090000000e000a7
:1031800008003a006051210020049800000c7800eb
:103190002000200050049800100498000130a00086
:1031a0003104980018019000a80090004800900099
:1031b0001a00070028009000000c78000080eb0047
:1031c0001004980018007800aff8970001587800b4
:1031d000000c78002ff89700ea4f50000a003a00e0
:1031e000380090000088a30007003200180190000a
:1031f000a8009000480090000800070019049800fb
:10320000a8009000010c7800aff897000100fb00c7
:103210004f04be000080fa00000006000a00fa0019
:1032200080017800e20f500028003e00609280008c
:10323000e10f500008003200802320000000e00071
:10324000050032000423200025232000462320000f
:10325000800178000400370004222000252220008d
:103260004622200083222000144090000004e00049
:10327000040035008009eb00144090000074a000a9
:1032800010429800154090000028a30003003a0067
:10329000154090000024a000904298008001eb00af
:1032a00007003700154090000008a300fdff320022
:1032b00063c078000000fb00000b78008301e80089
:1032c000828f5100f7ff3a000800370030002000dd
:1032d000b0bf9f00c3bf9f00d1bf9f00e2bf9f0050
:1032e0006a80570000c0da006fb9970002007800ca
:1032f0000080fa00000006002800fa00889fbe0047
:103300008a9fbe008c9fbe000706780087866900f2
:103310000c003b00030478008704780008f0a1004b
:1033200009f0a100840f5000858f5800860f5900c6
:10333000890f5c00030033000cf0a20001003a008a
:103340000cf0a1000d0107006400e1005f003200f5
:10335000780147006408e100610032006c01470019
:10336000748557003200be001201be003a04be0050
:103370001a05be001e039000be0a9000850353008c
:1033800006003d000004fd008104fd000205fd0073
:103390008305fd008703ea00050378000df8a3000c
:1033a0000400320060041400e0841c0060051d006d
:1033b000e0851d006022b8007d0320000d38e1008b
:1033c0008006eb000b0039004433dd00f300b2004f
:1033d0008301730039003700848272000d02780087
:1033e000e10664008b85d1000a85d3008984d3006f
:1033f0000884d3008703e900f7ff3b000800400082
:10340000898048000a0149008b81490004003b0083
:1034100060001000e080180060011900e0811900d0
:103420000358a300090032008d827200848272006a
:10343000610260008301d1000281d3008180d3004a
:103440000080d3000603e8001b0037000348a300f8
:1034500017003a000600e000170034000603e900f8
:103460000d00a300000048008180480002014900cf
:10347000838149000348a3000f003a000600e000e2
:10348000090034000603e900000040008180480084
:10349000020149008381490001003a000003eb006a
:1034a0000348a300f5ff32006022b8000200370095
:1034b00084827200618266008400070003f0a1002c
:1034c0000cf0a70003f0a000c00037006401470023
:1034d0006408e10002003a000df8a300b8003a00c9
:1034e0003200be001201be00b80037008f1fd100ad
:1034f000090207008f87e9000000e00000000600d5
:10350000809feb00040207008f87e9000000e000c5
:10351000000006002800fa00889fbe008a9fbe00b7
:103520008c9fbe0003866b00940007006400e100de
:10353000440032006408e1004a0032006100e1000a
:10354000460032006108e10049003200ec06470005
:103550006000b8003d02be003d03be00f486570087
:103560006011b8003d04be003d05be007d03200093
:103570000b0037000000a0008d06e90013003200a8
:103580000402420085824a0006034b0087834b00f9
:103590000000400081804800020149008381490009
:1035a0000802520089825a000a035b008b835b0089
:1035b000f0ff3b000802420089824a000a034b00e8
:1035c0008b834b008d06e900edff3a008482720088
:1035d00086827200f707b200878272000100320013
:1035e000150020001e0490003e0b900006035400be
:1035f000e63fb0000368a300070032000000a70008
:103600000500a0008301d1000281d3008180d30096
:103610000080d3000603e8008301d1000281d300bb
:103620008180d3000080d3000002eb000482d2002e
:103630002600070003f0a1000cf0a70003f0a00093
:1036400062003700640247006408e1005c00320059
:103650003400be003401be00f6ff37006108e1000f
:10366000570032006011b8006000b800f1ff370069
:1036700003ff270002002000fbff3700839f680044
:103680000100e00002003d0060001000e080180032
:103690000300e00002003d0060011100e08119001c
:1036a00061f607004f00e00002003b0060001000e0
:1036b000e080180000000600801feb009601070064
:1036c0008f87e9000000e0000000060018002000dd
:1036d00057002000080453000d003d0006002000a4
:1036e00097fc2f000740e1001e0034008482720026
:1036f000610260008301d1000281d3008180d30088
:103700000080d3000804e800f8ff3a0047002000da
:103710006104600005047400040464000d003200bc
:1037200061004000e080480060014900e0814900fc
:1037300003b8a500070032000603e8006538e10081
:1037400004003a008301d1000281d3008180d300bc
:103750000080d300f87f20000830e100030035002e
:10376000080378006000b8006011b8004433dd0041
:10377000f300b200830173000000060068044700f4
:103780000294be000094be00fc0447008694be0074
:103790008494be0009007800a801070008007800a2
:1037a000a601070099007800814f70000b003b00d4
:1037b0000800be00810107004f00b1000300370080
:1037c000f3ff2700f2ff2f006110b9004f06be0083
:1037d0004f05be004f04be000080fa000000060046
:1037e0008103780062f407000001be006000b800a9
:1037f0000478a30013003a006220e10015003e00a7
:103800000d0039008301d1000281d3008180d300f3
:103810008301d1000281d3008180d3008301d100d4
:103820000281d3008180d3000538b000c42add00b6
:10383000f300b2008381720007f0a70003f0a0003c
:1038400000000600f3ff2700f2ff2f006110b9000f
:10385000fbff370003ff2700f7ff37001400fa00d3
:10386000889fbe008a9fbe008c9fbe000004be00e1
:103870000205be00680047000a90be000890be0026
:103880006e0107000070a7000bf0a1000bf8a30069
:1038900020003a009e0990000e099000fe00900062
:1038a0006e0090009e0290003443200084825200fb
:1038b000c6ff32000a003c00b4fc2f000428e100df
:1038c000140034008301d1000281d3008180d30031
:1038d0000080d3008502e800faff3a00bbff370002
:1038e000b40020000428e10007003c000000400074
:1038f0008180480002014900838149008502e90076
:10390000faff3a00b1ff3700030028000200200050
:10391000010037006011b8006000b800abff37004d
:10392000889fbe00830478000300e0002c0035006f
:1039300003003c0000827000040271002600320087
:1039400036432000c50020008383cf000a003900e1
:103950000541b1008283cf00070039000541b10065
:103960008183cf00040039000541b1008083cf007e
:10397000010039000541b10085c353006022b80041
:10398000120032000a003b00848272006102600073
:103990008301d1000281d3008180d3000080d30055
:1039a0000603e8008743e800f7ff3a000700370006
:1039b00000004000818048000201490083814900e5
:1039c0000603e9008743e900f9ff3a003fff0700db
:1039d00009f0a70003f0a0004f04be00000006009d
:1039e00060001000e080180060011900e0811900fb
:1039f000d3ff3b00033e2c00f7ff3700b900070060
:103a00000509780000000600811f78000100e00031
:103a100002003d0060001000e08018000300e0009c
:103a200002003d0060011100e081190031f407003f
:103a30004f00e00002003b0060001000e080180032
:103a4000000006002800fa00889fbe008a9fbe0082
:103a50008c9fbe0003866b0048ff07000028a30070
:103a600064003a000128a30067003a000008a300a0
:103a700062003a000108a30065003a001e009000b1
:103a8000be08900081064000ed3fb100f480570071
:103a9000ee019000111ab8008e099000311bb80099
:103aa0009e099000311cb800511db800f4855700e4
:103ab00046000700fe0190003a0007008b85e800f1
:103ac0003e0007008e09900040000700ee019000c4
:103ad000340007008b85e800380007008e0990004d
:103ae000400007009e0990001b18b80089044000a0
:103af0000a854800fe019000340007008b85e8002d
:103b000038000700ee019000300007008e09900099
:103b10001b18b800890440000a8548000a98a300d1
:103b200008003a000402420085824a0006034b0066
:103b300087834b0008044c0089844c000a054d0023
:103b40008d06e90084827200850273004c3add0024
:103b5000850272000100320015002000443ade00a8
:103b60001400b2004538de00cb45dd000b007000cc
:103b7000c540de00cb4ddd008b8070004549de0086
:103b8000cb55dd000b017100c551de000d0378003f
:103b9000cefe070003f0a1000cf0a70003f0a00088
:103ba0000aff37001b18b800850240000683480052
:103bb000e0834b0060044c00070037001b18b8007e
:103bc0000603400087834800faff37001b18b8003f
:103bd0008703400008844800e0844c0060054d00e5
:103be000000006001b18b800080440008984480043
:103bf000faff37000108a300f1fe3a005800be00aa
:103c00005801be00e3ff37000008a300ecfe3a00b5
:103c100009047800f9ff370007f0a200b6fd37006d
:103c20001400fa00889fbe008a9fbe008c9fbe00d1
:103c30000005be000206be00680047000c90be00f2
:103c40000a90be007d0007006400e1001a00320007
:103c500016003e006100e1001a0032006e04900080
:103c6000fe0490000e0b90009e0b90006011b800b7
:103c70009e0590000b38b100d501200082817100b3
:103c8000610164008703d1000683d3008984d300d7
:103c90000884d3008502e900f8ff3a000ef307001c
:103ca0000df0a70001f0a000c8fe3700f1ff2700cb
:103cb000f0ff2f00c5fe370001f8270000002000ac
:103cc000f7ff37006000b800f5ff3700020ab900bf
:103cd000001bb9000200b8008100420081004300cf
:103ce000000006000003be0021f307006220e1008f
:103cf000020032000600be0005000500e507b10025
:103d0000f107b20004f023008480700007f0a700e0
:103d100001f0a00024000500889fbe008a9fbe001d
:103d20008c9fbe000404be000605be00809fbe003e
:103d3000829fbe002f000700040678000800be0026
:103d40000a01be002b000700840678004f03be0066
:103d50004f02be008d4f76007fb0970013003300f6
:103d6000f0ff2f008b8f6b0006003b000d066600f6
:103d70000c00a7000a00370007f0a6001000200082
:103d80000a003700880f5200898f5a008a0f5b00a3
:103d90008b8f5b00030039001000200001003e0003
:103da0000000200007f0a7000000ea004f06be0058
:103db0004f05be004f04be0000000600e482400034
:103dc0001078a30007003200640240001178a300bd
:103dd0003400be001401be00040032000330a7000e
:103de000000006003500be001501be000330a00033
:103df0000000060005ff2700058261000700320071
:103e00000428e1000100320024000500060007003c
:103e100001003a0044000500040805000200070004
:103e2000f9ff3a00140005006f8261008102700002
:103e30008502710085027200000006008000780093
:103e40005002be005003be004439de00f700b2004d
:103e5000f37f200003016100090032000218e10035
:103e600016003a008501720083017300838173009c
:103e70000008200015003a00400020001300370021
:103e800085017200830173008381730005003a008d
:103e900004a8be0006a8be00100020000b003700da
:103ea0000201e9000402420085824a0006034b0039
:103eb00087834b000748a300f9ff32000740a000aa
:103ec00004a8be0006a8be002000200080009800c4
:083ed0009200980000000600ba
:020000040000fa
:020000040002f8
:04aff800fdfb00005d
:020000040000fa
:020000040002f8
:04affc007f3f000093
:020000040000fa
:1000080090020000900200008273000088730000d4
:100018009002000090020000900200009002000090
:100028009002000090020000900200002a80000068
:100038009002000090020000900200009002000070
:100048009002000090020000900200009002000060
:100058009002000090020000900200009002000050
:100068009002000090020000900200009002000040
:100078009002000090020000900200009002000030
:100088009002000090020000900200009002000020
:100098009002000090020000900200009002000010
:1000a8009002000090020000900200009002000000
:1000b80090020000900200009002000090020000f0
:1000c80090020000900200009002000090020000e0
:1000d80090020000900200009002000090020000d0
:1000e80090020000900200009002000090020000c0
:1000f80090020000900200009002000090020000b0
:10010800900200009002000090020000900200009f
:10011800900200009002000090020000900200008f
:10012800900200009002000090020000900200007f
:10013800900200009002000090020000900200006f
:10014800900200009002000090020000900200005f
:10015800900200009002000090020000900200004f
:10016800900200009002000090020000900200003f
:10017800900200009002000090020000900200002f
:10018800900200009002000090020000900200001f
:10019800900200009002000090020000900200000f
:1001a80090020000900200009002000090020000ff
:1001b80090020000900200009002000090020000ef
:1001c80090020000900200009002000090020000df
:1001d80090020000900200009002000090020000cf
:1001e80090020000900200009002000090020000bf
:0801f8009002000090020000db
:020000040000fa
:1002080090020000900200008273000088730000d2
:10021800900200009002000090020000900200008e
:100228009002000090020000900200002a80000066
:10023800900200009002000090020000900200006e
:10024800900200009002000090020000900200005e
:10025800900200009002000090020000900200004e
:10026800900200009002000090020000900200003e
:10027800900200009002000090020000900200002e
:10028800900200009002000090020000900200001e
:10029800900200009002000090020000900200000e
:1002a80090020000900200009002000090020000fe
:1002b80090020000900200009002000090020000ee
:1002c80090020000900200009002000090020000de
:1002d80090020000900200009002000090020000ce
:1002e80090020000900200009002000090020000be
:1002f80090020000900200009002000090020000ae
:10030800900200009002000090020000900200009d
:10031800900200009002000090020000900200008d
:10032800900200009002000090020000900200007d
:10033800900200009002000090020000900200006d
:10034800900200009002000090020000900200005d
:10035800900200009002000090020000900200004d
:10036800900200009002000090020000900200003d
:10037800900200009002000090020000900200002d
:10038800900200009002000090020000900200001d
:10039800900200009002000090020000900200000d
:1003a80090020000900200009002000090020000fd
:1003b80090020000900200009002000090020000ed
:1003c80090020000900200009002000090020000dd
:1003d80090020000900200009002000090020000cd
:1003e80090020000900200009002000090020000bd
:0803f8009002000090020000d9
:020000040000fa
:103ed8000d0a00000d0a000000740000657800005b
:103ee800742f0000706c0000616900006e00000013
:103ef80000000000000000000000000000000000ba
:103f08000074000065780000742f000068740000d9
:103f18006d6c0000000000000000000000000000c0
:103f28000000000000000000007400006578000038
:103f3800742f0000687400006d6c00000000000021
:103f48000000000000000000000000000000000069
:103f58000074000065780000742f0000786d000080
:103f68006c000000000000000000000000000000dd
:103f78000000000000000000006900006d61000002
:103f8800676500002f6700006966000000000000f8
:103f98000000000000000000000000000000000019
:103fa800006900006d610000676500002f70000067
:103fb8006e67000000000000000000000000000024
:103fc8000000000000000000006900006d610000b2
:103fd800676500002f6a0000706500006700000038
:103fe80000000000000000000000000000000000c9
:103ff80000610000707000006c69000063610000df
:10400800746900006f6e00002f6a0000617600007e
:10401800612d0000766d00000061000075640000ed
:10402800696f00002f7800002d770000617600008e
:104038006500000000000000000000000000000013
:104048000000000000000000000000000000000068
:104058000000000000000000000000000000000058
:104068000000000000000000004800005454000058
:10407800502f0000312e00003120000032300000a7
:10408800302000004f4b00000d0a0000436f000075
:104098006e740000656e0000742d000074790000d5
:1040a800706500003a2000000048000054540000e9
:1040b800502f0000312e0000312000003230000067
:1040c800302000004f4b00000d0a00004461000042
:1040d800746500003a20000057650000642c000059
:1040e80020300000352000004170000072200000e0
:1040f800323000003036000020300000323a000034
:10410800353300003a30000035200000474d0000ec
:10411800540d00000a450000787000006972000024
:10412800657300003a20000057650000642c000009
:10413800203000003520000041700000722000008f
:10414800323000003036000020300000323a0000e3
:10415800353200003a30000035200000474d00009d
:10416800540d00000a430000616300006865000008
:104178002d6300006f6e0000747200006f6c000009
:104188003a20000070720000697600006174000037
:10419800650d00000a4300006f6e000074650000a2
:1041a8006e7400002d74000079700000653a0000fc
:1041b8002000000048540000545000002f31000037
:1041c8002e3100002034000030340000204e000062
:1041d8006f740000206600006f7500006e640000b8
:1041e8000d0a00000d0a00004e6f00007420000048
:1041f800666f0000756e0000642e00000d0a000056
:104208000048000054540000502f0000312e0000d8
:104218003120000035300000332000000d0a000076
:104228000d0a000053650000727600006963000003
:1042380065200000556e000061760000616900008d
:104248006c610000626c0000650d00000a0000004f
:10425800dea0000005a100000d0a0000000000001b
:104268000047000045540000002f000000610000d6
:10427800707000006c6900006361000074690000e0
:104288006f6e00002f6a0000736f00006e00000060
:10429800200000007b2200007365000063720000ac
:1042a800657400006b650000792200003a22000066
:1042b800002200002c2200006461000074610000ec
:1042c800223a0000007b0000226c00006f630000af
:1042d800223a000022000000222c00002264000084
:1042e8006e6100006d650000223a000022000000a7
:1042f800222c0000227300006e6100006d65000032
:10430800223a000022000000222c00002273000044
:1043180069640000223a0000002c000022740000aa
:10432800696d000065730000746100006d70000025
:10433800223a000022000000222c00002273000014
:1043480070650000726900006f640000223a000086
:10435800002c000022630000686100006e6e0000ff
:10436800656c0000732200003a0000005b7b0000cf
:10437800226300006e6100006d650000223a0000b3
:1043880022000000222c0000227500006e69000047
:10439800742200003a220000002200002c220000b3
:1043a8007265000061640000696e000067730000b8
:1043b800223a00005b0000005d7d00005d7d00008a
:1043c8007d0a0000000000002f73000065610000f6
:1043d80072630000683f0000617300005f710000b5
:1043e8003d4d000069630000726f000063680000c3
:1043f8006970000026610000735f000073690000a7
:104408007465000073650000617200006368000055
:104418003d6d000069630000726f00006368000072
:10442800697000002e6300006f6d000000470000f7
:1044380045540000200000002048000054540000ab
:10444800502f0000312e0000300d00000a480000f7
:104458006f730000743a0000200000000d0a00008d
:10446800436f00006e6e0000656300007469000011
:104478006f6e00003a200000636c00006f7300004c
:10448800650d00000a0d00000a000000504f0000f2
:10449800535400002000000020480000545400003d
:1044a800502f0000312e0000310d00000a000000de
:1044b800486f0000737400003a200000000d0000ef
:1044c8000a00000025640000004300006f6e000031
:1044d800746500006e7400002d4c0000656e0000cd
:1044e80067740000683a0000004300006f6e000027
:1044f800746500006e7400002d540000797000008f
:10450800653a000020610000707000006c690000ce
:1045180063610000746900006f6e00002f6a00007c
:10452800736f00006e3b00002063000068610000ac
:1045380072730000657400003d5500005446000089
:104548002d380000000d00000a0a000000000000dd
:1045580010040000a3000000000000004d4300000c
:1045680048500000424f0000415200004400000043
:104578007772000069740000696e0000672000000f
:1045880065650000707200006f6d00000065000036
:1045980065700000726f00006d2000002564000047
:1045a80000320000316100006562000038650000db
:1045b80062630000343400003134000033320000fc
:1045c800333900003434000036300000366500000e
:1045d80038310000303300006363000063320000ac
:1045e80031000000494e000044450000582e0000ec
:1045f8004347000049000000434f00004e460000ba
:10460800494700002e4300004749000000490000c8
:104618004e440000455800002e4300004749000062
:1046280000760000352e000033310000004a0000fb
:10463800756c00002020000031200000323000009e
:104648003132000020320000323a000035380000d4
:104658003a3100003000000072740000632000004e
:10466800256c000075000000256c00007500000036
:10467800253200002e310000660000000000000016
:104688004f4e0000004f000046460000003000007a
:104698000031000000250000303500002e320000f7
:1046a800660000006163000074750000617400001a
:1046b800650000007374000061740000650000006c
:1046c8006461000074610000000000000000000048
:1046d80064000000640000000100000014000000f5
:1046e8001400000002000000c8000000960000004e
:1046f800050000002c010000010000000700000078
:104708000001000000010000080000002c0100006a
:10471800c800000009000000200300002c01000070
:104728000a00000019000000140000005374000083
:104738006174000075730000204300006861000088
:104748006e67000065200000446f00006e65000081
:10475800212100002100000077770000312e0000a1
:104768006d690000637200006f63000068690000f3
:10477800702e0000636f00006d00000031390000ea
:10478800322e000031360000382e0000312e000095
:104798003235000030000000253400002e310000c2
:1047a800662c0000003100002c000000302c0000b6
:1047b8000000000068690000202500006c6400000b
:0447c80000000000ed
:020000040000fa
:1047cc008040780044d2bf00814f50001700320067
:1047dc00e24f400008003200e2c1b3000440bc00cc
:1047ec0040d820000001410020d020000e0009001c
:1047fc0030197800e201b1000100780044f2b700f2
:10480c00e2cf40000900320001407800e2c1b30061
:10481c000440bc0040d820000001410020d0200002
:10482c000e00090032187800e201b1000000060009
:10483c00e3ff0700d16880000000210000806000c9
:10484c00020032001b8da9001000200000000600a1
:10485c00dbff07008000eb00c0688000e70f500012
:10486c0001003a0011002000010078000000060051
:10487c00d3ff070081d1200091407800e7cf500092
:10488c00030032000000eb00ebcf50000b003a00ad
:10489c00416880005068800001015000808f5000fa
:1048ac000500390010688000040db50002004000be
:1048bc000000e900000006000200e900000006000c
:1048cc00889fbe0000447800bdff07001068800080
:1048dc00040db5008004e90008407800e4ff0700ef
:1048ec00008054004f04be0000000600b4ff070017
:1048fc006268800071688000810f510002003900ed
:10490c00010051000000060030688000810050005a
:10491c002068800000005100808040000100e80009
:10492c0000000600889fbe0000447800a4ff07002a
:10493c0029688000306880008904500008407800a5
:10494c00eaff070080845400090078004f04be0081
:10495c0000000600881f7800000478001000780022
:10496c003c64020000000000000c7800180090006d
:10497c003c64020000000000100498002800900025
:10498c00b80090004e640200000000002004980063
:10499c003104980048009000d80090004e6402004a
:1049ac00000000004004980051049800780090002a
:1049bc003c6402000000000070049800080890009d
:1049cc003c64020000000000000c980018089000e5
:1049dc003c64020000000000100c98004f047800aa
:1049ec00000006000200fa00889fbe00c0002000f4
:1049fc005a79020000000000083a02000000000092
:104a0c00000fb2004280de00f4445000330032004c
:104a1c00710020000000eb002e3a020000000000a4
:104a2c002b003700083a0200000000000004e000f0
:104a3c002a003200e14f500025003200e24f5000b6
:104a4c0017003a00e2cf5400240036000000eb00bf
:104a5c00d0bf9f00083a020000000000e44f500055
:104a6c0006003a00083a020000000000b0ff9f0068
:104a7c00083a020000000000a0ff9f00dfb897007a
:104a8c0070212000808f500014003600d039b00007
:104a9c00808f500012003e0001007800100037009b
:104aac00e1cf54000d003600083a0200000000006f
:104abc000044780080cf5400080039008080fb004f
:104acc000000eb002e3a02000000000088c45400e5
:104adc008944e900e1cf4400d2ff3a008021200054
:104aec004f04be000080fa0000000600889fbe0044
:104afc008a1f78000005780002047800840478008e
:104b0c000304e00015003200e1cf51002a003a0006
:104b1c000104e00008003200e1cf500026003a000a
:104b2c0004017800880078000a007800b20a0200bc
:104b3c000000000020003700e10f450003003200a8
:104b4c000a0078001e410200000000000800be00b0
:104b5c00ee3a020000000000170037000104e000ec
:104b6c000c003200e1cf500013003a00e10f41007d
:104b7c000300320002007800e44002000000000054
:104b8c00890078000a0078002e3a0200000000002c
:104b9c000900370004017800880078000a007800ca
:104bac00823e0200000000006c3e0200000000008b
:104bbc000000e000fcff32004f0578004f04be00ff
:104bcc000000060045d2bf0041242100914078002e
:104bdc000104e10018003200e24f40000b003200eb
:104bec00e2c1b3000440bc007c03410045d8200066
:104bfc0062807a008002b1008402200013c0b300ee
:104c0c00c2d52000e6c07a00b8ff070044d2bf002e
:104c1c0045f2b70082fd2f001168800001014100b0
:104c2c0084022000e3d120009341780011c0b3002e
:104c3c00c0d52000adff070000000600e1ff070013
:104c4c00606b8000e0688800106880004068880015
:104c5c005068880020688000606888007068880050
:104c6c00400020001a6dab0001003a00d00020007b
:104c7c00c06888001a0da9001a2da9001a4da900a8
:104c8c001a8da9001aada9001acda9001aeda90018
:104c9c001b0da9001b2da9001b4da9001b6da90004
:104cac001b8da8007e0da9007e2da9007e6da9008c
:104cbc007e8da90010688000406b88004261020064
:104ccc0000000000006b8800426102000000000040
:104cdc00106b88007cadef0010002000706b88001a
:104cec0000000600b6fe0700b6ff070060cf2000ec
:104cfc0021d720000900090031587800506b800042
:104d0c000068880060cf200000000600889fbe006d
:104d1c008a9fbe004612e20007003a00a061020022
:104d2c0000000000f27f2000020060000240200022
:104d3c000200400030928800c20320008000eb008b
:104d4c0000d22000c00a020000000000090c210063
:104d5c000005eb00b8362a000a40780098fe0700e0
:104d6c000800e8009000780063004400100178000f
:104d7c001804e00008003a00028040000080440063
:104d8c00ab02200080854500c0ff2100808f5500bc
:104d9c0002003600fdff3700ffff37001e6def00ed
:104dac0080022000090040001068880001004000cb
:104dbc000000e8002068880002004000306888008d
:104dcc00d0002000c06888001a6da9007dff070084
:104ddc0078f8970083edb70098ff07000a05e80004
:104dec0066044400e80f5500020032008b04780082
:104dfc00d9ff37004f05be004f04be00000006006f
:104e0c002600fa00889fbe008a9fbe008c1f780087
:104e1c0000447800014578006aff07000808a300e9
:104e2c00020032001b6da8000804a1001aada900f5
:104e3c001acda9001aeda9001b2da9001b4da90024
:104e4c001b0da9008c430200000000000000e000d4
:104e5c00fcff3200e60064008004eb0056003a00d0
:104e6c0040688000426b8000820f500002003a00c4
:104e7c008104780045003700736b8000820f50006e
:104e8c001300360002005000830f50000100360062
:104e9c0003007800096c8000890f500002003e006e
:104eac0080047800010037001b4da800090278002f
:104ebc00e3d12000934178008040eb0050b02000fb
:104ecc000aff070009007800682db4002f00370096
:104edc00216880000282500084b79f00800042004d
:104eec001068800000805000830f500001003600d5
:104efc0003007800096c8000890f500002003e000e
:104f0c0080047800010037001b4da800890f520067
:104f1c000100360089b79f000fb29700e3d1200043
:104f2c00934178008040eb0050b02000effe07006a
:104f3c000fb097000082540084b79f000900320024
:104f4c0012688000406b8000040db50051b0200049
:104f5c0001004000e3d12000934178008040eb0039
:104f6c00e2fe0700406b800080804400416b8800ab
:104f7c0022688000828f5000040039001068800085
:104f8c000000510000805000406b88001b6dab008e
:104f9c0007003200706b8000808f540004003200d8
:104fac00006c8000808f5400010032000804a000c7
:104fbc000900e00002003a006300640015003200b2
:104fcc00090078006e2db5000900e00001003200e8
:104fdc000834a0000a08a30004003200826def0020
:104fec0041422f00e16a88005e2def00d67f02005f
:104ffc0000000000e26a8000f36a800000014100ba
:10500c008181490082688800936888001a8da80005
:10501c002b003700d26880008a80fb000118a300a7
:10502c000e0032008240e800e780600080ff2f0015
:10503c000000610001007000d0688800006b8000e7
:10504c00116b800061005000e0805800006b8800fc
:10505c00116b8800190020001900370070006100e6
:10506c0002003a0080047800150037000108a30004
:10507c000a003a0082cdbf00080032000040e9006f
:10508c0082edb700e06a8000f16a80008100d100f7
:10509c000080d300e06a8800f16a8800d67f0200a5
:1050ac0000000000e26a8000f36a80000001410009
:1050bc008181490082688800936888008004eb0035
:1050cc00616b800091b79f00526b8000a2b79f006c
:1050dc00026b8000136b8000b2b79f00c3b79f00b8
:1050ec00206b8000316b8000d0b79f00e1b79f0030
:1050fc007fb09700f1ff23000100600001ff2f003b
:10510c0001006000f0b79f00f8ef9f000000eb007b
:10511c00a0bf9f0009014100e0814900026b88009b
:10512c00136b88008880fb000100d10061006000d7
:10513c00804578000004e000130032000148a30011
:10514c0003003a006000b800d0b79f00e1b79f00a1
:10515c007e2dab00070032003fb09700cfb0970018
:10516c0061005000e0805800b0b79f00c1b79f00ad
:10517c000500370061014100e0814900026b8800a5
:10518c00136b88007e2da8000808a30010003200c5
:10519c007e0dab00070032003fb09700cfb09700f8
:1051ac0061005000e0805800b0b79f00c1b79f006d
:1051bc0007003700006b8000116b8000610040001d
:1051cc00e0804800006b8800116b88007e0da80001
:1051dc006268800071688000810f51000500390001
:1051ec0020688000060db5008100510001005000c0
:1051fc0002003700028050000000e90080bf9f00d1
:10520c000a430200000000000004b10080af9f00c0
:10521c0002003b008000eb0081af9f008fa897003d
:10522c007e8657000fb89700810f500001003600a2
:10523c0081bf9f000c007800c6fd070074854400f8
:10524c00f2f02f007fb09700820060000105b300e0
:10525c00f1b79f000b04e0000a003200788544008f
:10526c0020c0b300a0d79f0040c0b300b0d79f00b0
:10527c0020802100a0af9f00028060000006b300d8
:10528c00f0b79f00c1062100914078008180fb009f
:10529c006dd0bf004800dd0001017000e106210067
:1052ac00914078008180fb006fd0bf004800dd008a
:1052bc008101700060fd2f0000844700028cbe004d
:1052cc00906b8000a16b8000d0af9f00e1af9f007e
:1052dc000040eb00e0df9f0069c0b300f9df9f00e6
:1052ec008ab79f000a0078003c64020000000000ae
:1052fc0080b79f00c1002000080078007c64020089
:10530c00000000000080ea0090bf9f00d0ad20009c
:10531c001e410200000000000a017800894078005c
:10532c0020d72000867902000000000041012000f7
:10533c000c007800ee3a0200000000000b04e000c4
:10534c00050032004100200022fd2f0002804700a2
:10535c00ee3a02000000000010af2000e440020012
:10536c00000000000a007800fa3f02000000000074
:10537c0080af9f0010b020001e4102000000000012
:10538c002100200000fd2f000f004000ee3a02002b
:10539c000000000058410200000000004f06780099
:1053ac004f05be004f04be000080fa00000006004e
:1053bc00889fbe008a9fbe00010478000205780019
:1053cc0083447800fefc07000800e00001003a006e
:1053dc001800200010688000060db5008005e9005b
:1053ec000a0444008b0f54004a003e00f5fd0700f0
:1053fc006380640001003a003940b3000880550016
:10540c008981fb000318a30002003a000a0178000e
:10541c00040037000308a300010032000000d10093
:10542c000001450010688000000041000004e80005
:10543c0061688000e26b8000e10f410009003200de
:10544c00806b80000000410080804000306880004c
:10545c00808f500003003600040db5000080400022
:10546c008000e90070688000810f50000200390054
:10547c000500360020688000800f540004003600c0
:10548c000328a30023003a00786888006868880025
:10549c0070688000808f5000110031000328a30039
:1054ac000f0032002268800002825000e3d12000fd
:1054bc009341780083407800080078008bfd07004a
:1054cc006168800070688000808f5000040031009b
:1054dc0008007800040db50000805000606888005a
:1054ec002868880010688000406b8800506888002d
:1054fc004068880011002000c0688000e70f500051
:10550c0005003a0000c1b3003dfe07001100200069
:10551c00010037008000eb00010078004f05be0051
:10552c004f04be0000000600881f7800004478007d
:10553c00eefc07000000e000070032000840780095
:10554c009ffc0700606880007068880011c0b30081
:10555c0000c1b3002afe07004f04780000000600cb
:10556c0097fc070097fd070041688000406b8000a6
:10557c00808f50000300320011c0b30000c1b30093
:10558c001ffe0700000006008dfc0700606880000d
:10559c0070688800c0688000e50f50002f00320052
:1055ac0006003e00e10f50000d0032002b003900c8
:1055bc00e30f500026003e0028003700eb0f500090
:1055cc001500320003003e00e70f500020003e00a3
:1055dc0006003700ee0f50001d003a00190037008e
:1055ec000a580200000000001c00370011c0b30074
:1055fc0010c1b30002fe07006e0de2000400320081
:10560c0041688000406b8000808f5000f7ff3a00ab
:10561c00800020000c00370011c0b30010c1b30093
:10562c00f7fd07006e0de2000400320041688000b7
:10563c00406b8000808f5000f7ff3a00c0002000c4
:10564c0001003700d0002000c06888000000060070
:10565c008040eb0040c1b300e9fd070077fd370047
:10566c00881f78000044780055fc07001a6da900cb
:10567c0008407800c4ff07004f04780000000600c3
:10568c000400fa00889fbe008a9fbe008c1f780021
:10569c0090bf9f00a1bf9f000244780003057800d3
:1056ac00844578008004eb000946780009407800b6
:1056bc0043fc0700c0688000ed0f500063003a0007
:1056cc0040fd07000b407800834de3005f003a007b
:1056dc0080212000006c88000804e00006003a00dd
:1056ec006a6b88001a6da80040002000c068880012
:1056fc00ea6888005300370000c02f004612b4003f
:10570c0081f82000810f500002003600004020007c
:10571c003092880030928000606b88000000e800b6
:10572c00309288005a6b8800d67f0200000000007f
:10573c0080688800916888001a8da800e34f540097
:10574c001600320003003e00e14f54003d003900ca
:10575c0003003700e44f54003a003a0021003700b0
:10576c001fb89700afb89700906b8800a16b8800aa
:10577c000814a2000880fb000000e9004f00de00c6
:10578c004200dd00f16b80000120a10080807000e0
:10579c00f16b8800182def002a0037002fb8970006
:1057ac009fb89700010040000a004000616b800028
:1057bc0001006800e06888001fb89700afb8970038
:1057cc00906b8800a16b8800826def00d1032000e4
:1057dc00e16a88005e2def0020002000c068880080
:1057ec00180037001fb99700224090000080fb0082
:1057fc00b2409000c808dd00808070009281fb00f0
:10580c00124090004800dd000300700080804000d2
:10581c008a804000606b800080806800e1688800ae
:10582c0020d720000900090032587800a200b100ee
:10583c0050002000c068880011c0b30020c0b30025
:10584c006ffd07000c80fb00040037008904e800a2
:10585c00e88f540094ff3a00e00f20004f067800c8
:10586c004f05be004f04be000080fa000000060089
:10587c000f03b000889fbe008a9fbe008c9fbe00a5
:10588c008e1f780080057800820478001082fb005f
:10589c00104090004800dd00040170002b42900085
:1058ac000482fb003b4090004800dd008401700046
:1058bc00a2a79f00b3a79f001101be00c2a79f0023
:1058cc00d3a79f000040eb00c0cf9f0060c0b30087
:1058dc00d0cf9f00f9a79f00090078003c6402001c
:1058ec0000000000f0a79f00c100200040fc2f002a
:1058fc000f0040007c6402000000000000047800ef
:10590c0009007800fa3f0200000000008880ea00dd
:10591c00808f50002a033a000000eb005a790200f5
:10592c000000000003fd2f0003844700410120000c
:10593c00080078002e3a02000000000008007800f1
:10594c0004fc07006fa897004400de006f40600065
:10595c004200dd00744050000080fb008084540045
:10596c0089bf9f00748754009fa997000300e00033
:10597c00130332002b4090000080fb00bb409000d2
:10598c00c808dd00808070001b81fb001b4090006c
:10599c004800dd00020070008080400098804000cc
:1059ac0003856800e9cfb3000004eb0008407800e1
:1059bc0083fb0700c0688000ed0f5000220032000e
:1059cc00e1688000e40f500005003a001fa8970022
:1059dc00808f50001c003a00884478001a00370071
:1059ec008a8f500018003a0076fc07009fa8970099
:1059fc00606b8000808f500013003a0004fd2f0074
:105a0c0084804700506b8000910f10000e003a000c
:105a1c009b80fb001b4090004800dd0001017000e2
:105a2c00ab4090008180fb003b4090004800dd00c3
:105a3c0081017000906b8000a16b8000800f510081
:105a4c00818f5900d10232000804e800e80f54009d
:105a5c00d6ff3a0005fd2f0005844700e2cf440035
:105a6c000f0032000940780055fb070055fc070079
:105a7c00ea68880026d72000090009003b5b780003
:105a8c00ab00b10018047800586b88001fac97006d
