:020000040000fa
:080000000002040000000000f2
:020000040000fa
:100400004fc12000807f2200000188000000000012
:10041000050007000c0007001e520200000000004b
:100420000040da000000fe004440a90040712000b6
:100430000000e0000300320000002000a00188005e
:100440004440a80000000600e0c62500010020008e
:100450001600370062004000e080480091018800eb
:100460009001ba0062004000e080480091018800dd
:100470009002ba0062004000e08048000002eb00f9
:100480006028e10005003a008301e900070033001d
:10049000038009000059eb00040037006128e100e7
:1004a000010032000082eb00050007009101880086
:1004b0001001ba000200e000e6ff3a00000005006b
:1004c000910188008002780062004000e0804800ce
:1004d0003559ba008301e900080032002559ba00f5
:1004e0008301e900050032000400e000f4ff32005f
:1004f00015d9ba008301e900f1ff3a0000000600b7
:1005000000027800800178000100370081597800ee
:1005100002004200808f5100fcff3a000400780086
:10052000000006000002780080017800010037001a
:10053000b159780002004200808f5100fcff3a0060
:1005400004007800000006008000780001003700f9
:100550000000e8001004e000fdff3a000100500038
:1005600000000600ec874700889fbe008a9fbe00ff
:100570008c9fbe008e1f7800f0b79f0081bf9f0048
:100580008204780000047800010037000804e800c5
:10059000184778000e00fb00860007000000e0000e
:1005a000faff3a00d0c2b300804f57000500320076
:1005b00000c0e900804f5700020032000047780079
:1005c000010037000804e8000900e000450035009c
:1005d000e18f54004300320040022000808f54001d
:1005e00040003c000900e0000e003400f08f540091
:1005f0001a003a0000c3b300984f100016003a00ea
:100600009840900080c7b30080cf500003003200b4
:1006100080c5b30080cf50000f003a000884e80086
:100620000e003700a900200000c3b300984f10004f
:100630000a003a009840900080c7b30080cf500075
:10064000040032008900200080c5b30080cf500034
:1006500002003a000884e80009012000080578003b
:10066000010037000a05e80000c3b3009a4f1000ec
:10067000fcff32008a0578006066b8000e00370083
:1006800090ab200000425200c4ef9f006149b900c6
:100690000c00be00bf0107004fea97000401fb00f9
:1006a000cf91de008b05e800ccb79f00ddb79f003f
:1006b00000064100818649001b00fb004500070041
:1006c000800078000901780090ab20004800070006
:1006d000000278000000e000e9ff3a008b0f5400b0
:1006e00006003a000fb897000000e0002900320031
:1006f000ffb0970001087800260037008a80550077
:1007000040a92000694078000000fb0000805000f4
:10071000160033004240a9000f003c004fe997004b
:100720000200fb00cf80de000000560081805e00ea
:10073000800f5600818f5e00070039006149b900c3
:10074000840107004fb19700dfb19700820f50007e
:10075000838f58000500320020022000306088009e
:100760000086eb008086eb0005003700d0c2b300a6
:10077000804f570002003a0060061600e0861e0017
:100780008fb997000300e000030032008b09780066
:10079000010037006066b8000c00be004f0778000b
:1007a0004f06be004f05be004f04be00cf00b10093
:1007b000000006006900e100040035006d00e10062
:1007c000030034000002b100010032000000050007
:1007d00010000500800078001104b100030035000e
:1007e0009101b10001003c000050a0000000060093
:1007f000820178000400370090cf1000050032001d
:100800000000e8008301e9000300e000faff3a007d
:100810000000eb0000000600206080000000e00007
:10082000010032000000010060c02000000006004e
:10083000480107000400be0000000600889fbe00bb
:100840008a9fbe008c1f78000205be000004be0017
:100850000006eb00e00f5000e08f5800e00f590059
:10086000e08f590007003d006000b8006011b8003b
:1008700008045000898458000a0559008b855900e6
:100880001c002000e00f5200e08f5a00e00f5b00d8
:10089000e08f5b0002003d000f0007000c00a2008b
:1008a0000800be000a01be001e0207000203be00cf
:1008b0000002be000c00e00001003200060007004c
:1008c0000400be000601be004f0678004f05be00c2
:1008d0004f04be00000006006000b8006011b800c0
:1008e000040250008582580006035900878359008e
:1008f00000000600881f7800000478005001be0048
:100900004000be000000420081804a0002014b000e
:1009100083814b00009cbe000294be000400e100f5
:100920000588e1000690e1000798e100020031002f
:10093000680044001008e8004f047800000006003a
:10094000f4874700889fbe008a9fbe008c9fbe0030
:100950008e1f78000205be000004be00d4b79f00c1
:10096000e5b79f00f6b79f0087bf9f000000eb0030
:10097000c0b79f00b0b79f00a0b79f0090b79f007f
:1009800080b79f000d042000bfb097004fb09700c4
:10099000000140000000e00014003d004f08de00b0
:1009a00000007100c0b79f00ad00070001003d00ce
:1009b00012002000b000070001003d0012002000de
:1009c000b500070001003d0012002000ba0007003a
:1009d000be000700feff3a00c2000700c800070083
:1009e0000f004000c3ff0700270037004f08de005c
:1009f00000067100ccb79f009900070001003d0080
:100a0000120020009c00070001003d0012002000a1
:100a1000a100070001003d0012002000a600070011
:100a2000aa000700feff3a00ae0007000fb29700d1
:100a30009fb297002fb39700bfb39700b60007008f
:100a40000000520081805a0002015b0083815b003c
:100a500080b79f0091b79f00a2b79f00b3b79f00d8
:100a60000007eb00ac0007000020e10001a8e10056
:100a700002b0e10003b8e100010031001e002000d7
:100a80000e005600c0b79f004fb297000400e00070
:100a90000700350010002000010020006011b800a0
:100aa00008047000898470000a0571008b8571004c
:100ab0008d06e900b4ff3a000400e00003003d00a9
:100ac0008f0007000f0040008aff07004fa8970023
:100ad0000000e00004003a000fb497009fb49700b4
:100ae0002fb59700bfb59700970007004f07780014
:100af0004f06be004f05be004f04be004f01b100bf
:100b000000000600881f780018002000881f780069
:100b10008bff07008f87e9004f0478000000060074
:100b2000801feb0086ff07008f87e90000000600aa
:100b3000889fbe008a9fbe008c1f78007b00070044
:100b400005003d002f00070007003d003d000700a5
:100b50000006eb00040037003f00070002003d00e4
:100b6000300007001c00200077000700e5ff0700a9
:100b70000203be000002be000c00e00001003200d3
:100b8000280007000400be000601be004f067800e2
:100b90004f05be004f04be0000000600889fbe0047
:100ba0008a9fbe008c1f78006000070003003d0094
:100bb0001400070006003d0004003700260007006f
:100bc00003003d006000b8006011b8001d00070080
:100bd0005d000700d2ff07000203be000002be0056
:100be0000c00e000010032000e0007000400be000f
:100bf0000601be004f0678004f05be004f04be0040
:100c0000000006006000b8006011b8000804500041
:100c1000898458000a0559008b8559001c00200062
:100c2000030037006000b8006011b800050037000d
:100c3000e00f5200e08f5a00e00f5b00e08f5b0096
:100c40000000060004025000858258000603590087
:100c500087835900000006000006eb00f4ff370010
:100c60000180400090b79f000001eb008fb097001b
:100c70000100e000000006000200700090b79f0035
:100c80000180400080b79f000001eb00ffa89700a3
:100c90000100e000000006000200700080b79f0025
:100ca00001804000f0af9f000001eb00efa897002b
:100cb0000100e0000000060002007000f0af9f009d
:100cc0000182400020000700f50305008301d100e8
:100cd0000281d3008180d3000080d3008502e90027
:100ce0000000060000027200e4af9f000804440008
:100cf00089844c000a054d008b854d0000000600dc
:100d00003fb29700cfb297005fb39700efb3970061
:100d100000fe2f00000006003fb09700cfb0970004
:100d20005fb19700efb19700000006000205be001a
:100d30000004be00e00f5000e08f5800e00f5900a3
:100d4000e08f5900000006000800be000a01be0046
:100d5000000006006022b800060220000000d0005b
:100d60008180d2000482d2008582d2000000a000df
:100d70000202520083825a0003003b00020242003a
:100d800083824a000000a1000603e900f3ff3a0055
:100d900000000600020ab900001bb9000200b800fa
:100da000810042008100430000000600889fbe00d1
:100db0008a9fbe00010578000100e00004003500b4
:100dc00008003c000000e000200032000500370071
:100dd00060001000e080180002003b0001f02c00d1
:100de0001a0037000004be006011b8006b09200033
:100df0000982cf00020039000882cf000441b00010
:100e0000694252000e00320008003b0082817100ee
:100e1000610164008904d1000884d3008b05e800d7
:100e20000442e800f9ff3a000500370008044400d6
:100e300089844c008b05e9000442e900fbff3a007d
:100e4000da0007000af0a70001f0a0004f05be007d
:100e50004f04be0000000600889fbe008a9fbe00af
:100e60008c1f7800f7000700fe00330003866c003b
:100e70006450e100240032006420e10027003200c9
:100e80006150e100220032006120e10021003200c7
:100e90008b854200eb07b1000134b800003ab8007e
:100ea0000804420089844a00013ab8000030b800c2
:100eb0008880400009014a0004003300000040001f
:100ec00081804800020149008b05e900c909dd0065
:100ed000830170000100320013002000c814de00fe
:100ee0004814dd004709de001200b200c808de0029
:100ef00008847000ad00070001f0a1000cf0a7000d
:100f000001f0a000e00037006120e100e2003200c3
:100f10000801be000200be00f7ff37006150e1008b
:100f2000fcff3a00dc0037000001be00dd000700d6
:100f30000470a70003f0a1006509b100160032009b
:100f40000d0035006828e10006003500f0ff2f0095
:100f5000f1ff27000300e00013003b000100280020
:100f60000000050000004000818048008502e90083
:100f7000fcff3a0008003700f88f420002003c00f6
:100f80008000eb00000005008100d1000080d3004c
:100f90008502e800fcff3a000300e00002003b008d
:100fa00060001000e08018000000060003f0a200be
:100fb000889fbe008a9fbe008c1f7800a10007009a
:100fc000a80033006450e1004f0032006420e100cb
:100fd0005200320003826c0007003b000905d0007c
:100fe0000306d000820f54000c065d000200390099
:100ff00002003200890178000306780085825500de
:1010000004003d000003fd008103fd008502ea00ad
:101010008b854200840f720002003b0060001000cc
:10102000e08018006011b8000005eb007a28e100ac
:101030000a00390006007800c75ddd00f707b2003e
:10104000878075002d003700828171000a017800c9
:10105000610560008180d1000080d3008502e90035
:10106000f9ff3b00060440008784480002003b0073
:1010700060041400e0841c000988a300070032000b
:101080008a81710082817100610164008904d1004c
:101090000884d3008b05e800170037000978a30007
:1010a00013003a000b00e000130034008b05e90048
:1010b0000804440089844c000a4474000978a300a1
:1010c0000d003a000b00e000070034008b05e9003a
:1010d0000804440089844c0001003a000b00200001
:1010e0000978a300f7ff32000001eb00020037008f
:1010f000828171000a0178002c0007000cf0a70023
:1011000001f0a000600037006420e10002003a0016
:10111000838f6c00600033000801be000200be0037
:1011200059003700889fbe008a9fbe008c9fbe007a
:101130000404b8000506b8008904460060854e0026
:101140000606b8000a054600e0854e000706b8000e
:101150008b054600040eb800890446000a854e003f
:10116000e0854d00050eb8000a0546008b854e004f
:10117000060eb8008b0546000416b8000a054600a6
:101180008b854e000516b8008b054600041eb8007e
:101190008b0546000800be000a01be004f06be00d7
:1011a0004f05be004f04be00000006008100200075
:1011b000618055000b003d000b00200061fe2f00f8
:1011c0000100e1001d0034008281710061016400b2
:1011d0008904d1000884d3000000e800faff3a0037
:1011e00071002000610064000300700002006000d4
:1011f0000900320061044400e0844c000988a50025
:10120000050032008b05e8006808e10002003a00a2
:101210008904d1000884d300f20f20000258e100b5
:1012200005003d00c75ddd00f907b200898075004b
:1012300008007800000006000bf827008b007800fb
:10124000000005000004be00160007000003be00f9
:101250000405be000200be0012000700844f7500a6
:10126000000006000200be006450e10005003600e8
:101270006420e100020036000968a30001003a0082
:101280000800be000160a0004f0678004f05be00b8
:101290004f04be0000000600f0ff2f00f1ff270002
:1012a000f9ff3700c70ade00f107b200f50fb20000
:1012b00008003200e1cf4200020032000170a000bd
:1012c00024000500810f70000100320004080500b1
:1012d00044000500810f700002003a001400050070
:1012e0008502e9000000400081c04800fcff3b008f
:1012f0000170a0002400050000c0eb00c6ebb700a1
:10130000c7ebb700c8ebb700c9ebb700caebb70033
:10131000cbebb7000040eb00c2ebb700c3ebb7006c
:10132000c4ebb700c5ebb70000000600881f7800cb
:101330000104780022bc2000124178000281fb00e9
:1013400031bc200091407800c208dd00c13fb200ee
:101350008180400081804000818040008180400089
:1013600081804000818040000282700042bc2000e9
:10137000124178000281fb0051bc200091407800ae
:10138000c208dd00c13fb200818040008180400082
:101390008180400081804000818040008180400049
:1013a000828270001003be00860f5200878f5a00a1
:1013b0005800320061a62000914078008180fb0037
:1013c00067cabf004200dd00c03fb200000040001d
:1013d000000040000000400000004000000040000d
:1013e000000040000101700081a6200091407800bb
:1013f0008180fb0069cabf004200dd00c03fb2002f
:1014000000004000000040000000400000004000dc
:10141000000040000000400081017000820f520077
:10142000838f5a0041003a00e1a5200091407800e6
:101430008180fb005fcabf004200dd00c03fb200f8
:10144000000040000000400000004000000040009c
:1014500000004000000040000101700001a62000d3
:10146000914078008180fb0061cabf004200dd002e
:10147000c03fb200000040000000400000004000fb
:1014800000004000000040000000400081017000aa
:10149000060169008781690021a62000914078003b
:1014a0008180fb0063cabf004200dd00c03fb20084
:1014b000000040000000400000004000000040002c
:1014c00000004000000040000102700041a6200022
:1014d000914078008180fb0065cabf004200dd00ba
:1014e000c03fb2000000400000004000000040008b
:1014f0000000400000004000000040008102700039
:101500000401610085816100e00f5100e08f590006
:101510000600320060bc200005000900305c780045
:101520006800b10010002000010037000000eb004f
:101530004f04780000000600881f7800000478003f
:1015400010007800fe2c020000000000000c780063
:1015500018009000fe2c020000000000100498000b
:1015600038009000fe2c02000000000030049800bb
:101570004f04780000000600889fbe008a1f780094
:101580000005780086280200000000000000e0004e
:10159000fcff3200f0ac2000142602000000000026
:1015a00019002000090d7800008020001005980027
:1015b00068c0b3004845980040c0b300504598004b
:1015c00068004500b1a820000500090031587800e6
:1015d0006000b100e1a52000914078008180fb000f
:1015e0005fcabf004200dd00c03fb2000000400003
:1015f00000004000000040000000400000004000eb
:10160000000040000101700001a620009140780018
:101610008180fb0061cabf004200dd00c03fb20014
:1016200000004000000040000000400000004000ba
:101630000000400000004000810170007205980029
:10164000030d98000a007800bbff070072004500f8
:10165000c2012000884078004e21020000000000f6
:10166000c10120000a007800fa1f020000000000fb
:101670005226020000000000090078004f057800a3
:101680004f04be00000006001c00fa0000037800b2
:1016900010002000d0b79f0000c0eb00e0f79f00d3
:1016a000f0f79f0080ff9f0090ff9f00a0ff9f002a
:1016b000b0ff9f00e1a52000914078008180fb00f1
:1016c0005fcabf004200dd00c03fb2000000400022
:1016d000000040000000400000004000000040000a
:1016e000000040000101700001a620009140780038
:1016f0008180fb0061cabf004200dd00c03fb20034
:1017000000004000000040000000400000004000d9
:1017100000004000000040008101700036006900b8
:10172000a68069000001be0021a62000914078003b
:101730008180fb0063cabf004200dd00c03fb200f1
:101740000000400000004000000040000000400099
:1017500000004000000040000102700041a620008f
:10176000914078008180fb0065cabf004200dd0027
:10177000c03fb200000040000000400000004000f8
:1017800000004000000040000000400081027000a6
:101790000401610085816100e00f5100e08f590074
:1017a0001d00320061a62000914078008180fb007e
:1017b00067cabf004200dd00c03fb2000000400029
:1017c0000000400000004000000040000000400019
:1017d000000040000101700081a6200091407800c7
:1017e0008180fb0069cabf004200dd00c03fb2003b
:1017f00000004000000040000000400000004000e9
:10180000000040000000400081017000e2bf9f0026
:10181000f3bf9f00030037001600be00e0bf9f002b
:10182000f1bf9f007c80570053ff07000080fa0043
:10183000000006001c00fa00b05d80000000e0001f
:1018400003003200e10f50007c003a005d003700d9
:10185000c10120007c8057003a1f020000000000f8
:10186000ce210200000000007c80570032ff0700fc
:101870002fb09700e10f500070003a00cfb09700f2
:1018800060402000808f50006c003a005fb09700ed
:10189000e20f50001a003a00130037000040eb003e
:1018a0006e0d0200000000007480570061bc200033
:1018b00005000900b05878006000b1001fb897001b
:1018c000afb89700c2ebb7004801de000200780015
:1018d000c3ebb70001007800c4ebb7004808de0096
:1018e000c5ebb700550037000040eb00620d020069
:1018f000000000000000e000ebff3200e7ff3700cf
:10190000e10f50002f003a006fba9700ffba97001e
:10191000e1a52000914078008180fb005fcabf00f4
:101920004200dd00c03fb200000040000000400067
:1019300000004000000040000000400000004000a7
:101940000101700001a62000914078008180fb0019
:1019500061cabf004200dd00c03fb200000040008d
:101960000000400000004000000040000000400077
:101970000000400081017000820f5200838f5a00e6
:101980002e003a00090037000040eb00620d020013
:10199000000000000000e0002a0032000040eb00e0
:1019a0006e0d020000000000240037001fb89700f1
:1019b000afb89700840f5000858f5800f2ff3a00af
:1019c000f6ff370020002000d0b79f000040eb005a
:1019d000540d0200000000000000e000080032008a
:1019e00000c0eb00e0f79f00f0f79f0080ff9f0032
:1019f00090ff9f00a0ff9f00b0ff9f0006003700f0
:101a0000e05d8000f15d8000b0bf9f00c1bf9f001e
:101a1000015e8000d1bf9f00c05d8000d15d80006d
:101a2000e0bf9f00f1bf9f007c805700d2fe0700ff
:101a30000000e00010003200b62bef001000200084
:101a40000d0037001fb89700afb89700c05d880041
:101a5000d15d88006fb09700ffb09700e05d88000f
:101a6000f15d88008fb89700015e880010002000ab
:101a7000b05d8800d3ff37000080fa000000060048
:101a80000c2ba9000000eb00f0568800e02aef00c4
:101a9000e22aef000c4ba9000c6ba9000debb7007c
:101aa0000caba900000006008000eb00f05680009f
:101ab000ea0f500001003a001100200001007800f8
:101ac000000006000c0bd50061006000000006005d
:101ad000405888005158880000000600d2b020000d
:101ae000124178008241e800030078000debb70056
:101af000f1568000eb8f50002b003e0010002000bc
:101b00008100dd00010078001030b2000a003a00c8
:101b100000c02000008060000a003a000100780048
:101b2000e00fb2002000320080002000e9cf510019
:101b300015003e0013003700020078000debb700df
:101b4000000006000057800011578000e00f500091
:101b5000e08f58000e003200244b0200000000000d
:101b60000257800013578000020050008380580005
:101b70007296280093002000820f5000838f580037
:101b800003003e0020002000f05688000000060000
:101b9000244b020000000000005788001157880005
:101ba000b0002000f0568800000006000c0ba800d2
:101bb00016130200000000000000e00044003a009c
:101bc00021a72000914078008180fb0073cabf00ec
:101bd0004200dd00c03fb2000000400000004000b5
:101be00000004000000040000000400000004000f5
:101bf0000101700041a72000914078008180fb0026
:101c000075cabf004200dd00c03fb20000004000c6
:101c100000004000000040000000400000004000c4
:101c20000000400081017000020078005eeab70009
:101c30004810de005feab7000300780060eab700f2
:101c40004818de0061eab70061a7200091407800e3
:101c50008180fb0077cabf004200dd00c03fb200b8
:101c60000000400000004000000040000000400074
:101c700000004000000040000101700081a720002a
:101c8000914078008180fb0079cabf004200dd00ee
:101c9000c03fb200000040000000400000004000d3
:101ca0000000400000004000000040008101700082
:101cb0000200780062eab7004810de0063eab7006d
:101cc0000300780064eab7004818de0065eab70050
:101cd000000006000c0ba90010002000f056880040
:101ce00000000600f05680000000cf000000e90070
:101cf0004f00de0000000600405880005158800070
:101d0000f229020000000000c629020000000000c5
:101d10006101b80042588800535888000100200033
:101d200000000600881f7800e42202000000000086
:101d30006100600000004000000040000000400022
:101d400000004000615880000140a10080807000c8
:101d5000615888004408de00614160004208de00ee
:101d600061406000804f510051003200610061000d
:101d700000004000000040000120a10080807000b1
:101d8000615888007080600047003a000c2ba90061
:101d9000f056880021a72000914078008180fb0048
:101da00073cabf004200dd00c03fb2000000400027
:101db0000000400000004000000040000000400023
:101dc000000040000101700041a720009140780010
:101dd0008180fb0075cabf004200dd00c03fb20039
:101de00000004000000040000000400000004000f3
:101df00000004000000040008101700002007800f7
:101e00005eeab7004810de005feab7000300780022
:101e100060eab7004818de0061eab70061a7200059
:101e2000914078008180fb0077cabf004200dd004e
:101e3000c03fb20000004000000040000000400031
:101e40000000400000004000000040000101700060
:101e500081a72000914078008180fb0079cabf00f3
:101e60004200dd00c03fb200000040000000400022
:101e70000000400000004000000040000000400062
:101e8000810170000200780062eab7004810de00ad
:101e900063eab7000300780064eab7004818de0080
:101ea00065eab7000200370010002000f0568800f5
:101eb0000040eb0016130200000000000000e000ec
:101ec000040032000c2ba900de2aef000caba800a6
:101ed00008003700605880000058a300040032005a
:101ee0000048a3000200320010002000f0568800d5
:101ef0000caba9000c0bab00020032000c2ba900ac
:101f0000de2aef00f0568000010020006100500042
:101f1000e0805800ea0f5000e08f580073013e0047
:101f2000006001000a0037007a003700ab0037007c
:101f3000ed003700ec003700eb00370026013700da
:101f4000310137003d013700490137004a013700b0
:101f5000b2a82000124178000281fb00030020009b
:101f60008ccabf000080fb00010020000000400080
:101f7000818048000000400081804800000040004f
:101f8000818048000000400081804800000040003f
:101f9000818048000000400081804800000040002f
:101fa000818048000000400081804800020140001c
:101fb000838148008dcabf008080fb0000002000a4
:101fc00002014000838148008ecabf000080fb00f0
:101fd0000100200000004000818048000000400017
:101fe00081804800000040008180480000004000df
:101ff00081804800000040008180480000004000cf
:1020000081804800000040008180480000004000be
:1020100081804800000040008180480000004000ae
:10202000818048000000400081804800000040009e
:10203000818048000000400081804800000040008e
:10204000818048000000400081804800000040007e
:10205000818048000000400081804800000040006e
:10206000818048000000400081804800000040005e
:10207000818048000000400081804800000040004e
:10208000818048000000400081804800000040003e
:102090008180480002014000838148008fcabf0050
:1020a0000080fb0001002000020140008381480005
:1020b00090cabf000080fb0001002000000040002b
:1020c00081804800000040008180480000004000fe
:1020d00081804800000040008180480000004000ee
:1020e00081804800000040008180480000004000de
:1020f00081804800000040008180480002004000cc
:1021000083804800405888005158880020002000f3
:10211000f056880060588000680460001b003a0098
:102120000c6ba8000004fd0062eab70063eab70088
:1021300064eab70065eab7000004fd0008407800d3
:10214000edfe070003ebb70008407800eafe070049
:10215000e20f20000300200018040200000000002d
:102160000040e80002ebb70090ea2f00005888001a
:1021700000b02000440b020000000000244b0200cd
:10218000000000002057880031578800a1af2000d0
:1021900000b0200096090200000000000000e000ee
:1021a0000c003a00244b020000000000225780007f
:1021b00033578000020050008380580042422f00b5
:1021c000820f5000e08f5800c80036003000200019
:1021d000c50037000c6ba900c40037000c6ba900c8
:1021e0000c2ba8001100200071578800faeaef00bc
:1021f000fbeaef00fceaef00fdeaef00feeaef0089
:10220000ffeaef00025880001358800002007800b7
:102210005eeab7004810de005feab700030078000e
:1022200060eab7004818de0061eab70062eaef0032
:1022300063eaef00646aef00656aef0004af200014
:10224000b0a8200005000900305a780041578800e6
:10225000008020005057880060c0b300eceab7004f
:1022600040c0b300edeab700b2578800c3578800fa
:1022700080ae20009c0a020000000000c629020077
:102280000000000042012000110009000280d80077
:1022900044422f00050020006033b80001007800a0
:1022a0000100200002002000030020001e040200a4
:1022b0000000000044012000050020006033b80049
:1022c0008205020000000000205888003158880074
:1022d000244b02000000000020578800315788007e
:1022e0004000200080003700244b02000000000066
:1022f000225780003357800002005000838058002e
:102300002258800033588000820f5000838f58007d
:1023100076003600244b02000000000020578800a1
:1023200031578800c6290200000000004201200049
:10233000110009000280d80044422f00050020004f
:102340006033b80001007800010020000200200086
:10235000030020001e0402000000000044012000d1
:10236000050020006033b800820502000000000074
:1023700044422f00050020000000420081804a00f6
:10238000205888003158880086280200000000008c
:102390000000e000fcff3200f0ac20001426020038
:1023a00000000000c201200061c0b300a0af200007
:1023b0004e21020000000000c101200080ae20007c
:1023c000fa1f020000000000522602000000000078
:1023d000de2aec0045003700244b0200000000001c
:1023e000225780003357800002005000838058003d
:1023f0002258800033588000820f5000838f58008d
:102400003a00360037003700244b0200000000007d
:10241000205788003157880090cab3005eeab700a1
:10242000e0cfb3005feab70010c0b30060eab700c6
:1024300061eab700900020002b003700244b020017
:102440000000000022578000335780000200500037
:10245000838058000287230093032000820f5000de
:10246000838f580021003600200020001e00370016
:102470000c2ba9001d003700200020007057880099
:10248000100020004057880000802000505788002e
:1024900080ae20009c0a0200000000008628020096
:1024a000000000000000e000fcff3200f0ac200063
:1024b0001426020000000000c201200061c0b30029
:1024c000a0af20004e21020000000000c10120004a
:1024d00080ae2000fa1f0200000000005226020019
:1024e00000000000a0002000f05688004f04780093
:1024f000000006000400fa0000004000818048004f
:1025000000004000818048000000400081804800b9
:102510000000400081804800e0bf9f00f1bf9f00a5
:102520006fb89700ffb8970061005000e080580036
:10253000e0bf9f00f1bf9f006fb89700ffb8970002
:10254000e10f4000e08f4800f5ff3a000080fa00fc
:1025500000000600889fbe008a1f78008004780073
:10256000060037009001200001002000e1ff070075
:102570000844e900e14f4400faff3a008904e90009
:10258000e18f44000200320048c0b300f8ff37007a
:102590004f0578004f04be0000000600080ce20062
:1025a00003003a0010002000406088003aebef0082
:1025b0003acbbf00e14f4000030032005a4c02000a
:1025c000000000003aebef0010002000e059880006
:1025d0003e6bef003e8ba8003e2ba80000000600db
:1025e0003acbbf00e14f4000030032005a4c0200da
:1025f000000000003aebef003c2bef00000006006b
:102600003c0be20003003a0010002000e059880073
:102610003e0ba90000000600e05980000000e00029
:10262000010032001000200000000600f059800078
:102630006100600000000600f05980006200600048
:10264000020032003e2ba90010002000000006000e
:10265000f05980004300de006100600000000600c9
:102660000800fa00889fbe000044eb00d8f79f00e6
:102670006a8057008e4e0200000000006ff0970045
:10268000e24f5000e6003a00c0012000e84c020092
:102690000000000088447800b8a820006a80570035
:1026a0008e4e0200000000006ff09700984f50001f
:1026b000f2003a008944e8000804e800e6cf54003c
:1026c000f6ff3a003e4bab0008003a000001200044
:1026d000e84c02000000000041002000c0b42000cf
:1026e000b64e020000000000600ba800000f2000a2
:1026f000e84c0200000000006a84570008007800df
:102700008e4e0200000000000000e000c400320015
:10271000eff0970030c3b30080cf50008e0032003e
:1027200007003e00e3cf500031003200e6cf5000fa
:1027300050003200e1cf5000ae003a0017003700e1
:1027400060c3b30080cf500070003200e1cf400082
:10275000b30032000040e90080cf5000a5003a00ed
:10276000080078008e4e0200000000006ff0970015
:10277000e14f5000c1003a006b8057008e4e0200be
:10278000000000003e4bab00dbff32005ff0970023
:10279000e24f5000d8ff3a00b80037000800780038
:1027a0008e4e0200000000006ff09700e44f5000d2
:1027b000b2003a003e4bab00070032000044780004
:1027c0006a8057008e4e0200000000000844e900b5
:1027d000c9ff3200faff37004100200040b5200059
:1027e000b64e020000000000604ba800c2ff370098
:1027f0006c8057008e4e0200000000004ff09700e2
:10280000e34f50009d0036003e4bab000700320006
:1028100048c0b3006a8057008e4e020000000000de
:102820000844e90006003200faff370041002000aa
:1028300000b52000b64e020000000000602ba8008a
:10284000cff09700e4c05000c1f79f0003003700ad
:102850006a8057008e4e0200000000004ff2970081
:102860000440e900c0f79f00e14f4000f8ff3a0044
:10287000a1ff37006c8057008e4e02000000000060
:102880004ff09700e34f50007c0036003e4bab000a
:1028900018003a004100200080b52000b64e02002a
:1028a00000000000606ba800cff0970064c05000eb
:1028b000c0f79f00e34f50000e0036003e4bab00c8
:1028c0000c003a0041002000c0b52000b64e0200c6
:1028d00000000000608ba8004ff297006442520095
:1028e000c4f79f00030037006a8057008e4e020035
:1028f00000000000cff097000140e900c0f79f0002
:10290000e14f4000f8ff3a007bff370008007800f5
:102910008e4e0200000000006ff09700e44f500060
:1029200056003a00658057008e4e020000000000fd
:10293000668057008e4e020000000000678057003e
:102940008e4e020000000000688057008e4e02008c
:102950000000000068ff3700080078008e4e02007b
:10296000000000006ff09700e44f500043003a0071
:102970003e4bab00080032000044eb006a80570079
:102980008e4e0200000000000844e800e44f5400ae
:1029900059ff3200f9ff370070b420008e4e02005c
:1029a0000000000060b420008e4e02000000000015
:1029b00050b420008e4e02000000000040b4200001
:1029c0008e4e020000000000205a8000315a800024
:1029d000c509de004b0add004501de000201720080
:1029e0000200500083805800205a8800315a880025
:1029f00041ff37006c805700010037006a805700a4
:102a00008e4e020000000000cff097000140e90068
:102a1000c0f79f00e14f4000f8ff3a0036ff370053
:102a20005ff09700e24f500006003a004fb8970061
:102a3000dfb89700405a8800515a88003e4ba800e2
:102a400009003700425a8000535a80004fb897005f
:102a5000dfb89700800f5100818f590002003200cb
:102a60000040eb00d0f79f00e24e020000000000a3
:102a70005ff097000080fb0003003700e24e020089
:102a8000000000000000eb004f04be000080fa00d0
:102a900000000600889fbe008a1f780080447800ee
:102aa0000105780010c0b300224d020000000000b4
:102ab00010c0b300224d02000000000060c0b3004f
:102ac000224d0200000000000040eb00224d0200f9
:102ad0000000000020c1b300224d020000000000f1
:102ae00030c2b300224d02000000000040c3b3001a
:102af000224d02000000000060c5b300224d02001c
:102b0000000000000040eb00224d02000000000029
:102b10000040eb00224d0200000000000040eb00ee
:102b20003e8bab0001003a0000c8b300224d02000a
:102b3000000000000040eb00224d020000000000f9
:102b4000e3cf540007003a000a00e000050032001d
:102b500041002000c0b42000484d020000000000e9
:102b60000c0037000040eb00224d02000000000086
:102b70000040eb00224d0200000000000040eb008e
:102b8000224d0200000000000040eb00224d020038
:102b9000000000000044eb000040eb00224d02006a
:102ba000000000000844e800ec4f5400faff3a002f
:102bb00061002000b0a82000484d02000000000085
:102bc000a8ccb3000040eb00224d02000000000042
:102bd0000844e900fbff3a0030c6b300224d020072
:102be0000000000020c8b300224d020000000000d9
:102bf00030c5b300224d02000000000030c6b30013
:102c0000224d02000000000050c3b300224d02001c
:102c10000000000010c0b300224d020000000000c0
:102c200009407800224d020000000000e1cf54006e
:102c300002003a003e4ba90016003700e3cf5400d3
:102c400014003a000a00e00012003a0060c3b3002a
:102c5000224d02000000000040c0b300224d0200df
:102c6000000000004bcbbf00224d0200000000001e
:102c70004acbbf00224d02000000000049cbbf003c
:102c8000224d02000000000048cbbf00224d020090
:102c90000000000070c3b300224d020000000000dd
:102ca00040c0b300224d02000000000010c0b3007d
:102cb000224d02000000000030c0b300224d02008f
:102cc0000000000060c0b300224d020000000000c0
:102cd000c0c0b300224d020000000000e3cf54004a
:102ce00003003a000a00e00008003200110037003b
:102cf000e1cf54000f003a00605a8000715a800002
:102d0000e00f5000e08f58000a00320020c3b300eb
:102d1000224d02000000000040c0b300224d02001e
:102d20000000000041002000c0b42000484d020017
:102d30000000000000c0eb00010037000040eb0085
:102d4000224d020000000000f14c8000b012200073
:102d5000808f5000f9ff3600e1a5200091407800f7
:102d60008180fb005fcabf004200dd00c03fb200af
:102d70000000400000004000000040000000400053
:102d800000004000000040000104700001a6200087
:102d9000914078008180fb0061cabf004200dd00e5
:102da000c03fb200000040000000400000004000b2
:102db000000040000000400000004000810470005e
:102dc0000a00e00006003a000005fd005eeab700d8
:102dd0005feab70060eab70061eab7000005fd00ee
:102de0008a4d020000000000080078005eeab7008b
:102df0004840de005feab7000900780060eab700eb
:102e00004848de0061eab7004f0578004f04be0075
:102e100000000600e0598000010020006100500021
:102e2000e0805800eb0f5000e08f58002e013e006c
:102e3000006001000b00370014003700400037002d
:102e40004b00370062003700c7003700ea00370048
:102e5000f9003700e8003700f7003700e6003700d8
:102e6000f5003700320420008000eb004004200011
:102e7000764c0200000000003aebb700e14f400042
:102e80001901320020002000e0598800c003200012
:102e9000205a8800462bef00606bef003e0ba90024
:102ea0003e4ba900e4220200000000000000e00008
:102eb0000d0132003acbbf00f84c020000000000c8
:102ec000b1122000810f500007013600f159800037
:102ed0004408de000080ea0061006000000040005d
:102ee0000000400000004000000040000140a10040
:102ef00080807000f15988003acbbf00e2c0b30077
:102f00000440bc00209a200000004100a2002000e4
:102f1000f10f200080020200000000008000eb00a2
:102f200010c0b300dbfe0700244b020000000000cd
:102f3000005a8800115a880030002000d400370061
:102f40003acbbf006e4e020000000000910f20003f
:102f5000810f5000240036003e6ba800c0fd070022
:102f6000e24f5000e0003a0040002000e0598800a5
:102f70003acbbf00f84c0200000000001110200006
:102f8000810f5000d80036003acbbf00e2c0b3003a
:102f90000440bc00209a200000004100a200200054
:102fa0008180e90080020200000000008000eb0048
:102fb00030c0b300b7fe0700244b02000000000041
:102fc000005a8800115a880050002000b0003700d5
:102fd0003acbbf006e4e020000000000910f2000af
:102fe000810f50000c003e00244b02000000000046
:102ff000025a8000135a800002005000838058005b
:1030000072842e0013002000820f5000838f58001e
:10301000b50036009d00370091fd0700e54f5000d8
:1030200003003200e64f5000af003a00970037002f
:103030003acbbf005a4c0200000000003aebef0010
:10304000244b020000000000005a8800115a88003a
:1030500060002000e05988003e2ba8003e0ba8002d
:10306000035b80000308a3000a003200605a80005e
:10307000715a80005eeab7004801de000200780065
:103080005feab7000100780060eab7004808de0098
:1030900061eab7000328a3000a003200a05a8000aa
:1030a000b15a800062eab7004801de0002007800f1
:1030b00063eab7000100780064eab7004808de0060
:1030c00065eab7000318a3000a003200805a8000a6
:1030d000915a800066eab7004801de0002007800dd
:1030e00067eab7000100780068eab7004808de0028
:1030f00069eab7000338a3000a003200c05a800012
:10310000d15a80006aeab7004801de000200780068
:103110006beab700010078006ceab7004808de00ef
:103120006deab7006e6aef006f6aef00706aef0039
:10313000716aef000348a3006b003200e05a800080
:10314000f15a80006eeab7004801de000200780004
:103150006feab7000100780070eab7004808de00a7
:1031600071eab70000000600244b020000000000d6
:10317000045a8000155a80000400500085805800d1
:1031800032422f00820f5000e08f58005600360068
:10319000225a8000335a8000e10f5100e08f59001d
:1031a0000b00360040422f000100200004004000c8
:1031b00085804800005a8800115a8800610151003a
:1031c000e0815900225a8800335a88000000060026
:1031d000320420008000eb0040042000764c020006
:1031e000000000003aebb700e14f40003e00320023
:1031f00070002000e05988003acbbf00f84c020074
:103200000000000011102000810f50003600360031
:103210001100200030c0b3001efe07003e4ba90085
:10322000244b020000000000005a8800115a880058
:103230003c2bec00000006003acbbf006e4e0200b3
:1032400000000000910f2000810f500012003e008e
:10325000244b020000000000025a8000135a800034
:10326000020050008380580072842e00130020005a
:10327000820f5000838f58001b0036003c0bec007f
:10328000e0598800ec0f50001700360020002000a5
:10329000e059880000000600f1fc0700e54f5000ef
:1032a00003003200e64f50000f003a000c003700d8
:1032b0003acbbf005a4c0200000000003aebef008e
:1032c000244b020000000000005a8800115a8800b8
:1032d00060002000e05988003e2ba8000000060096
:1032e00020002000e0598800000006000000eb00ec
:1032f0009e0bab0002003a009e0ba80010002000bd
:1033000000000600f4cbbf00e14f40000300320094
:103310005a4c020000000000f4ebef0070002000a7
:10332000b05f88009e0ba9009ecbbf000000d100bb
:103330006100600000000600889fbe000004780065
:103340008144780061ba2000c22a02000000000017
:103350000000e000040032009e2ba8007000200056
:10336000b05f880006003700a85d8800905d880087
:10337000b05f880009007800b0ebb7009e2ba90071
:103380004f04be0000000600889fbe008a9fbe005a
:103390008c1f78008005780000057800bb44780019
:1033a0000904e0000c003200e0c2b30080cf5400fa
:1033b000090032000040e80080cf540006003200cf
:1033c0006340500080cf5400030032007240400040
:1033d00080cf5400f1ff3a000ac455000844e900c8
:1033e00008407800224d0200000000008880fb00a9
:1033f0000a007800484d020000000000000045006f
:103400000005e8000904e00009003200f0c2b30042
:1034100080cf5400060032006340500080cf54003b
:10342000030032007240400080cf5400dbff3a00be
:103430000040eb00224d0200000000004f06780023
:103440004f05be004f04be00000006000200fa0057
:103450000f80e9008e4e0200000000000000e00036
:10346000120032006ff9970082007800010cb20060
:10347000000c2000808f500004003a000f80e9000b
:103480008e4e020000000000080037006ff8970021
:103490000004e000050032008280fb000000eb0029
:1034a000b64e020000000000e9ff37000080fa007d
:1034b000000006001a00fa00889fbe008a9fbe0026
:1034c00080057800b05f8000e30f500054003200a8
:1034d00004003e00e10f50000c00320015003e00d9
:1034e00008003700e50f50009a00320056003900fe
:1034f000e60f5000d0013200e70f500045023a00bd
:10350000aa013700a06bef009f6bef00a0a6200080
:10351000440b020000000000a06bec00244b0200f2
:1035200000000000105d8800215d88002000200060
:1035300037023700a1ba2000a0a620009609020099
:10354000000000000000e00011003a00244b0200df
:1035500000000000125d8000235d8000020050002a
:103560008380580042422f00820f5000e08f5800a5
:103570002802360061002000a0cbbf00e24f5000bf
:1035800001003e0011002000b15f880021023700d9
:10359000a1a62000914078008180fb006bcabf008b
:1035a0004200dd00c03fb2000000400000004000cb
:1035b000000040000000400000004000000040000b
:1035c00001017000c1a62000914078008180fb00bd
:1035d0006dcabf004200dd00c03fb20000004000e5
:1035e00000004000000040000000400000004000db
:1035f000000040008101700002007800a6ebb700d7
:103600004810de00a7ebb70003007800a8ebb70076
:103610004818de00a9ebb70030002000b05f88003a
:103620005203200061ba20000000eb00764c02003b
:1036300000000000f4ebb700e14f4000f50132005c
:1036400040002000b05f8800f4cbbf00f84c0200bf
:10365000000000000000e000ee0132000a2cec0047
:103660000bccbf00224d0200000000000accbf00be
:10367000224d02000000000010c0b300224d0200e5
:10368000000000000040eb00224d0200000000009e
:103690000040eb00224d02000000000010c0b3000b
:1036a000224d0200000000000040eb00224d02000d
:1036b000000000000040eb00224d0200000000006e
:1036c0000040eb00224d0200000000000040eb0033
:1036d000224d0200000000000040eb00224d0200dd
:1036e000000000000040eb00224d0200000000003e
:1036f000a05d80000000e00001003a00905d8000c5
:1037000021ff07000040eb00224d020000000000f6
:10371000b0cbbf00224d0200000000000040eb00d3
:10372000224d02000000000010c0b300224d020034
:10373000000000008a4d020000000000244b02003f
:1037400000000000105d8800215d8800500020000e
:10375000af013700f4cbbf006e4e02000000000046
:10376000000478000000e0000e003a00244b020044
:1037700000000000125d8000235d80000200500008
:103780008380580042422f00820f5000e08f580083
:10379000a001360060002000b05f880008007800bb
:1037a0009d01370074845700738057008e4e0200cd
:1037b00000000000080078008e4e020000000000ab
:1037c00050608000980f100003003200e24e0200ab
:1037d000000000008f013700718057008e4e0200fc
:1037e00000000000728057008e4e020000000000b2
:1037f0006f8057008e4e020000000000708057005e
:103800008e4e0200000000006d8057008e4e0200b8
:10381000000000006e8057008e4e02000000000085
:103820006b8057008e4e0200000000006c80570035
:103830008e4e020000000000698057008e4e02008c
:10384000000000006a8057000e003700fffe0700ee
:1038500000fe2f008f0440007f845700080078008e
:103860008e4e020000000000090078008e4e02001b
:1038700000000000080078008e4e020000000000ea
:10388000090078008e4e0200000000000fb897007b
:103890000000e90080bf9f00e10f4000ebff3a000d
:1038a00034003700e9fe07007e8457007d80570012
:1038b0008e4e020000000000080078008e4e0200cc
:1038c000000000007b8057008e4e020000000000c8
:1038d0007c8557000a0078008e4e02000000000030
:1038e000778057008e4e020000000000788057005d
:1038f0008e4e020000000000798057008e4e0200bc
:1039000000000000640044008e4e02000000000031
:10391000758057008e4e020000000000f6845700ac
:10392000090078008e4e0200000000001200200006
:10393000980f11000a003a009a0f110008003a008f
:1039400040002000990f100005003a007300370076
:10395000e0fd2f000f0040008e4e0200000000002e
:103960005fb097000000e900d0b79f00e10f400072
:10397000f7ff3a001fb897000000e90090bf9f00d2
:10398000e10f4000c7ff3a0034003700affe0700e8
:103990007e8457007d8057008e4e0200000000009c
:1039a000080078008e4e0200000000007b80570067
:1039b0008e4e0200000000007c8557000a0078004f
:1039c0008e4e020000000000778057008e4e0200ed
:1039d00000000000788057008e4e020000000000ba
:1039e000798057008e4e0200000000006400440001
:1039f0008e4e020000000000758057008e4e0200bf
:103a000000000000f6845700090078008e4e020086
:103a10000000000012002000980f11000a003a0078
:103a20009a0f110008003a0040002000990f100082
:103a300005003a0039003700e0fd2f000f0040007c
:103a40008e4e0200000000005fb097000000e90009
:103a5000d0b79f00e10f4000f7ff3a002fb8970062
:103a60000000e900a0bf9f00e10f4000c7ff3a003f
:103a70004100370075fe07007e8457007d805700a7
:103a80008e4e020000000000080078008e4e0200fa
:103a9000000000007b8057008e4e020000000000f6
:103aa0007c8557000a0078008e4e0200000000005e
:103ab000778057008e4e020000000000788057008b
:103ac0008e4e020000000000798057008e4e0200ea
:103ad00000000000640044008e4e02000000000060
:103ae000758057008e4e020000000000f6845700db
:103af000090078008e4e0200000000001200200035
:103b0000980f110017003a009a0f110015003a00a3
:103b100040002000990f100012003a009e2ba800d0
:103b200060ba20008e4e02000000000070ba200033
:103b30008e4e02000000000080ba20008e4e02006f
:103b40000000000090ba20008e4e0200000000002d
:103b50000e003700e0fd2f000f0040008e4e0200e7
:103b6000000000005fb097000000e900d0b79f00a0
:103b7000e10f4000f7ff3a003fb897000000e9006e
:103b8000b0bf9f00e10f4000baff3a00e24e0200d2
:103b900000000000f4cbbf005a4c020000000000ff
:103ba000f4ebef0070002000b05f88009ecbbf00f8
:103bb0006240600004003a00a6ebb700a7ebb70034
:103bc000a8ebb700a9ebb70061ba200091407800dc
:103bd0008180fb00a7cbbf004200dd00c03fb200e8
:103be00000004000000040000000400000004000d5
:103bf00000004000000040000101700081ba200078
:103c0000914078008180fb00a9cbbf004200dd001d
:103c1000c03fb20000004000000040000000400033
:103c200000004000000040000000400081017000e2
:103c3000828dbe00050037009fcbbf00e14f5000d2
:103c400004003600800deb00bb157800100020004a
:103c5000710037000040e8009febb700e1a62000ac
:103c6000914078008180fb006fcabf004200dd00f8
:103c7000c03fb200000040000000400000004000d3
:103c8000000040000000400000004000810470007f
:103c90000901780001a72000914078008180fb0095
:103ca00071cabf004200dd00c03fb200000040000a
:103cb0000000400000004000000040000000400004
:103cc000000040000104700088017800e00f5100fe
:103cd000e08f59004f003200a1a6200091407800eb
:103ce0008180fb006bcabf004200dd00c03fb20014
:103cf00000004000000040000000400000004000c4
:103d0000000040000000400001037000c1a6200038
:103d1000914078008180fb006dcabf004200dd0049
:103d2000c03fb20000004000000040000000400022
:103d300000004000000040000000400081037000cf
:103d400002036b0083836b0009027800880278000d
:103d500006026a0087826a00040078006eeab700f3
:103d60004820de006feab7000500780070eab7006f
:103d70004828de0071eab7008680fb004630de008e
:103d8000c03fb200000040000000400000004000c2
:103d900000004000000040000000400001017000f1
:103da0008780fb004638de00c03fb20000004000c4
:103db0000000400000004000000040000000400003
:103dc00000004000810170000401690085816900e4
:103dd000020078006aeab7004810de006beab7001c
:103de000030078006ceab7004818de006deab700ff
:103df000a06bef00f4cbbf00e14f400003003200a6
:103e00005a4c020000000000f4ebef00100020000c
:103e1000b05f88000000eb004f05be004f04be00fd
:103e20000080fa0000000600d7c2a90041e2a90004
:103e30004342a80041e2a80000a0230040128800ed
:103e400040c2bf000018a300fdff3a0040c2bf00ff
:103e50000008a300faff320041e2a9004342a90092
:103e600041e2a80040128000d7c2a8000080fb00f9
:103e7000000006000200fa0000017800d7c2a90085
:103e8000a0032000401288000200e0000100320080
:103e90000201e90040c2bf000018a300fdff3a0084
:103ea00040c2bf000008a300faff320040128000a9
:103eb000e0ff9f000002eb00e18f50003000360071
:103ec00041e2a9004342a80041e2a8004822ef00d5
:103ed0000482e80040c2bf000018a300fdff3a00c2
:103ee00040c2bf000008a300faff32004312800066
:103ef0000200e000040032004818de001041980083
:103f00000281e8000349780004805000e10f50006e
:103f1000eeff3e0041e2a9004342a90041e2a800b1
:103f2000170037004822ef000402e8000200e0001a
:103f30000a0032000201e80040c2bf000018a300de
:103f4000fdff3a0040c2bf000008a300faff3200a4
:103f500040128000004978000900370040c2bf00cd
:103f60000018a300fdff3a0040c2bf000008a300f4
:103f7000faff320040128000e0ff9f000001eb00da
:103f8000810f5200e7ff3900d7c2a8000400780073
:103f90000080fa00000006000200fa00d7c2a90063
:103fa00041e2a9004342a80041e2a8000080fb00d2
:103fb00001a02700010070004012880040c2bf002d
:103fc0000018a300fdff3a0040c2bf000008a30094
:103fd000faff320041e2a9004342a90041e2a800f1
:103fe00040128000e0ff9f00d7c2a8000080fa00c6
:103ff000000006000200fa008001780081027800cb
:10400000d7c2a900a00720004012880040c2bf000c
:104010000018a300fdff3a0040c2bf000008a30043
:10402000faff320040128000e0ff9f00e18f520053
:1040300003003e0003027800850078004a00370044
:104040001380fb0000004000000040000000400022
:104050000000400000004000000040000000400060
:1040600000004000f20fb200000171001340900008
:104070000080fb0001f02f000101610000017100d0
:104080000382e80041e2a9004342a80041e2a800ff
:10409000e3814100421288008582e900e18f5200ed
:1040a0001a0036001480fb000000400000004000b1
:1040b0000000400000004000000040000000400000
:1040c0000000400000004000f20fb200000171004b
:1040d0009380fb0000f02f000001610001017100de
:1040e0000482e80040c2bf000018a300fdff3a00b0
:1040f00040c2bf000008a300faff32004012800057
:10410000e0ff9f008381e800e2ff370040c2bf006c
:104110000018a300fdff3a0040c2bf000008a30042
:10412000faff320040128000e0ff9f0041e2a90048
:104130004342a90041e2a800bfff37003480fb00e2
:10414000401288008100e90040c2bf000018a300af
:10415000fdff3a0040c2bf000008a300faff320092
:1041600040128000e0ff9f000100e000f3ff3a00f2
:10417000d7c2a8000080fa0000000600d7c2a9003c
:104180000080fb004012880040c2bf000018a3005e
:10419000fdff3a0040c2bf000008a300faff320052
:1041a000401280004822ef0040c2bf000018a30068
:1041b000fdff3a0040c2bf000008a300faff320032
:1041c000401280004822ef0040c2bf000018a30048
:1041d000fdff3a0040c2bf000008a300faff320012
:1041e00040128000d7c2a800000006000200fa00ba
:1041f000d7c2a9000064a0000080fb004012880024
:1042000040c2bf000018a300fdff3a0040c2bf003b
:104210000008a300faff320040128000e0ff9f0078
:104220000180fb004012880040c2bf000018a300bc
:10423000fdff3a0040c2bf000008a300faff3200b1
:1042400040128000e0ff9f00d7c2a8000080fa0063
:1042500000000600881f780080007800405f800022
:104260008080400074844000d0ac2000800f540057
:104270000200360060542f0000844000884078001f
:104280000040eb00d9ff0700c840de0010c0b300bb
:10429000d6ff07004f047800000006000200fa0075
:1042a000889fbe000004780081447800d2bf9f0040
:1042b000f1ccb30020c0b300ccff0700a1c0b30015
:1042c00030c0b300c9ff0700c0ad2000dfb89700c1
:1042d00080804000d1bf9f00aff8970060c0b3005e
:1042e000c2ff0700bff8970070c0b300bfff070010
:1042f00061002000080078003eff070061002000f8
:10430000b0a820003bff070080c0b30022ff0700d9
:1043100061c0b3000904e00001003a008940780060
:10432000014078001cff07004f04be000080fa0027
:10433000000006000200fa00d7c2a9000074a00025
:104340000080fb004012880040c2bf000018a3009c
:10435000fdff3a0040c2bf000008a300faff320090
:1043600040128000e0ff9f000180fb0040128800a7
:1043700040c2bf000018a300fdff3a0040c2bf00ca
:104380000008a300faff320040128000e0ff9f0007
:10439000d7c2a8000080fa0000000600881f78003d
:1043a000e60be20011003a0010002000305f8800a8
:1043b000585f80000804e900d0ac2000800f540052
:1043c000010036000004780001c4b300e0c1b3006e
:1043d000d8ff070088407800c0c0b30083ff070003
:1043e000c840de00d0c0b30080ff07004f04780053
:1043f000000006000200fa00d7c2a9000080fb00fe
:10440000000ab3004012880040c2bf000018a30099
:10441000fdff3a0040c2bf000008a300faff3200cf
:1044200040128000e0ff9f000180fb0040128800e6
:1044300040c2bf000018a300fdff3a0040c2bf0009
:104440000008a300faff320040128000e0ff9f0046
:10445000d7c2a8000080fa00000006000200fa009f
:10446000f0bf9f0031c0b300f0c1b300e1ff07000f
:10447000fff89700f0c1b300aeff07000080fa001c
:1044800000000600881f78000044780050312000aa
:10449000f2ff07008840780050c1b30053ff0700c7
:1044a0000000eb00edff07004f047800000006005d
:1044b0000200fa00881f780000447800e1bf9f00e6
:1044c00040212000e5ff07008840780040c1b3008c
:1044d00046ff0700cff8970060c1b30043ff070015
:1044e000dff8970070c1b30040ff0700a030200044
:1044f000daff0700a0c0b30020ff07000008a300f8
:10450000fcff3a000000eb00d4ff07004f047800e6
:104510000080fa0000000600881f78000044780040
:1045200040212000cdff07008840780040c1b30043
:104530002eff070011c0b30020c1b3002bff0700fe
:10454000a0302000c5ff0700a0c0b3000bff07008c
:1045500061446000fcff3a0040212000bfff0700db
:104560008840780020c1b30020ff070080c1b3005d
:1045700002ff07000080fb0001f02f00010464002f
:104580000004740090c1b300fcfe07004200dd008f
:10459000c03fb200000040000000400000004000aa
:1045a000000040000000400000004000f80fb20092
:1045b000000474000000eb00a8ff0700080078006a
:1045c0004f0478000000060010c0b300d2ff0700bf
:1045d0004200de006100600000000600d7c2a900b2
:1045e0000080fb004012880040c2bf000018a300fa
:1045f000fdff3a0040c2bf000008a300faff3200ee
:10460000401280004822ef0040c2bf000018a30003
:10461000fdff3a0040c2bf000008a300faff3200cd
:1046200040128000d7c2a80000000600881f780052
:104630005031200089ff070050c1b300e7ff070099
:10464000004478000000eb0084ff07000880fb00b6
:104650004f0478000000060001c2b300e0c1b300bf
:1046600064ff0700d0c1b300dcff07000008a3000f
:10467000fcff320041c0b300f0c1b3002dff370092
:1046800041c0b300f0c1b3005aff0700d0c1b3006e
:10469000d2ff07000028a300fcff3a00f0c1b300de
:1046a000ceff07000038a300fcff3a0001c2b300b0
:1046b000e0c1b3001fff3700f0c1b300c7ff070020
:1046c0000080fb004500de000000a20061006000e9
:1046d000000006000600fa00889fbe008a9fbe0008
:1046e0008c9fbe00f0b79f0081bf9f0092bf9f00cc
:1046f0008006eb00e10f400008003a0020c0b30044
:10470000b6ff07000080fb00f0b79f0030c0b30089
:10471000b2ff0700f0ef9f001d0020000006eb0035
:104720000fb89700e10f400008003a000040eb008e
:10473000aaff07000080fb0080bf9f0010c0b300ed
:10474000a6ff070090f79f001c0020009fbd970068
:10475000e18f55004b003e000c00e00012003a00d3
:104760000c4078009dff07000080fb0001f02f0047
:10477000818464008084740010c0b30097ff070038
:104780004200dd00c03fb2000000400000004000d9
:104790000000400000004000000040000000400019
:1047a000f90fb200808474000d00e00012003a009e
:1047b00020c0b30089ff07000080fb0001f02f003c
:1047c000010565000005750030c0b30083ff0700d8
:1047d0004200dd00c03fb200000040000000400089
:1047e00000004000000040000000400000004000c9
:1047f000fa0fb200000575008ff097000040eb0043
:104800007afe07009ff0970010c0b30077fe070004
:10481000efe8970020c0b30074fe0700ffe89700a0
:1048200030c0b30071fe07000b04780002003700af
:104830007dfd0700d8fd07000804e900e10f4400f2
:10484000fbff3a000c00e00006003a0089407800c7
:104850000c40780065fe0700c848de0010c0b300b9
:1048600062fe07000d00e0004d003a008a4078002b
:1048700020c0b3005dfe0700c850de0030c0b300aa
:10488000460037000d00e000090032007fb09700bd
:104890000b0440008840780020c0b30053fe07009e
:1048a0004844de008840780030c0b3004ffe070067
:1048b0000fbc9700088545008a04e90099bf9f0056
:1048c000f0c1b30045ff07000058a300fcff3a0009
:1048d0008ff0970000c1b30044fe07009ff09700df
:1048e00010c1b30041fe0700efe8970040c1b300dc
:1048f0003efe0700ffe8970050c1b3003bfe0700f3
:10490000d0ac2000800f540005003e00808f540082
:104910000300360010532f000000450090bf9f0099
:104920006e8557009a40780020c1b3002ffe070023
:10493000ed8457009940780030c1b3002bfe07008a
:1049400001c1b300f0c1b300aafe070001c2b30069
:10495000f0c1b30077fe07000c00e0001000320049
:104960001fb997008200e80091bf9f00d0ac2000e3
:10497000800f540004003e00808f5000020036007b
:104980000000510090bf9f009a4078000040eb006b
:1049900016fe07009940780010c0b30013fe070010
:1049a0004f06be004f05be004f04be000080fa0057
:1049b00000000600f8874700889fbe008a9fbe005f
:1049c0008c9fbe008e1f7800800578000040eb00b1
:1049d00002ff07000080fb0001f02f0001056500c9
:1049e0000005750010c0b300fcfe0700004778000a
:1049f0004270dd00c03fb2000000400000004000f7
:104a000000004000000040000000400000004000a6
:104a1000fa0fb200000575006066b8001d0037008f
:104a20000b007800f48f5500010036004001200093
:104a3000c8fd2f000f044400001c7800efa8970069
:104a4000080078000bfd0700efa89700818555004e
:104a50000108a300050032000040eb0080707c00dc
:104a60006fa897000000e800e0af9f00efa8970054
:104a70000801780004003700320078000006460084
:104a8000e0864e008180e9000100e000faff3a0074
:104a9000e1af9f000b00e000e1ff3a000c04be0014
:104aa0008a4078000b407800d0fd07008e407800e7
:104ab00010c0b300cdfd07006148b8000c044000f1
:104ac000e0844800090444000880ea004f077800a9
:104ad0004f06be004f05be004f04be008f01b1005f
:104ae00000000600889fbe008a9fbe00000178007b
:104af00081057800405f80008000410074844000a0
:104b0000d0ac2000800f54000200360060542f000b
:104b1000008440000040eb00b0fe07000080fb0076
:104b200001f02f00010565000005750010c0b300fd
:104b3000aafe0700804478004248dd00c03fb20072
:104b40000000400000004000000040000000400065
:104b50000000400000004000fa0fb20000057500a0
:104b6000884078000040eb00a0fd0700c840de0050
:104b700010c0b3009dfd07000b0078008dff0700fb
:104b8000000478008a4078000040eb0097fd0700a1
:104b90008940780010c0b30094fd07000800780039
:104ba0004f05be004f04be00000006000200fa00e0
:104bb000881f7800e0bf9f000040eb0087fe0700e1
:104bc0000080fb0001f02f00010464000004740069
:104bd00010c0b30081fe07004200dd00c03fb200fc
:104be00000004000000040000000400000004000c5
:104bf00000004000000040000884fb000004740036
:104c0000cff897000040eb0078fd0700dff8970031
:104c100010c0b30075fd0700080078004f0478004d
:104c20000080fa00000006000200fa00881f7800e9
:104c3000e0bf9f0020c0b30068fe07000080fb00bb
:104c400001f02f00010464000004740030c0b300c0
:104c500062fe07004200dd00c03fb20000004000dd
:104c60000000400000004000000040000000400044
:104c7000000040000884fb0000047400cff8970097
:104c800020c0b30059fd0700dff8970030c0b30023
:104c900056fd0700080078004f0478000080fa00f5
:104ca000000006000800fa00889fbe008a9fbe0030
:104cb0008c9fbe0001c8b300f0c1b3009dfd07008a
:104cc00001c8b300f0c1b300cafd0700a1c0b30022
:104cd000c0c1b300c7fd070081c0b300f0c1b3007d
:104ce00094fd0700e4cbbf0065405000e14f500049
:104cf00071003e000004eb00c0c1b30037fe0700a6
:104d00006a00600004003a000804e800803e2000c9
:104d1000800f5400f8ff3a00c0c1b3002ffe070017
:104d20000018a30003003a00703e2000800f5400da
:104d30006100360081c0b300f0c1b300adfd0700d3
:104d40000040eb0025fe07000080fb0008f02f006c
:104d5000888464008084740010c0b3001ffe0700c4
:104d6000004678004260dd00c03fb2000000400015
:104d70000000400000004000000040000000400033
:104d800000004000f90fb2008084740060c0b300de
:104d900012fe07000080fb00080464000004740099
:104da00070c0b3000dfe07004200dd00c03fb2003e
:104db00000004000000040000000400000004000f3
:104dc0000000400000004000f80fb2000004740032
:104dd0000804e80088457800884078000040eb002f
:104de00002fd07004844de0008457800884078004e
:104df00010c0b300fdfc0700f486570081002000be
:104e00000d0078001bfc070008c1b300c0c1b3004f
:104e1000f2fd07000018a300210032007fb09700c8
:104e200000d8a3001e00320001c8b300f0c1b300d7
:104e300040fd070001c8b300f0c1b3006dfd0700dd
:104e4000a1c0b300c0c1b3006afd070081c0b300b8
:104e5000f0c1b30037fd0700c0c1b300dffd07009c
:104e60006a006000fcff320081c0b300f0c1b300f3
:104e700060fd07008b4078000040eb00dbfc070082
:104e80008a40780010c0b300d8fc070081002000e1
:104e90000d007800f7fb07000844e900dbff3a004b
:104ea000894078000040eb00d0fc07008c4078007f
:104eb00010c0b300cdfc07004f06be004f05be007a
:104ec0004f04be000080fa00000006001400fa0043
:104ed000889fbe008a1f7800000578008104780052
:104ee000901120005dfd070090c1b300bbfd0700dd
:104ef000004478000000eb0058fd07000000eb00c4
:104f00000804e0003b003200385f80000800e00049
:104f100003003a0021fd0700080078003500370043
:104f2000505f8000405f880081be20009140780083
:104f30000040eb00adfc070091be200091407800de
:104f400010c0b300a9fc0700410120007a8057007f
:104f5000c8fb07004fb89700fe2c020000000000bd
:104f6000c0bf9f00bfb19700d0ac2000808f510020
:104f70000d003e00efe0970061c060000a003a00bb
:104f80005fb19700000128000000610006003a00b0
:104f9000cfb09700e05e2000808f500002003e00fe
:104fa0000278a30001003a000000fe00535f880071
:104fb0006e80570005000900305d78006a00b1007e
:104fc0006000b10080cceb001ff89700e84f500064
:104fd00006003a000ff897000004e00002003200db
:104fe000e64f500001003a00804c7800e62bef00bd
:104ff000100020004f0578004f04be000080fa002a
:1050000000000600889fbe008a1f780090112000d3
:1050100012fd070090c1b30070fd07000044780046
:10502000e00020000dfd0700e0c0b3006bfd0700ad
:105030000080fb000af02f008a84640080847400e2
:10504000f0c0b30065fd07004200dd00c03fb200c4
:105050000000400000004000000040000000400050
:105060000000400000004000f90fb200808474008e
:1050700090112000f9fc070090c1b30057fd070014
:10508000884f5000e3ff3a00c0002000f3fc070007
:10509000c0c0b30051fd07000080fb000a0464009b
:1050a00000047400d0c0b3004cfd07004200dd00d6
:1050b000c03fb2000000400000004000000040007f
:1050c000000040000000400000004000f80fb20067
:1050d00000047400888f5400040036008880540057
:1050e000d0ac20000100500005003700d0ac2000fb
:1050f000888f540002003200090054000000e900cb
:105100004f0578004f04be0000000600f0c1b30058
:1051100032fd07000080fb004300de000000a2001b
:1051200061006000000006000200fa00889fbe00d7
:10513000d7c2a800d3c2a9004022ef00b0012000ce
:10514000101288004422ef004302a80042a2a800e7
:1051500041e2a80001c2b300e0c1b300a5fc070012
:1051600010002000aa12020000000000d7c2a9000f
:10517000f00f20004012880040c2bf000018a300ba
:10518000fdff3a0040c2bf000008a300faff320052
:1051900040128000a0ff9f00d7c2a800100020008e
:1051a000aa12020000000000d0c1b3000bfd0700ee
:1051b0000080fb000038a300e6ff3a000080ea0010
:1051c000e1046000e3ff3a0018002000385f880027
:1051d000595f88008940780080c0b30003fc070055
:1051e0008940780090c0b30000fc0700d1ccb30028
:1051f000c0c0b300fdfb0700a1c0b300d0c0b30026
:10520000fafb0700d1ccb300a0c0b300f7fb070046
:10521000a1c0b300b0c0b300f4fb0700e1ccb30001
:1052200040c0b300f1fb0700a1c0b30050c0b30001
:10523000eefb0700e1ccb30020c0b300ebfb07009e
:10524000a1c0b30030c0b300e8fb070009407800fc
:1052500051fb07000020200080fc0700d1c0b300f4
:1052600009407800e1fb070021c3b30020c0b30070
:10527000defb070021c1b30040c0b300dbfb070029
:1052800001c4b30030c0b300d8fb0700f1c3b300c2
:1052900090c0b300d5fb070021c1b30060c0b300cc
:1052a000d2fb0700c1c0b30070c0b300cffb070042
:1052b000e1ceb300a0c0b300ccfb070051c0b300e7
:1052c000b0c0b300c9fb07004030200063fc0700fa
:1052d000b1a820009140780040c0b300c3fb070094
:1052e000c1a820009140780050c0b300bffb070068
:1052f000d1a820009140780020c0b300bbfb07007c
:10530000e1a820009140780030c0b300b7fb07004f
:10531000f1a820009140780009407800b3fb070015
:1053200001a920009140780008407800affb0700f9
:105330008940780050c1b300acfb070020c1b30026
:10534000a6fc0700e4ebb7000110200000c1b30089
:1053500057fc07002147230040c1b30054fc07005d
:10536000890078000940780051fc070009007800a6
:105370003afc070041c0b300f0c1b300edfb0700e9
:105380004f04be000080fa0000000600c25f8000eb
:10539000d35f80000043eb008300d1000280d30084
:1053a000610161008001eb0060011100e0811900e2
:1053b0001400200005002d000401610085816100ba
:1053c00002016800838168000643e800ef4f530044
:1053d000f1ff3a00c25f8800d35f880002007800c6
:1053e00000000600881f78008a9fbe00ca5f800008
:1053f000db5f8000e00f5000e08f580002003a00b1
:105400001000200001002000c05f8800d15f8800ec
:1054100008c1b300ddff07000844e900fdff3a00c2
:105420000a00be004f05be004f04780000000600d1
:10543000ec874700889fbe008a9fbe008c9fbe00fd
:105440008e1f78000019800080bf9f001019800017
:10545000f0b79f0020198000e0b79f00200880006f
:10546000d0b79f0010088000c0b79f002023ef0036
:1054700000f0290020198800f0032000101988008e
:10548000400e28000019880000002800200888002d
:1054900002a1ef00bdff07006105b8000047eb0067
:1054a0006066b8008004eb000100370088047800d3
:1054b0000060fe0085c0bf000058a300fdff320061
:1054c000080880000021ef0085a0a900afff0700b9
:1054d0000001780008064600e0864e00f03f2200fa
:1054e000410f2000800f5600818f5e0005003600be
:1054f000a6ff070000056d00a4ff070080856d0072
:105500000e003700888f5400e9ff320008805400f5
:105510000000410001002000b2ff07000a0545001d
:105520008b854d0099ff07000078a3000100320031
:105530000a00a0000e47e800dcff3a002023ef003d
:105540006fb09700201988007fb09700101988006d
:105550000fb89700001988005fb0970020088800f6
:105560004fb09700100888000a00be004f0778006f
:105570004f06be004f05be004f04be00cf00b10075
:1055800000000600889fbe008004780001047800b7
:105590006033b8008041eb0083427800360037006a
:1055a000e3cf520038003e0000cdb30000c1400000
:1055b0000304e00019003200e3cf510003003a0079
:1055c000e24f41004b003a0002003700e24f410039
:1055d00012003a005050200021002000800f53009c
:1055e000818f5b0043003e000582fb000781fb00ca
:1055f000400620000091b9004830de006a00b90082
:10560000004141000641410002727c008542e800f1
:105610006033b8008041eb0017003700e94f5100bc
:1056200034003e008341e8000600430087804b00c1
:105630000000400081804800000040008180480058
:105640000000400081804800000040008180480048
:105650000000400081804800000040008180480038
:1056600000034000818348008280fb0000f02f008f
:105670000000630001037000b94078000104e000fd
:10568000c7ff3a000c003700f0c2b30080cf5000d3
:1056900009003200edcf500007003200eacf500081
:1056a000050032006f40500080cf500002003200f1
:1056b000e9cf50000f003a00505020002100200098
:1056c000800f5300818f5b000a003e000780fb00c3
:1056d000420620000280b9004831de006a11b9009c
:1056e0000240400006404000304498001000200076
:1056f000010037000000eb004f04be000000060070
:1057000080017800010278000000e00016003200fd
:105710008003eb000571220056c0b30011000900a0
:105720008581d8008000fd000100e00002003a0001
:105730000700e0000500320000c3b30000da4000bb
:105740000588b9008081510017002000a2002000c8
:10575000110009008282d800800278000643e90027
:1057600003003200edff370000c3b300005a780099
:10577000004aeb0000000600889fbe008a9fbe0022
:105780008c9fbe008e1f78000004be0002067800c9
:10579000e00f5000e08f58001e0032000007eb00c1
:1057a0000aa02c00abb92300adc0b3000a01be00b3
:1057b0000800be00aa06020000000000e00f500032
:1057c000e08f580002003a000e00e00008003200ae
:1057d00002c3b300025e40000a01be00ca06020016
:1057e000000000000004540081845c001e002000c2
:1057f000a2002000030020000a00be00aa0602004a
:10580000000000000005be008d46e90003003200e4
:10581000e6ff370000c3b300005e7800004eeb00e7
:105820004f0778004f06be004f05be004f04be0074
:105830000000060000017800c800de0063c4b30069
:1058400083cf50000c00360000ceb30000c04000f3
:105850004200dd00c03fb2000000400000004000f8
:105860000000400000004000000040000000400038
:10587000f20fb20000017100834f510006003600a4
:1058800000ceb300004041000080fb0001f02f007b
:105890000101610000017100c810de00f20fb200ca
:1058a00090c3b30080cf50000200360090ccb3000c
:1058b0000100370000cdb30000c040004200dd0011
:1058c000c03fb20000004000000040000000400067
:1058d0000000400000004000000040000001710096
:1058e0008240780090c3b300804f51000200360020
:1058f00090ccb3000100370000cdb30000c04000e1
:105900000080fb0001f02f00010161000001710027
:105910004610de00c03fb200000040000000400022
:10592000024070000080fb00000006000080fb00c9
:105930004400de00e94f5000030036007043b00021
:105940000080fb00000006000043b0000080fb0068
:10595000000006006f406000e94f50000300360071
:105960007043b0000080fb00000006000043b00060
:105970000080fb00000006000002780010003700e5
:10598000f5c9b30005c04100f94f500002003e00c8
:1059900000ceb30080c1410005404100f94f5000e6
:1059a00002003e0000ceb3000041410082cf510012
:1059b0000f003e000f0039000402e8008100e800fb
:1059c00094417800114178000304e00005003200a2
:1059d0000204e000eaff3a000304e00004003e0095
:1059e0000200370082cf510002003900000005009c
:1059f000100005000080eb000000060000017800a8
:105a0000c200dd00c13fb2008180400081804000c3
:105a10008180400081804000818040008180400082
:105a20000080fb00010070004811de0001f02f0033
:105a30000100600002007000000006000400fa008f
:105a4000e0bf9f00f1bf9f007ff897004ff99700dc
:105a50008040690001406800f0ff9f0000c06800be
:105a6000c0ff9f00eff897005ff8970001406800c3
:105a700080c06800e1ff9f0001406800d0ff9f00e8
:105a80006fb89700ffb897000080fa00000006008a
:105a90008101d10000037800030178006022b80082
:105aa000030037003600780000024200e0824a001e
:105ab0000201e900e10f4100faff3a000401be00d3
:105ac0000108a30005003200164078000080fb00aa
:105ad000010020000401400085814800028041004f
:105ae0000080ea0000000600800178008000780055
:105af00007003700f0c9b30000404100f94f5000e3
:105b000002003e0000ceb300804841008100e80062
:105b1000114178001104e000f6ff3a00030078001c
:105b200000000600889fbe00800478000044eb005f
:105b300078489800ecff070009007800884078005a
:105b40001004e00008003a000180fb000901400059
:105b500000c2b300005978008140e800eecf500049
:105b6000fbff3600040037008140e8000000e80039
:105b7000efcf5000f2ff3a004f04be0000000600d5
:105b800080017800010278000900370003007800e6
:105b9000b04278001304e0000800320082cf5200c7
:105ba00002003a000300780000000600800178003f
:105bb0000402e900e10f4200f4ff3a000000050092
:105bc000e1bf2000914078008180fb00010040008f
:105bd0002a21040000000000881f780000047800db
:105be00010009000fe2c020000000000100498003d
:105bf00028009000fe2c0200000000002004980005
:105c000058009000fe2c0200000000005004980094
:105c10004f047800000006001400fa00889fbe00c0
:105c20008a1f78000004780040c1b300feebb70083
:105c300050c4b300e0e79f000040eb00f0e79f0096
:105c400074054100cab79f00fc0bec00e05f8800c0
:105c5000d0b79f008004eb00e9b79f0040c6b300b7
:105c6000e0ef9f00f1ef9f0089bf9f00e1a52000ba
:105c7000914078008180fb005fcabf004200dd00d8
:105c8000c03fb200000040000000400000004000a3
:105c900000004000000040000000400001017000d2
:105ca00001a62000914078008180fb0061cabf00fe
:105cb0004200dd00c03fb200000040000000400094
:105cc00000004000000040000000400000004000d4
:105cd0008101700092bf9f00a3bf9f009880fb00ce
:105ce000184090004200dd00c03fb20000004000bc
:105cf00000004000000040000000400000004000a4
:105d00000000400001017000a84090008180fb006d
:105d1000384090004200dd00c03fb200000040006b
:105d20000000400000004000000040000000400073
:105d30000000400081017000b2bf9f00c3bf9f0000
:105d40007a805700a4ff0700410120007a805700a5
:105d5000482d02000000000080bf9f006404440042
:105d60000a01780089407800080078004e2102007e
:105d700000000000410120007a805700fa1f020055
:105d800000000000090078004f0578004f04be00b5
:105d90000080fa00000006001400fa00889fbe0090
:105da0008a9fbe008c1f780000057800810478006f
:105db0008205780003067800410120007e805700ac
:105dc0003a1f0200000000002fe1970082007800d7
:105dd000010fb20000042000808f50002a003a001a
:105de000cfb09700f0f12f000080600026003a004d
:105df000c210dd00c143b2008000fd00feebb70021
:105e00008000fd008180fb00722502000000000080
:105e100000047800fecbbf000080fb002a210200b6
:105e2000000000000800e00017003a007e805700e4
:105e300069ff07000a00e000030032001fb8970066
:105e4000afb89700008dbe007fb097008fb8970065
:105e5000804c78004801de0092449800a1449800ec
:105e60004808de00b0449800bfe89700814d7800f4
:105e7000fecbbf000080fb00afb09700008e50004b
:105e800010002000010037000000eb004f067800f2
:105e90004f05be004f04be000080fa00000006005f
:105ea000d862ef00c7e2a900d2a2a900d6a2a90039
:105eb0006140600000404000004040000040400061
:105ec00000404000004040000040400000404000d2
