:020000040000fa
:080000000002040000000000f2
:020000040000fa
:100400006fcf2000807f22000001880000000000e4
:10041000050007000c000700145502000000000052
:100420000040da000000fe004440a90040712000b6
:100430000000e0000300320000002000a00188005e
:100440004440a8000000060060fa250001002000da
:100450001600370062004000e080480091018800eb
:100460009001ba0062004000e080480091018800dd
:100470009002ba0062004000e08048000002eb00f9
:100480006028e10005003a008301e900070033001d
:10049000038009000059eb00040037006128e100e7
:1004a000010032000082eb00050007009101880086
:1004b0001001ba000200e000e6ff3a00000005006b
:1004c000910188008002780062004000e0804800ce
:1004d0003559ba008301e900080032002559ba00f5
:1004e0008301e900050032000400e000f4ff32005f
:1004f00015d9ba008301e900f1ff3a0000000600b7
:1005000000027800800178000100370081597800ee
:1005100002004200808f5100fcff3a000400780086
:10052000000006000002780080017800010037001a
:10053000b159780002004200808f5100fcff3a0060
:1005400004007800000006008000780001003700f9
:100550000000e8001004e000fdff3a000100500038
:1005600000000600ec874700889fbe008a9fbe00ff
:100570008c9fbe008e1f7800f0b79f0081bf9f0048
:100580008204780000047800010037000804e800c5
:10059000184778000e00fb00ca0007000000e000ca
:1005a000faff3a00d0c2b300804f57000500320076
:1005b00000c0e900804f5700020032000047780079
:1005c000010037000804e8000900e000450035009c
:1005d000e18f54004300320040022000808f54001d
:1005e00040003c000900e0000e003400f08f540091
:1005f0001a003a0000c3b300984f100016003a00ea
:100600009840900080c7b30080cf500003003200b4
:1006100080c5b30080cf50000f003a000884e80086
:100620000e003700a900200000c3b300984f10004f
:100630000a003a009840900080c7b30080cf500075
:10064000040032008900200080c5b30080cf500034
:1006500002003a000884e80009012000080578003b
:10066000010037000a05e80000c3b3009a4f1000ec
:10067000fcff32008a0578006066b8000e00370083
:1006800030b9200000425200c4ef9f006149b90018
:100690000c00be003a0307004fea97000401fb007c
:1006a000cf91de008b05e800ccb79f00ddb79f003f
:1006b00000064100818649001b00fb0089000700fd
:1006c000800078000901780030b920008c00070014
:1006d000000278000000e000e9ff3a008b0f5400b0
:1006e00006003a000fb897000000e0002900320031
:1006f000ffb0970001087800260037008a80550077
:10070000e0b62000694078000000fb000080500047
:10071000160033004240a9000f003c004fe997004b
:100720000200fb00cf80de000000560081805e00ea
:10073000800f5600818f5e00070039006149b900c3
:10074000ff0207004fb19700dfb19700820f500002
:10075000838f580005003200200220003067880097
:100760000086eb008086eb0005003700d0c2b300a6
:10077000804f570002003a0060061600e0861e0017
:100780008fb997000300e000030032008b09780066
:10079000010037006066b8000c00be004f0778000b
:1007a0004f06be004f05be004f04be00cf00b10093
:1007b00000000600889fbe008a9fbe00800578006a
:1007c000e5caab000a003a00800478000d0037004b
:1007d000090078003158780091578800a1c0b30013
:1007e00099cf1000300032008004780001003700fb
:1007f0008004780091578000a0b02000808f5000c6
:10080000f3ff3900d05780000000e0000200320002
:1008100070578800fa2aef006157800070578000f7
:10082000808f50000600390040ae200044000700d1
:100830000000e0001e003500e50aab0018003a0099
:10084000635780007057800003015000a100200012
:10085000030078002a000700000578000000e80087
:100860000a00e00001003a007057800061578000e4
:1008700001045000080178000900780029ff0700f2
:100880008884440008007800ec2ab4000a00e000e4
:10089000dcff32000040eb00f0fc9f000500370059
:1008a0008b8f540002003200804ceb0001003700b7
:1008b0008005eb000b0078004f05be004f04be0022
:1008c000000006006900e100040035006d00e10051
:1008d000030034000002b1000100320000000500f6
:1008e00010000500800078001104b10003003500fd
:1008f0009101b10001003c000050a0000000060082
:10090000820178000400370090cf1000050032000b
:100910000000e8008301e9000300e000faff3a006c
:100920000000eb0000000600206780000000e000ef
:10093000010032000000010060ce2000000006002f
:10094000889fbe0000047800c00090005000900016
:1009500012002000808f500043003900980078007a
:100960000001eb000188a3003f003a0010002a00bc
:1009700000806000e10f50000600320000202000df
:100980001800e0000100350000202400008c7000f9
:100990002600370000c020000080600014003a00ec
:1009a000a80490006002200008004000808f5400de
:1009b0000f003a00002020002e0007008000780081
:1009c000200498000000e00004003a002904980088
:1009d0000900e80030049800050037001860a00006
:1009e0000020b00030049800410c9800510c980091
:1009f000280090004004980050049800600498007b
:100a000080007800380190000001510038409000cb
:100a10000000fb00a2000700000178000000e000d9
:100a200004003d0000202400180c70000081eb0041
:100a30000d003700980078000000e00004003a0044
:100a400001c0a10000102400008c700006003700d7
:100a500000002500008c700058009000020040004b
:100a60005004980012002000020078004f04be00dd
:100a700000000600889fbe00e30440000900a100ba
:100a8000808f540049003600e38f540001003e007f
:100a900049002000806680000000e0000200320073
:100aa000800078000c00370021cd200003003700c3
:100ab000908f5400230036008080e80011007800f9
:100ac0001100e000faff3a000f003700928f540047
:100ad0001c0036008280e800110178001100e0005f
:100ae000faff3a001001780021cd20000300370002
:100af000908f5400130036008080e80011007800c9
:100b0000820f5000faff3a0078668000890f540087
:100b10000100310009047800080078002600070071
:100b20000000e00004003a00890f54001f0032006a
:100b30000804d100f5ff37000818780025000700e9
:100b4000d4ff3700110178009201780064805100d1
:100b5000890f5000030031001200900080087800d7
:100b600007003700090041008008780092019000da
:100b70001300980011007800128814000909780009
:100b8000910178001100e000040032001300900091
:100b90008380e8000000e00001003a008000eb00e4
:100ba000816688000280e800010037000000eb0049
:100bb0004f04be00000006000000e0000300340007
:100bc00071000700e10f400001003a000000eb0057
:100bd000000006000000e000300032008080e900e4
:100be00091027800e38f52002c0036000508a30024
:100bf0002a003a00926680000200e0000200320003
:100c0000828f50000400310002087800916688004d
:100c10001600370003017800920190000300e00005
:100c200002003200818f5100faff39001202780071
:100c300004004100808f500018003900810f5000df
:100c400003003a00050942008200780007003700df
:100c50000300e0000300320005804000808f510057
:100c60000e003900930098001101980011019000c6
:100c70000200e0000900320011804000820f5000a5
:100c800006003a00d02cef0011009000110178000e
:100c900090084100100090009000980000000600ad
:100ca0000a00fa0080017800020378000000e000ea
:100cb0002b003a0020548000204090000004e00007
:100cc00027003a0050668000e10f50000800320013
:100cd000802320000000e0000500320004232000f3
:100ce00025232000672320008001780004003700be
:100cf00004222000252220006722200083222000d9
:100d0000144090000004e000030035008009eb006f
:100d100000002800140a7000060178000c0037005b
:100d2000130a2000154278006140620002003a0078
:100d30008301e900fbff3a009541780061c0610042
:100d40000500320017007800805878000201e900a1
:100d50000200e000f2ff3a000200530008003700f2
:100d600020002000b0bf9f00c3bf9f00d1bf9f00e5
:100d7000e6bf9f006a80570000c0da006fb8970096
:100d80000080fa0000000600889fbe008004780002
:100d9000a06780000000e00003003a001000070098
:100da0000000e0000a003500a06780000900e000b4
:100db00002003a00000478000600370000047800c2
:100dc00009004000060007000000e00001003d00af
:100dd0000084eb00080078004f04be00000006000d
:100de000800078000000e00004003a0000002000cd
:100df000a067880001017800060037000081eb0041
:100e000000002000808f500002003e00a167880093
:100e10000001eb0002007800000006004801070016
:100e20000400be0000000600889fbe008a9fbe002e
:100e30008c1f78000205be000004be000006eb0017
:100e4000e00f5000e08f5800e00f5900e08f59008c
:100e500007003d006000b8006011b80008045000b1
:100e6000898458000a0559008b8559001c00200010
:100e7000e00f5200e08f5a00e00f5b00e08f5b0054
:100e800002003d000f0007000c00a2000800be0099
:100e90000a01be001e0207000203be000002be00df
:100ea0000c00e00001003200060007000400be0054
:100eb0000601be004f0678004f05be004f04be007d
:100ec000000006006000b8006011b8000402500085
:100ed00085825800060359008783590000000600e8
:100ee000881f7800000478005001be004000be005a
:100ef0000000420081804a0002014b0083814b00c8
:100f0000009cbe000294be000400e1000588e100e0
:100f10000690e1000798e1000200310068004400fb
:100f20001008e8004f04780000000600f48747002e
:100f3000889fbe008a9fbe008c9fbe008e1f7800d7
:100f40000205be000004be00d4b79f00e5b79f00b5
:100f5000f6b79f0087bf9f000000eb00c0b79f005f
:100f6000b0b79f00a0b79f0090b79f0080b79f00c9
:100f70000d042000bfb097004fb097000001400063
:100f80000000e00014003d004f08de00000071008a
:100f9000c0b79f00ad00070001003d001200200017
:100fa000b000070001003d0012002000b50007005e
:100fb00001003d0012002000ba000700be0007003b
:100fc000feff3a00c2000700c80007000f00400003
:100fd000c3ff0700270037004f08de00000671003e
:100fe000ccb79f009900070001003d0012002000cf
:100ff0009c00070001003d0012002000a100070036
:1010000001003d0012002000a6000700aa00070012
:10101000feff3a00ae0007000fb297009fb29700a4
:101020002fb39700bfb39700b6000700000052002f
:1010300081805a0002015b0083815b0080b79f00c2
:1010400091b79f00a2b79f00b3b79f000007eb00c6
:10105000ac0007000020e10001a8e10002b0e100bf
:1010600003b8e100010031001e0020000e00560010
:10107000c0b79f004fb297000400e00007003500a2
:1010800010002000010020006011b800080470006a
:10109000898470000a0571008b8571008d06e90056
:1010a000b4ff3a000400e00003003d008f00070099
:1010b0000f0040008aff07004fa897000000e000e3
:1010c00004003a000fb497009fb497002fb5970023
:1010d000bfb59700970007004f0778004f06be0086
:1010e0004f05be004f04be004f01b10000000600d6
:1010f000881f780018002000881f78008bff0700e9
:101100008f87e9004f04780000000600801feb0085
:1011100086ff07008f87e90000000600889fbe0059
:101120008a9fbe008c1f78007b00070005003d00f1
:101130002f00070007003d003d0007000006eb0000
:10114000040037003f00070002003d0030000700a8
:101150001c00200077000700e5ff07000203be0027
:101160000002be000c00e000010032002800070071
:101170000400be000601be004f0678004f05be0009
:101180004f04be0000000600889fbe008a9fbe007c
:101190008c1f78006000070003003d00140007006a
:1011a00006003d00040037002600070003003d0054
:1011b0006000b8006011b8001d0007005d00070066
:1011c000d2ff07000203be000002be000c00e000d8
:1011d000010032000e0007000400be000601be0040
:1011e0004f0678004f05be004f04be000000060009
:1011f0006000b8006011b8000804500089845800ed
:101200000a0559008b8559001c0020000300370097
:101210006000b8006011b80005003700e00f520010
:10122000e08f5a00e00f5b00e08f5b0000000600db
:101230000402500085825800060359008783590034
:10124000000006000006eb00f4ff370001804000bc
:1012500090b79f000001eb008fb097000100e00005
:10126000000006000200700090b79f00018040005f
:1012700080b79f000001eb00ffa897000100e0008d
:10128000000006000200700080b79f00018040004f
:10129000f0af9f000001eb00efa897000100e00015
:1012a0000000060002007000f0af9f0001824000c5
:1012b00020000700f50305008301d1000281d3005f
:1012c0008180d3000080d3008502e9000000060081
:1012d00000027200e4af9f000804440089844c00bf
:1012e0000a054d008b854d00000006003fb29700b7
:1012f000cfb297005fb39700efb3970000fe2f00c7
:10130000000006003fb09700cfb097005fb1970094
:10131000efb19700000006000205be000004be0009
:10132000e00f5000e08f5800e00f5900e08f5900a7
:10133000000006000800be000a01be000000060012
:101340006022b800060220000000d0008180d20098
:101350000482d2008582d2000000a0000202520066
:1013600083825a0003003b000202420083824a004b
:101370000000a1000603e900f3ff3a0000000600a8
:10138000020ab900001bb9000200b8008100420047
:101390008100430000000600889fbe008a9fbe00b7
:1013a000010578000100e0000400350008003c0061
:1013b0000000e0002000320005003700600010004f
:1013c000e080180002003b0001f02c001a003700fa
:1013d0000004be006011b8006b0920000982cf0034
:1013e000020039000882cf000441b0006942520077
:1013f0000e00320008003b00828171006101640030
:101400008904d1000884d3008b05e8000442e80079
:10141000f9ff3a00050037000804440089844c00b5
:101420008b05e9000442e900fbff3a00da000700ff
:101430000af0a70001f0a0004f05be004f04be0057
:1014400000000600889fbe008a9fbe008c1f7800a7
:10145000f7000700fe00330003866c006450e100d3
:10146000240032006420e100270032006150e100d6
:10147000220032006120e100210032008b85420011
:10148000eb07b1000134b800003ab800080442008c
:1014900089844a00013ab8000030b80088804000d2
:1014a00009014a0004003300000040008180480028
:1014b000020149008b05e900c909dd0083017000c4
:1014c0000100320013002000c814de004814dd00c3
:1014d0004709de001200b200c808de000884700070
:1014e000ad00070001f0a1000cf0a70001f0a00082
:1014f000e00037006120e100e20032000801be0098
:101500000200be00f7ff37006150e100fcff3a0027
:10151000dc0037000001be00dd0007000470a700fa
:1015200003f0a1006509b100160032000d0035007e
:101530006828e10006003500f0ff2f00f1ff2700ca
:101540000300e00013003b0001002800000005003c
:1015500000004000818048008502e900fcff3a005d
:1015600008003700f88f420002003c008000eb00ca
:10157000000005008100d1000080d3008502e80052
:10158000fcff3a000300e00002003b006000100096
:10159000e08018000000060003f0a200889fbe0053
:1015a0008a9fbe008c1f7800a1000700a8003300ae
:1015b0006450e1004f0032006420e100520032002c
:1015c00003826c0007003b000905d0000306d00031
:1015d000820f54000c065d00020039000200320048
:1015e00089017800030678008582550004003d00db
:1015f0000003fd008103fd008502ea008b854200a7
:10160000840f720002003b0060001000e0801800b0
:101610006011b8000005eb007a28e1000a003900eb
:1016200006007800c75ddd00f707b200878075000f
:101630002d003700828171000a0178006105600089
:101640008180d1000080d3008502e900f9ff3b00d2
:10165000060440008784480002003b006004140038
:10166000e0841c000988a300070032008a81710011
:1016700082817100610164008904d1000884d30073
:101680008b05e800170037000978a30013003a0023
:101690000b00e000130034008b05e900080444004f
:1016a00089844c000a4474000978a3000d003a00b4
:1016b0000b00e000070034008b05e900080444003b
:1016c00089844c0001003a000b0020000978a30037
:1016d000f7ff32000001eb00020037008281710049
:1016e0000a0178002c0007000cf0a70001f0a00010
:1016f000600037006420e10002003a00838f6c0034
:10170000600033000801be000200be00590037002f
:10171000889fbe008a9fbe008c9fbe000404b80054
:101720000506b8008904460060854e000606b8002c
:101730000a054600e0854e000706b8008b05460006
:10174000040eb800890446000a854e00e0854d006d
:10175000050eb8000a0546008b854e00060eb8003f
:101760008b0546000416b8000a0546008b854e001e
:101770000516b8008b054600041eb8008b05460010
:101780000800be000a01be004f06be004f05be00a5
:101790004f04be000000060081002000618055005b
:1017a0000b003d000b00200061fe2f000100e10056
:1017b0001d00340082817100610164008904d10040
:1017c0000884d3000000e800faff3a00710020000e
:1017d0006100640003007000020060000900320034
:1017e00061044400e0844c000988a5000500320033
:1017f0008b05e8006808e10002003a008904d10086
:101800000884d300f20f20000258e10005003d00db
:10181000c75ddd00f907b200898075000800780017
:10182000000006000bf827008b0078000000050080
:101830000004be00160007000003be000405be0041
:101840000200be0012000700844f75000000060071
:101850000200be006450e100050036006420e10093
:10186000020036000968a30001003a000800be002b
:101870000160a0004f0678004f05be004f04be0077
:1018800000000600f0ff2f00f1ff2700f9ff3700ee
:10189000c70ade00f107b200f50fb20008003200ff
:1018a000e1cf4200020032000170a00024000500d8
:1018b000810f70000100320004080500440005009b
:1018c000810f700002003a00140005008502e90053
:1018d0000000400081c04800fcff3b000170a000f8
:1018e0002400050000c0eb00a0ecb700a1ecb7009d
:1018f000a2ecb700a3ecb700a4ecb700a5ecb700ce
:101900000040eb009cecb7009decb7009eecb700ec
:101910009fecb70000000600881f780001047800e3
:10192000c2c92000124178000281fb00d1c9200009
:1019300091407800c208dd00c13fb20081804000c4
:101940008180400081804000818040008180400093
:101950008180400002827000e2c9200012417800bc
:101960000281fb00f1c9200091407800c208dd002f
:10197000c13fb200818040008180400081804000f2
:101980008180400081804000818040008282700020
:101990001003be00860f5200878f5a005800320095
:1019a00001b42000914078008180fb0041cbbf0052
:1019b0004200dd00c03fb2000000400000004000d7
:1019c0000000400000004000000040000000400017
:1019d0000101700021b42000914078008180fb005b
:1019e00043cbbf004200dd00c03fb200000040001a
:1019f00000004000000040000000400000004000e7
:101a00000000400081017000820f5200838f5a0055
:101a100041003a0081b32000914078008180fb00b2
:101a200039cbbf004200dd00c03fb20000004000e3
:101a300000004000000040000000400000004000a6
:101a40000000400001017000a1b320009140780027
:101a50008180fb003bcbbf004200dd00c03fb200f5
:101a60000000400000004000000040000000400076
:101a70000000400000004000810170000601690084
:101a800087816900c1b32000914078008180fb000c
:101a90003dcbbf004200dd00c03fb200000040006f
:101aa0000000400000004000000040000000400036
:101ab0000000400001027000e1b320009140780076
:101ac0008180fb003fcbbf004200dd00c03fb20081
:101ad0000000400000004000000040000000400006
:101ae000000040000000400081027000040161001d
:101af00085816100e00f5100e08f5900060032003f
:101b000000ca200005000900305c78006800b100c0
:101b100010002000010037000000eb004f047800a7
:101b200000000600881f780000047800100078008c
:101b3000f42f020000000000000c78001800900054
:101b4000f42f0200000000001004980038009000fc
:101b5000f42f020000000000300498004f047800c9
:101b600000000600889fbe008a1f780000057800ec
:101b70007c2b0200000000000000e000fcff3200af
:101b8000f0ac20000a29020000000000190020002b
:101b9000090d7800008020001005980068c0b3008f
:101ba0004845980040c0b300504598006800450083
:101bb00051b6200005000900315878006000b100de
:101bc00081b32000914078008180fb0039cbbf00b9
:101bd0004200dd00c03fb2000000400000004000b5
:101be00000004000000040000000400000004000f5
:101bf00001017000a1b32000914078008180fb00ba
:101c00003bcbbf004200dd00c03fb20000004000ff
:101c100000004000000040000000400000004000c4
:101c2000000040008101700072059800030d9800cb
:101c30000a007800bbff070072004500c2012000c7
:101c4000884078004424020000000000c101200008
:101c50000a007800f022020000000000482902007b
:101c600000000000090078004f0578004f04be0016
:101c7000000006001c00fa0000037800100020009d
:101c8000d0b79f0000c0eb00e0f79f00f0f79f0087
:101c900080ff9f0090ff9f00a0ff9f00b0ff9f006c
:101ca00081b32000914078008180fb0039cbbf00d8
:101cb0004200dd00c03fb2000000400000004000d4
:101cc0000000400000004000000040000000400014
:101cd00001017000a1b32000914078008180fb00d9
:101ce0003bcbbf004200dd00c03fb200000040001f
:101cf00000004000000040000000400000004000e4
:101d0000000040008101700036006900a680690073
:101d10000001be00c1b32000914078008180fb002b
:101d20003dcbbf004200dd00c03fb20000004000dc
:101d300000004000000040000000400000004000a3
:101d40000000400001027000e1b3200091407800e3
:101d50008180fb003fcbbf004200dd00c03fb200ee
:101d60000000400000004000000040000000400073
:101d7000000040000000400081027000040161008a
:101d800085816100e00f5100e08f59001d00320095
:101d900001b42000914078008180fb0041cbbf005e
:101da0004200dd00c03fb2000000400000004000e3
:101db0000000400000004000000040000000400023
:101dc0000101700021b42000914078008180fb0067
:101dd00043cbbf004200dd00c03fb2000000400026
:101de00000004000000040000000400000004000f3
:101df0000000400081017000e2bf9f00f3bf9f0020
:101e0000030037001600be00e0bf9f00f1bf9f0037
:101e10007c80570053ff07000080fa000000060096
:101e20001c00fa00806480000000e0000300320023
:101e3000e10f50007c003a005d003700c101200036
:101e40007c8057003022020000000000c424020001
:101e5000000000007c80570032ff07002fb0970081
:101e6000e10f500070003a00cfb0970060402000b2
:101e7000808f50006c003a005fb09700e20f500076
:101e80001a003a00130037000040eb006410020013
:101e9000000000007480570001ca200005000900fe
:101ea000b05878006000b1001fb89700afb8970035
:101eb0009cecb7004801de00020078009decb70002
:101ec000010078009eecb7004808de009fecb700e8
:101ed000550037000040eb005810020000000000e1
:101ee0000000e000ebff3200e7ff3700e10f500099
:101ef0002f003a006fba9700ffba970081b3200015
:101f0000914078008180fb0039cbbf004200dd00aa
:101f1000c03fb20000004000000040000000400050
:101f2000000040000000400000004000010170007f
:101f3000a1b32000914078008180fb003bcbbf0023
:101f40004200dd00c03fb200000040000000400041
:101f50000000400000004000000040000000400081
:101f600081017000820f5200838f5a002e003a00c8
:101f7000090037000040eb0058100200000000008c
:101f80000000e0002a0032000040eb006410020074
:101f900000000000240037001fb89700afb897007a
:101fa000840f5000858f5800f2ff3a00f6ff37008b
:101fb00020002000d0b79f000040eb004a10020034
:101fc000000000000000e0000800320000c0eb004c
:101fd000e0f79f00f0f79f0080ff9f0090ff9f00b9
:101fe000a0ff9f00b0ff9f0006003700b064800094
:101ff000c1648000b0bf9f00c1bf9f00d16480005a
:10200000d1bf9f0090648000a1648000e0bf9f006a
:10201000f1bf9f007c805700d2fe07000000e00067
:1020200010003200902cef00100020000d0037004f
:102030001fb89700afb8970090648800a16488002b
:102040006fb09700ffb09700b0648800c16488004b
:102050008fb89700d1648800100020008064880049
:10206000d3ff37000080fa0000000600e62ba9002d
:102070000000eb00c05d8800ba2bef00bc2bef0026
:10208000e64ba900e66ba900e7ebb700e6aba900b9
:10209000000006008000eb00c05d8000ea0f5000e9
:1020a00001003a0011002000010078000000060045
:1020b000e60bd5006100600000000600105f88009c
:1020c000215f88000000060072be200012417800e7
:1020d0008241e80003007800e7ebb700c15d8000b3
:1020e000eb8f50002b003e00100020008100dd002f
:1020f000010078001030b2000a003a0000c0200051
:10210000008060000a003a0001007800e00fb20091
:102110002000320080002000e9cf510015003e0071
:102120001300370002007800e7ebb700000006005c
:10213000d05d8000e15d8000e00f5000e08f58002e
:102140000e0032001a4e020000000000d25d800036
:10215000e35d8000020050008380580072962800e2
:1021600093002000820f5000838f580003003e0030
:1021700020002000c05d8800000006001a4e02000a
:1021800000000000d05d8800e15d8800b000200004
:10219000c05d880000000600e60ba8000c160200d7
:1021a000000000000000e00044003a00c1b420003c
:1021b000914078008180fb004dcbbf004200dd00e4
:1021c000c03fb2000000400000004000000040009e
:1021d00000004000000040000000400001017000cd
:1021e000e1b42000914078008180fb004fcbbf001c
:1021f0004200dd00c03fb20000004000000040008f
:1022000000004000000040000000400000004000ce
:10221000810170000200780038ebb7004810de0042
:1022200039ebb700030078003aebb7004818de003e
:102230003bebb70001b52000914078008180fb00a6
:1022400051cbbf004200dd00c03fb20000004000a3
:10225000000040000000400000004000000040007e
:10226000000040000101700021b52000914078007d
:102270008180fb0053cbbf004200dd00c03fb200b5
:10228000000040000000400000004000000040004e
:102290000000400000004000810170000200780052
:1022a0003cebb7004810de003debb70003007800c0
:1022b0003eebb7004818de003febb7000000060019
:1022c000e60ba90010002000c05d88000000060099
:1022d000c05d80000000cf000000e9004f00de007c
:1022e00000000600105f8000215f8000e82c0200e3
:1022f00000000000bc2c0200000000006101b800da
:10230000125f8800235f88000100200000000600a3
:10231000881f7800da2502000000000061006000dc
:1023200000004000000040000000400000004000ad
:10233000315f80000140a10080807000315f880023
:102340004408de00614160004208de006140600038
:10235000804f5100510032006100610000004000d8
:10236000000040000120a10080807000315f8800e3
:102370007080600047003a00e62ba900c05d88002d
:10238000c1b42000914078008180fb004dcbbf009c
:102390004200dd00c03fb2000000400000004000ed
:1023a000000040000000400000004000000040002d
:1023b00001017000e1b42000914078008180fb00b1
:1023c0004fcbbf004200dd00c03fb2000000400024
:1023d00000004000000040000000400000004000fd
:1023e00000004000810170000200780038ebb70067
:1023f0004810de0039ebb700030078003aebb70075
:102400004818de003bebb70001b520009140780092
:102410008180fb0051cbbf004200dd00c03fb20015
:1024200000004000000040000000400000004000ac
:1024300000004000000040000101700021b52000b4
:10244000914078008180fb0053cbbf004200dd004b
:10245000c03fb2000000400000004000000040000b
:1024600000004000000040000000400081017000ba
:10247000020078003cebb7004810de003debb700ef
:10248000030078003eebb7004818de003febb700d2
:102490000200370010002000c05d88000040eb0003
:1024a0000c160200000000000000e00004003200f2
:1024b000e62ba900b82bef00e6aba8000800370018
:1024c000305f80000058a300040032000048a300e1
:1024d0000200320010002000c05d8800e6aba900b9
:1024e000e60bab0002003200e62ba900b82bef0090
:1024f000c05d80000100200061005000e0805800b5
:10250000ea0f5000e08f580073013e0000600100a8
:102510000a0037007a003700ab003700ed003700c3
:10252000ec003700eb00370026013700310137009f
:102530003d013700490137004a01370052b62000fb
:10254000124178000281fb000300200066cbbf002f
:102550000080fb0001002000000040008180480056
:102560000000400081804800000040008180480059
:102570000000400081804800000040008180480049
:102580000000400081804800000040008180480039
:102590000000400081804800020140008381480023
:1025a00067cbbf008080fb000000200002014000dc
:1025b0008381480068cbbf000080fb000100200041
:1025c00000004000818048000000400081804800f9
:1025d00000004000818048000000400081804800e9
:1025e00000004000818048000000400081804800d9
:1025f00000004000818048000000400081804800c9
:1026000000004000818048000000400081804800b8
:1026100000004000818048000000400081804800a8
:102620000000400081804800000040008180480098
:102630000000400081804800000040008180480088
:102640000000400081804800000040008180480078
:102650000000400081804800000040008180480068
:102660000000400081804800000040008180480058
:102670000000400081804800000040008180480048
:10268000020140008381480069cbbf000080fb004d
:102690000100200002014000838148006acbbf0096
:1026a0000080fb0001002000000040008180480005
:1026b0000000400081804800000040008180480008
:1026c00000004000818048000000400081804800f8
:1026d00000004000818048000000400081804800e8
:1026e00000004000818048000200400083804800d4
:1026f000105f8800215f880020002000c05d8800f6
:10270000305f8000680460001b003a00e66ba800a0
:102710000004fd003cebb7003debb7003eebb7001b
:102720003febb7000004fd0008407800edfe070015
:10273000ddebb70008407800eafe0700e20f20005a
:10274000030020000e070200000000000040e80027
:10275000dcebb70090ea2f00d05e8800a0bd20001f
:102760003a0e0200000000001a4e020000000000b5
:10277000f05d8800015e880041bd2000a0bd200002
:102780008c0c0200000000000000e0000c003a0089
:102790001a4e020000000000f25d8000035e80001f
:1027a000020050008380580042422f00820f5000e8
:1027b000e08f5800c800360030002000c500370008
:1027c000e66ba900c4003700e66ba900e62ba80061
:1027d00011002000415e8800d4ebef00d5ebef0044
:1027e000d6ebef00d7ebef00d8ebef00d9ebef0023
:1027f000d25e8000e35e80000200780038ebb70014
:102800004810de0039ebb700030078003aebb70060
:102810004818de003bebb7003cebef003debef0070
:102820003e6bef003f6bef00a4bc200050b62000d1
:1028300005000900305a7800115e880000802000f1
:10284000205e880060c0b300c6ebb70040c0b30094
:10285000c7ebb700825e8800935e880020bc200032
:10286000920d020000000000bc2c020000000000dd
:1028700042012000110009000280d80044422f00cc
:10288000050020006033b80001007800010020003e
:1028900002002000030020001407020000000000d6
:1028a00044012000050020006033b80078080200d1
:1028b00000000000f05e8800015f88001a4e0200f0
:1028c00000000000f05d8800015e880040002000ec
:1028d000800037001a4e020000000000f25d800008
:1028e000035e80000200500083805800f25e80008a
:1028f000035f8000820f5000838f580076003600ff
:102900001a4e020000000000f05d8800015e8800a1
:10291000bc2c020000000000420120001100090050
:102920000280d80044422f00050020006033b80028
:1029300001007800010020000200200003002000b8
:1029400014070200000000004401200005002000e0
:102950006033b800780802000000000044422f00f5
:10296000050020000000420081804a00f05e8800df
:10297000015f88007c2b0200000000000000e000e6
:10298000fcff3200f0ac20000a2902000000000029
:10299000c201200061c0b30040bd200044240200f9
:1029a00000000000c101200020bc2000f022020035
:1029b000000000004829020000000000b82bec00d5
:1029c000450037001a4e020000000000f25d800052
:1029d000035e80000200500083805800f25e800099
:1029e000035f8000820f5000838f58003a0036004a
:1029f000370037001a4e020000000000f05d88002a
:102a0000015e880090cab30038ebb700e0cfb30096
:102a100039ebb70010c0b3003aebb7003bebb7009f
:102a2000900020002b0037001a4e0200000000002a
:102a3000f25d8000035e8000020050008380580039
:102a40000287230093032000820f5000838f5800d9
:102a500021003600200020001e003700e62ba900d0
:102a60001d00370020002000405e8800100020007c
:102a7000105e880000802000205e880020bc2000be
:102a8000920d0200000000007c2b020000000000fc
:102a90000000e000fcff3200f0ac20000a29020038
:102aa00000000000c201200061c0b30040bd200052
:102ab0004424020000000000c101200020bc2000ce
:102ac000f02202000000000048290200000000007f
:102ad000a0002000c05d88004f04780000000600c0
:102ae0000400fa000000400081804800000040001f
:102af00081804800000040008180480000004000c4
:102b000081804800e0bf9f00f1bf9f006fb8970031
:102b1000ffb8970061005000e0805800e0bf9f00c0
:102b2000f1bf9f006fb89700ffb89700e10f40001a
:102b3000e08f4800f5ff3a000080fa000000060030
:102b4000889fbe008a1f7800800478000600370046
:102b50009001200001002000e1ff07000844e90087
:102b6000e14f4400faff3a008904e900e18f440094
:102b70000200320048c0b300f8ff37004f0578006c
:102b80004f04be0000000600e80ce20003003a001b
:102b9000100020004067880014ecef0014ccbf0048
:102ba000e14f400003003200504f020000000000df
:102bb00014ecef0010002000b0608800186cef00eb
:102bc000188ca800182ca8000000060014ccbf0028
:102bd000e14f400003003200504f020000000000af
:102be00014ecef00162cef0000000600160ce200bb
:102bf00003003a0010002000b0608800180ca90003
:102c000000000600b06080000000e000010032001b
:102c10001000200000000600c0608000610060001d
:102c200000000600c0608000620060000200320008
:102c3000182ca9001000200000000600c0608000d1
:102c40004300de0061006000000006000800fa009a
:102c5000889fbe000044eb00d8f79f006a805700b1
:102c600084510200000000006ff09700e24f500016
:102c7000e6003a00c0012000de4f02000000000024
:102c80008844780058b620006a80570084510200ba
:102c9000000000006ff09700984f5000f2003a00db
:102ca0008944e8000804e800e6cf5400f6ff3a0043
:102cb000184cab0008003a0000012000de4f020073
:102cc000000000004100200060c22000ac51020062
:102cd000000000003a0ca800000f2000de4f0200a8
:102ce000000000006a845700080078008451020048
:102cf000000000000000e000c4003200eff0970088
:102d000030c3b30080cf50008e00320007003e0079
:102d1000e3cf500031003200e6cf500050003200c7
:102d2000e1cf5000ae003a001700370060c3b30097
:102d300080cf500070003200e1cf4000b30032007d
:102d40000040e90080cf5000a5003a00080078005c
:102d500084510200000000006ff09700e14f500026
:102d6000c1003a006b80570084510200000000004f
:102d7000184cab00dbff32005ff09700e24f5000d1
:102d8000d8ff3a00b80037000800780084510200ec
:102d9000000000006ff09700e44f5000b2003a00ce
:102da000184cab0007003200004478006a805700de
:102db00084510200000000000844e900c9ff32000d
:102dc000faff370041002000e0c22000ac510200b1
:102dd000000000003a4ca800c2ff37006c8057008a
:102de00084510200000000004ff09700e34f5000b4
:102df0009d003600184cab000700320048c0b300fd
:102e00006a80570084510200000000000844e90075
:102e100006003200faff370041002000a0c2200067
:102e2000ac510200000000003a2ca800cff097003f
:102e3000e4c05000c1f79f00030037006a805700cc
:102e400084510200000000004ff297000440e900a6
:102e5000c0f79f00e14f4000f8ff3a00a1ff3700a4
:102e60006c80570084510200000000004ff0970072
:102e7000e34f50007c003600184cab0018003a00bd
:102e80004100200020c32000ac51020000000000df
:102e90003a6ca800cff0970064c05000c0f79f00c4
:102ea000e34f50000e003600184cab000c003a0007
:102eb0004100200060c32000ac510200000000006f
:102ec0003a8ca8004ff2970064425200c4f79f006a
:102ed000030037006a8057008451020000000000a0
:102ee000cff097000140e900c0f79f00e14f40009c
:102ef000f8ff3a007bff3700080078008451020099
:102f0000000000006ff09700e44f500056003a00b8
:102f10006580570084510200000000006680570061
:102f200084510200000000006780570084510200b5
:102f3000000000006880570084510200000000007b
:102f400068ff37000800780084510200000000008c
:102f50006ff09700e44f500043003a00184cab006c
:102f6000080032000044eb006a80570084510200e0
:102f7000000000000844e800e44f540059ff32000c
:102f8000f9ff370010c22000845102000000000049
:102f900000c220008451020000000000f0c12000a7
:102fa0008451020000000000e0c1200084510200b2
:102fb00000000000f060800001618000c509de00b3
:102fc0004b0add004501de000201720002005000e4
:102fd00083805800f06088000161880041ff37005d
:102fe0006c805700010037006a805700845102004e
:102ff00000000000cff097000140e900c0f79f00fb
:10300000e14f4000f8ff3a0036ff37005ff09700cd
:10301000e24f500006003a004fb89700dfb8970023
:103020001061880021618800184ca8000900370051
:1030300012618000236180004fb89700dfb89700cd
:10304000800f5100818f5900020032000040eb00d8
:10305000d0f79f00d8510200000000005ff09700f9
:103060000080fb0003003700d85102000000000080
:103070000000eb004f04be000080fa0000000600d4
:10308000889fbe008a1f7800804478000105780080
:1030900010c0b300185002000000000010c0b300c0
:1030a000185002000000000060c0b3001850020079
:1030b000000000000040eb0018500200000000007b
:1030c00020c1b300185002000000000030c2b3005d
:1030d000185002000000000040c3b3001850020066
:1030e0000000000060c5b30018500200000000009e
:1030f0000040eb0018500200000000000040eb0010
:1031000018500200000000000040eb00188cab00db
:1031100001003a0000c8b30018500200000000008f
:103120000040eb001850020000000000e3cf540004
:1031300007003a000a00e0000500320041002000cc
:1031400060c220003e500200000000000c0037006a
:103150000040eb0018500200000000000040eb00af
:1031600018500200000000000040eb001850020060
:10317000000000000040eb001850020000000000ba
:103180000044eb000040eb0018500200000000007b
:103190000844e800ec4f5400faff3a0061002000b8
:1031a00050b620003e50020000000000a8ccb30042
:1031b0000040eb0018500200000000000844e90045
:1031c000fbff3a0030c6b3001850020000000000b8
:1031d00020c8b300185002000000000030c5b30042
:1031e000185002000000000030c6b3001850020062
:1031f0000000000050c3b30018500200000000009f
:1032000010c0b30018500200000000000940780010
:103210001850020000000000e1cf540002003a0004
:10322000184ca90016003700e3cf540014003a00f0
:103230000a00e00012003a0060c3b3001850020018
:103240000000000040c0b300185002000000000061
:1032500025ccbf00185002000000000024ccbf00a5
:10326000185002000000000023ccbf0018500200dc
:103270000000000022ccbf00185002000000000037
:1032800070c3b300185002000000000040c0b3003b
:10329000185002000000000010c0b30018500200d7
:1032a0000000000030c0b300185002000000000011
:1032b00060c0b3001850020000000000c0c0b3009e
:1032c0001850020000000000e3cf540003003a0051
:1032d0000a00e0000800320011003700e1cf54007e
:1032e0000f003a003061800041618000e00f500023
:1032f000e08f58000a00320020c3b30018500200cb
:103300000000000040c0b3001850020000000000a0
:103310004100200060c220003e500200000000007a
:1033200000c0eb00010037000040eb001850020025
:1033300000000000714f8000b0122000808f50000c
:10334000f9ff360081b32000914078008180fb00b6
:1033500039cbbf004200dd00c03fb200000040009a
:10336000000040000000400000004000000040005d
:103370000000400001047000a1b3200091407800db
:103380008180fb003bcbbf004200dd00c03fb200ac
:10339000000040000000400000004000000040002d
:1033a0000000400000004000810470000a00e000be
:1033b00006003a000005fd0038ebb70039ebb70016
:1033c0003aebb7003bebb7000005fd008050020070
:1033d000000000000800780038ebb7004840de002d
:1033e00039ebb700090078003aebb7004848de0037
:1033f0003bebb7004f0578004f04be00000006000d
:10340000b06080000100200061005000e0805800a2
:10341000eb0f5000e08f58002e013e0000600100cd
:103420000b00370014003700400037004b00370016
:1034300062003700c7003700ea003700f9003700a4
:10344000e8003700f7003700e6003700f5003700e6
:10345000320420008000eb00400420006c4f02008a
:103460000000000014ecb700e14f400019013200e9
:1034700020002000b0608800c0032000f0608800b9
:10348000202cef003a6cef00180ca900184ca90092
:10349000da250200000000000000e0000d0132000b
:1034a00014ccbf00ee4f020000000000b11220005b
:1034b000810f500007013600c16080004408de0023
:1034c0000080ea0061006000000040000000400051
:1034d00000004000000040000140a100808070001a
:1034e000c160880014ccbf00e2c0b3000440bc003f
:1034f000209f200000004100a2002000f10f2000ca
:1035000080020200000000008000eb0010c0b30049
:10351000dbfe07001a4e020000000000d0608800a9
:10352000e160880030002000d400370014ccbf00d8
:103530006451020000000000910f2000810f500034
:1035400024003600186ca800c0fd0700e24f5000b0
:10355000e0003a0040002000b060880014ccbf00ba
:10356000ee4f02000000000011102000810f5000fb
:10357000d800360014ccbf00e2c0b3000440bc0049
:10358000209f200000004100a20020008180e9006f
:1035900080020200000000008000eb0030c0b30099
:1035a000b7fe07001a4e020000000000d06088003d
:1035b000e160880050002000b000370014ccbf004c
:1035c0006451020000000000910f2000810f5000a4
:1035d0000c003e001a4e020000000000d260800085
:1035e000e3608000020050008380580072842e0047
:1035f00013002000820f5000838f5800b500360062
:103600009d00370091fd0700e54f50000300320098
:10361000e64f5000af003a009700370014ccbf00cf
:10362000504f02000000000014ecef001a4e0200a0
:1036300000000000d0608800e16088006000200089
:10364000b0608800182ca800180ca800d361800076
:103650000308a3000a00320030618000416180004d
:1036600038ebb7004801de000200780039ebb70004
:10367000010078003aebb7004808de003bebb700ea
:103680000328a3000a00320070618000816180007d
:103690003cebb7004801de00020078003debb700cc
:1036a000010078003eebb7004808de003febb700b2
:1036b0000318a3000a00320050618000616180009d
:1036c00040ebb7004801de000200780041ebb70094
:1036d0000100780042ebb7004808de0043ebb7007a
:1036e0000338a3000a00320090618000a1618000cd
:1036f00044ebb7004801de000200780045ebb7005c
:103700000100780046ebb7004808de0047ebb70041
:10371000486bef00496bef004a6bef004b6bef001b
:103720000348a3006b003200b0618000c1618000db
:1037300048ebb7004801de000200780049ebb70013
:10374000010078004aebb7004808de004bebb700f9
:10375000000006001a4e020000000000d460800045
:10376000e5608000040050008580580032422f0040
:10377000820f5000e08f580056003600f260800043
:1037800003618000e10f5100e08f59000b0036000b
:1037900040422f00010020000400400085804800c6
:1037a000d0608800e160880061015100e08159002b
:1037b000f2608800036188000000060032042000e7
:1037c0008000eb00400420006c4f0200000000006d
:1037d00014ecb700e14f40003e00320070002000c2
:1037e000b060880014ccbf00ee4f02000000000063
:1037f00011102000810f500036003600110020000b
:1038000030c0b3001efe0700184ca9001a4e02007b
:1038100000000000d0608800e1608800162cec00f9
:103820000000060014ccbf0064510200000000003c
:10383000910f2000810f500012003e001a4e02002e
:1038400000000000d2608000e360800002005000b1
:103850008380580072842e0013002000820f5000d5
:10386000838f58001b003600160cec00b0608800f7
:10387000ec0f50001700360020002000b0608800d8
:1038800000000600f1fc0700e54f50000300320085
:10389000e64f50000f003a000c00370014ccbf0078
:1038a000504f02000000000014ecef001a4e02001e
:1038b00000000000d0608800e16088006000200007
:1038c000b0608800182ca80000000600200020002e
:1038d000b0608800000006000000eb00780cab0030
:1038e00002003a00780ca80010002000000006003a
:1038f000d4ccbf00e14f400003003200504f020023
:1039000000000000d4ecef0070002000b0668800da
:10391000780ca90078ccbf000000d10061006000e5
:1039200000000600889fbe000004780081447800f3
:1039300001c82000b82d0200000000000000e000d7
:1039400004003200782ca80070002000b0668800c7
:10395000060037007864880060648800b0668800dc
:10396000090078008aecb700782ca9004f04be004b
:1039700000000600889fbe008a9fbe008c1f780052
:103980008005780000057800bb4478000904e00059
:103990000c003200e0c2b30080cf540009003200b6
:1039a0000040e80080cf5400060032006340500021
:1039b00080cf5400030032007240400080cf54009a
:1039c000f1ff3a000ac455000844e90008407800b5
:1039d00018500200000000008880fb000a007800f8
:1039e0003e50020000000000000045000005e80015
:1039f0000904e00009003200f0c2b30080cf540097
:103a0000060032006340500080cf540003003200b3
:103a10007240400080cf5400dbff3a000040eb00d2
:103a200018500200000000004f0678004f05be004d
:103a30004f04be00000006000200fa000f80e900fb
:103a400084510200000000000000e000120032007b
:103a50006ff9970082007800010cb200000c200082
:103a6000808f500004003a000f80e900845102006a
:103a700000000000080037006ff897000004e00025
:103a8000050032008280fb000000eb00ac51020018
:103a900000000000e9ff37000080fa000000060087
:103aa0001a00fa00889fbe008a9fbe008005780039
:103ab000b0668000e30f50005400320004003e0066
:103ac000e10f50000c00320015003e0008003700e6
:103ad000e50f50009a00320056003900e60f500002
:103ae000d0013200e70f500045023a00aa0137002a
:103af0007a6cef00796cef0040b420003a0e0200bf
:103b0000000000007a6cec001a4e02000000000079
:103b1000e0638800f163880020002000370237004e
:103b200041c8200040b420008c0c020000000000be
:103b30000000e00011003a001a4e020000000000f0
:103b4000e2638000f363800002005000838058002d
:103b500042422f00820f5000e08f580028023600aa
:103b6000610020007accbf00e24f500001003e000f
:103b700011002000b16688002102370041b4200006
:103b8000914078008180fb0045cbbf004200dd0002
:103b9000c03fb200000040000000400000004000b4
:103ba00000004000000040000000400001017000e3
:103bb00061b42000914078008180fb0047cbbf00ba
:103bc0004200dd00c03fb2000000400000004000a5
:103bd00000004000000040000000400000004000e5
:103be000810170000200780080ecb7004810de0010
:103bf00081ecb7000300780082ecb7004818de00c3
:103c000083ecb70030002000b0668800520320002b
:103c100001c820000000eb006c4f02000000000013
:103c2000d4ecb700e14f4000f50132004000200025
:103c3000b0668800d4ccbf00ee4f02000000000048
:103c40000000e000ee013200ea2cec00ebccbf00fb
:103c50001850020000000000eaccbf00185002001b
:103c60000000000010c0b300185002000000000067
:103c70000040eb0018500200000000000040eb0084
:103c8000185002000000000010c0b30018500200dd
:103c9000000000000040eb0018500200000000008f
:103ca0000040eb0018500200000000000040eb0054
:103cb00018500200000000000040eb001850020005
:103cc000000000000040eb0018500200000000005f
:103cd0000040eb00185002000000000070648000fb
:103ce0000000e00001003a006064800021ff07004e
:103cf0000040eb0018500200000000008accbf001a
:103d000018500200000000000040eb0018500200b4
:103d10000000000010c0b3001850020000000000b6
:103d200080500200000000001a4e02000000000057
:103d3000e0638800f163880050002000af01370085
:103d4000d4ccbf00645102000000000000047800e1
:103d50000000e0000e003a001a4e020000000000d1
:103d6000e2638000f363800002005000838058000b
:103d700042422f00820f5000e08f5800a001360011
:103d800060002000b0668800080078009d013700c0
:103d900074845700738057008451020000000000b3
:103da0000800780084510200000000005067800085
:103db000980f100003003200d851020000000000ec
:103dc0008f0137007180570084510200000000000d
:103dd0007280570084510200000000006f8057007d
:103de00084510200000000007080570084510200de
:103df000000000006d8057008451020000000000a8
:103e00006e80570084510200000000006b80570054
:103e100084510200000000006c80570084510200b1
:103e2000000000006980570084510200000000007b
:103e30006a8057000e003700fffe070000fe2f00cb
:103e40008f0440007f8457000800780084510200ee
:103e5000000000000900780084510200000000000a
:103e6000080078008451020000000000090078007a
:103e700084510200000000000fb897000000e90024
:103e800080bf9f00e10f4000ebff3a003400370095
:103e9000e9fe07007e8457007d80570084510200b0
:103ea00000000000080078008451020000000000bb
:103eb0007b80570084510200000000007c85570081
:103ec0000a0078008451020000000000778057004b
:103ed00084510200000000007880570084510200e5
:103ee00000000000798057008451020000000000ab
:103ef00064004400845102000000000075805700f7
:103f00008451020000000000f68457000900780088
:103f1000845102000000000012002000980f1100e0
:103f20000a003a009a0f110008003a0040002000f1
:103f3000990f100005003a0073003700e0fd2f00d4
:103f40000f00400084510200000000005fb09700a5
:103f50000000e900d0b79f00e10f4000f7ff3a00f2
:103f60001fb897000000e90090bf9f00e10f4000dc
:103f7000c7ff3a0034003700affe07007e845700c9
:103f80007d80570084510200000000000800780086
:103f900084510200000000007b8057008451020021
:103fa000000000007c8557000a0078008451020060
:103fb00000000000778057008451020000000000dc
:103fc000788057008451020000000000798057007b
:103fd000845102000000000064004400845102008b
:103fe00000000000758057008451020000000000ae
:103ff000f684570009007800845102000000000098
:1040000012002000980f11000a003a009a0f1100c8
:1040100008003a0040002000990f100005003a0007
:1040200039003700e0fd2f000f00400084510200ee
:10403000000000005fb097000000e900d0b79f00cb
:10404000e10f4000f7ff3a002fb897000000e900a9
:10405000a0bf9f00e10f4000c7ff3a0041003700ba
:1040600075fe07007e8457007d8057008451020052
:1040700000000000080078008451020000000000e9
:104080007b80570084510200000000007c855700af
:104090000a00780084510200000000007780570079
:1040a0008451020000000000788057008451020013
:1040b00000000000798057008451020000000000d9
:1040c0006400440084510200000000007580570025
:1040d0008451020000000000f684570009007800b7
:1040e000845102000000000012002000980f11000f
:1040f00017003a009a0f110015003a004000200006
:10410000990f100012003a00782ca80000c8200077
:10411000845102000000000010c8200084510200f9
:104120000000000020c820008451020000000000b0
:1041300030c8200084510200000000000e0037004b
:10414000e0fd2f000f00400084510200000000003d
:104150005fb097000000e900d0b79f00e10f40007a
:10416000f7ff3a003fb897000000e900b0bf9f009a
:10417000e10f4000baff3a00d851020000000000f1
:10418000d4ccbf00504f020000000000d4ecef0080
:1041900070002000b066880078ccbf0062406000ec
:1041a00004003a0080ecb70081ecb70082ecb70065
:1041b00083ecb70001c82000914078008180fb00ab
:1041c00081ccbf004200dd00c03fb20000004000d3
:1041d00000004000000040000000400000004000df
:1041e000000040000101700021c8200091407800cb
:1041f0008180fb0083ccbf004200dd00c03fb200e5
:1042000000004000000040000000400000004000ae
:10421000000040000000400081017000828dbe005f
:104220000500370079ccbf00e14f50000400360094
:10423000800deb00bb1578001000200071003700e6
:104240000040e80079ecb70081b42000914078008c
:104250008180fb0049cbbf004200dd00c03fb200bf
:10426000000040000000400000004000000040004e
:104270000000400000004000810470000901780047
:10428000a1b42000914078008180fb004bcbbf009f
:104290004200dd00c03fb2000000400000004000ce
:1042a000000040000000400000004000000040000e
:1042b0000104700088017800e00f5100e08f590080
:1042c0004f00320041b42000914078008180fb0013
:1042d00045cbbf004200dd00c03fb20000004000ff
:1042e00000004000000040000000400000004000ce
:1042f000000040000103700061b42000914078008c
:104300008180fb0047cbbf004200dd00c03fb20010
:10431000000040000000400000004000000040009d
:1043200000004000000040008103700002036b00a9
:1043300083836b00090278008802780006026a0015
:1043400087826a000400780048ebb7004820de004e
:1043500049ebb700050078004aebb7004828de00bb
:104360004bebb7008680fb004630de00c03fb2005a
:10437000000040000000400000004000000040003d
:104380000000400000004000010170008780fb0039
:104390004638de00c03fb200000040000000400090
:1043a000000040000000400000004000000040000d
:1043b00081017000040169008581690002007800b4
:1043c00044ebb7004810de0045ebb700030078006f
:1043d00046ebb7004818de0047ebb7007a6cef00f9
:1043e000d4ccbf00e14f400003003200504f020028
:1043f00000000000d4ecef0010002000b066880040
:104400000000eb004f05be004f04be000080fa0024
:1044100000000600d7c2a90041e2a9004342a8005b
:1044200041e2a80000a023004012880040c2bf0063
:104430000018a300fdff3a0040c2bf000008a3001f
:10444000faff320041e2a9004342a90041e2a8007c
:1044500040128000d7c2a8000080fb0000000600c8
:104460000200fa0000017800d7c2a900a0032000d2
:10447000401288000200e000010032000201e90061
:1044800040c2bf000018a300fdff3a0040c2bf00b9
:104490000008a300faff320040128000e0ff9f00f6
:1044a0000002eb00e18f50003000360041e2a9002d
:1044b0004342a80041e2a8004822ef000482e8003d
:1044c00040c2bf000018a300fdff3a0040c2bf0079
:1044d0000008a300faff3200431280000200e0004f
:1044e000040032004818de00104198000281e80004
:1044f0000349780004805000e10f5000eeff3e00b9
:1045000041e2a9004342a90041e2a8001700370098
:104510004822ef000402e8000200e0000a00320036
:104520000201e80040c2bf000018a300fdff3a00ee
:1045300040c2bf000008a300faff32004012800012
:10454000004978000900370040c2bf000018a300ee
:10455000fdff3a0040c2bf000008a300faff32008e
:1045600040128000e0ff9f000001eb00810f52002d
:10457000e7ff3900d7c2a800040078000080fa00e5
:10458000000006000200fa00d7c2a90041e2a9001b
:104590004342a80041e2a8000080fb0001a02700e0
:1045a000010070004012880040c2bf000018a30044
:1045b000fdff3a0040c2bf000008a300faff32002e
:1045c00041e2a9004342a90041e2a8004012800054
:1045d000e0ff9f00d7c2a8000080fa00000006009c
:1045e0000200fa008001780081027800d7c2a90099
:1045f000a00720004012880040c2bf000018a3009e
:10460000fdff3a0040c2bf000008a300faff3200dd
:1046100040128000e0ff9f00e18f520003003e0047
:1046200003027800850078004a0037001380fb0001
:10463000000040000000400000004000000040007a
:10464000000040000000400000004000000040006a
:10465000f20fb20000017100134090000080fb00d7
:1046600001f02f0001016100000171000382e800e8
:1046700041e2a9004342a80041e2a800e3814100d1
:10468000421288008582e900e18f52001a0036004c
:104690001480fb00000040000000400000004000cb
:1046a000000040000000400000004000000040000a
:1046b00000004000f20fb200000171009380fb0087
:1046c00000f02f0000016100010171000482e80088
:1046d00040c2bf000018a300fdff3a0040c2bf0067
:1046e0000008a300faff320040128000e0ff9f00a4
:1046f0008381e800e2ff370040c2bf000018a3003a
:10470000fdff3a0040c2bf000008a300faff3200dc
:1047100040128000e0ff9f0041e2a9004342a9004f
:1047200041e2a800bfff37003480fb004012880040
:104730008100e90040c2bf000018a300fdff3a005d
:1047400040c2bf000008a300faff32004012800000
:10475000e0ff9f000100e000f3ff3a00d7c2a8008d
:104760000080fa0000000600d7c2a9000080fb000c
:104770004012880040c2bf000018a300fdff3a00ad
:1047800040c2bf000008a300faff320040128000c0
:104790004822ef0040c2bf000018a300fdff3a000e
:1047a00040c2bf000008a300faff320040128000a0
:1047b0004822ef0040c2bf000018a300fdff3a00ee
:1047c00040c2bf000008a300faff32004012800080
:1047d000d7c2a800000006000200fa00d7c2a90054
:1047e0000064a0000080fb004012880040c2bf00af
:1047f0000018a300fdff3a0040c2bf000008a3005c
:10480000faff320040128000e0ff9f000180fb00b1
:104810004012880040c2bf000018a300fdff3a000c
:1048200040c2bf000008a300faff3200401280001f
:10483000e0ff9f00d7c2a8000080fa000000060039
:10484000881f78008000780010668000808040001b
:1048500074844000d0ac2000800f54000200360069
:1048600060542f0000844000884078000040eb0036
:10487000d9ff0700c840de0010c0b300d6ff070014
:104880004f047800000006000200fa00889fbe0076
:104890000004780081447800d2bf9f00f1ccb300bf
:1048a00020c0b300ccff0700a1c0b30030c0b300ec
:1048b000c9ff0700c0ad2000dfb89700808040002e
:1048c000d1bf9f00aff8970060c0b300c2ff0700e0
:1048d000bff8970070c0b300bfff07006100200061
:1048e000080078003eff07006100200050b620005d
:1048f0003bff070080c0b30022ff070061c0b30088
:104900000904e00001003a00894078000140780085
:104910001cff07004f04be000080fa0000000600e4
:104920000200fa00d7c2a9000074a0000080fb00ba
:104930004012880040c2bf000018a300fdff3a00eb
:1049400040c2bf000008a300faff320040128000fe
:10495000e0ff9f000180fb004012880040c2bf00c2
:104960000018a300fdff3a0040c2bf000008a300ea
:10497000faff320040128000e0ff9f00d7c2a8007b
:104980000080fa0000000600881f7800c00ce200da
:1049900011003a00100020000066880028668000a0
:1049a0000804e900d0ac2000800f5400010036005c
:1049b0000004780001c4b300e0c1b300d8ff0700d1
:1049c00088407800c0c0b30083ff0700c840de0005
:1049d000d0c0b30080ff07004f047800000006003d
:1049e0000200fa00d7c2a9000080fb00000ab30051
:1049f0004012880040c2bf000018a300fdff3a002b
:104a000040c2bf000008a300faff3200401280003d
:104a1000e0ff9f000180fb004012880040c2bf0001
:104a20000018a300fdff3a0040c2bf000008a30029
:104a3000faff320040128000e0ff9f00d7c2a800ba
:104a40000080fa00000006000200fa00f0bf9f009c
:104a500031c0b300f0c1b300e1ff0700fff89700d9
:104a6000f0c1b300aeff07000080fa0000000600ae
:104a7000881f78000044780050312000f2ff0700c2
:104a80008840780050c1b30053ff07000000eb00de
:104a9000edff07004f047800000006000200fa0056
:104aa000881f780000447800e1bf9f00402120006b
:104ab000e5ff07008840780040c1b30046ff0700cb
:104ac000cff8970060c1b30043ff0700dff89700fd
:104ad00070c1b30040ff0700a0302000daff0700dc
:104ae000a0c0b30020ff07000008a300fcff3a00ad
:104af0000000eb00d4ff07004f0478000080fa00ac
:104b000000000600881f7800004478004021200043
:104b1000cdff07008840780040c1b3002eff07009a
:104b200011c0b30020c1b3002bff0700a03020004c
:104b3000c5ff0700a0c0b3000bff07006144600081
:104b4000fcff3a0040212000bfff070088407800aa
:104b500020c1b30020ff070080c1b30002ff07009f
:104b60000080fb0001f02f000104640000047400c9
:104b700090c1b300fcfe07004200dd00c03fb20060
:104b80000000400000004000000040000000400025
:104b90000000400000004000f80fb2000004740064
:104ba0000000eb00a8ff0700080078004f04780021
:104bb0000000060010c0b300d2ff07004200de0074
:104bc0006100600000000600d7c2a9000080fb0061
:104bd0004012880040c2bf000018a300fdff3a0049
:104be00040c2bf000008a300faff3200401280005c
:104bf0004822ef0040c2bf000018a300fdff3a00aa
:104c000040c2bf000008a300faff3200401280003b
:104c1000d7c2a80000000600881f7800503120008d
:104c200089ff070050c1b300e7ff07000044780088
:104c30000000eb0084ff07000880fb004f047800b1
:104c40000000060001c2b300e0c1b30064ff07002a
:104c5000d0c1b300dcff07000008a300fcff320056
:104c600041c0b300f0c1b3002dff370041c0b30015
:104c7000f0c1b3005aff0700d0c1b300d2ff070054
:104c80000028a300fcff3a00f0c1b300ceff0700ec
:104c90000038a300fcff3a0001c2b300e0c1b3003a
:104ca0001fff3700f0c1b300c7ff07000080fb0003
:104cb0004500de000000a200610060000000060068
:104cc0000600fa00889fbe008a9fbe008c9fbe002f
:104cd000f0b79f0081bf9f0092bf9f008006eb004e
:104ce000e10f400008003a0020c0b300b6ff070003
:104cf0000080fb00f0b79f0030c0b300b2ff070098
:104d0000f0ef9f001d0020000006eb000fb8970099
:104d1000e10f400008003a000040eb00aaff070046
:104d20000080fb0080bf9f0010c0b300a6ff0700fb
:104d300090f79f001c0020009fbd9700e18f550059
:104d40004b003e000c00e00012003a000c407800de
:104d50009dff07000080fb0001f02f0081846400ac
:104d60008084740010c0b30097ff07004200dd008c
:104d7000c03fb200000040000000400000004000c2
:104d8000000040000000400000004000f90fb200a9
:104d9000808474000d00e00012003a0020c0b300cf
:104da00089ff07000080fb0001f02f00010565006e
:104db0000005750030c0b30083ff07004200dd002e
:104dc000c03fb20000004000000040000000400072
:104dd000000040000000400000004000fa0fb20058
:104de000000575008ff097000040eb007afe070089
:104df0009ff0970010c0b30077fe0700efe8970020
:104e000020c0b30074fe0700ffe8970030c0b30075
:104e100071fe07000b047800020037007dfd0700db
:104e2000d8fd07000804e900e10f4400fbff3a0049
:104e30000c00e00006003a00894078000c40780041
:104e400065fe0700c848de0010c0b30062fe070020
:104e50000d00e0004d003a008a40780020c0b30009
:104e60005dfe0700c850de0030c0b30046003700ca
:104e70000d00e000090032007fb097000b044000f5
:104e80008840780020c0b30053fe07004844de008d
:104e90008840780030c0b3004ffe07000fbc970079
:104ea000088545008a04e90099bf9f00f0c1b3005e
:104eb00045ff07000058a300fcff3a008ff0970061
:104ec00000c1b30044fe07009ff0970010c1b3007b
:104ed00041fe0700efe8970040c1b3003efe070027
:104ee000ffe8970050c1b3003bfe0700d0ac2000a4
:104ef000800f540005003e00808f540003003600f0
:104f000010532f000000450090bf9f006e85570092
:104f10009a40780020c1b3002ffe0700ed845700af
:104f20009940780030c1b3002bfe070001c1b300e7
:104f3000f0c1b300aafe070001c2b300f0c1b30084
:104f400077fe07000c00e000100032001fb9970048
:104f50008200e80091bf9f00d0ac2000800f540079
:104f600004003e00808f5000020036000000510017
:104f700090bf9f009a4078000040eb0016fe0700ab
:104f80009940780010c0b30013fe07004f06be0022
:104f90004f05be004f04be000080fa00000006006e
:104fa000f8874700889fbe008a9fbe008c9fbe0086
:104fb0008e1f7800800578000040eb0002ff07009c
:104fc0000080fb0001f02f00010565000005750061
:104fd00010c0b300fcfe0700004778004270dd00ff
:104fe000c03fb20000004000000040000000400050
:104ff000000040000000400000004000fa0fb20036
:10500000000575006066b8001d0037000b007800d1
:10501000f48f55000100360040012000c8fd2f002c
:105020000f044400001c7800efa8970008007800e7
:105030000bfd0700efa89700818555000108a3002c
:10504000050032000040eb0080707c006fa89700e4
:105050000000e800e0af9f00efa89700080178008b
:10506000040037003200780000064600e0864e005b
:105070008180e9000100e000faff3a00e1af9f0003
:105080000b00e000e1ff3a000c04be008a4078000b
:105090000b407800d0fd07008e40780010c0b300b0
:1050a000cdfd07006148b8000c044000e0844800d2
:1050b000090444000880ea004f0778004f06be004c
:1050c0004f05be004f04be008f01b1000000060076
:1050d000889fbe008a9fbe0000017800810578008d
:1050e000106680008000410074844000d0ac200035
:1050f000800f54000200360060542f0000844000ee
:105100000040eb00b0fe07000080fb0001f02f0024
:10511000010565000005750010c0b300aafe070078
:10512000804478004248dd00c03fb20000004000eb
:10513000000040000000400000004000000040006f
:1051400000004000fa0fb2000005750088407800aa
:105150000040eb00a0fd0700c840de0010c0b30017
:105160009dfd07000b0078008dff0700000478000c
:105170008a4078000040eb0097fd070089407800e6
:1051800010c0b30094fd0700080078004f05be0072
:105190004f04be00000006000200fa00881f7800dd
:1051a000e0bf9f000040eb0087fe07000080fb008f
:1051b00001f02f00010464000004740010c0b3006b
:1051c00081fe07004200dd00c03fb2000000400049
:1051d00000004000000040000000400000004000cf
:1051e000000040000884fb0000047400cff8970022
:1051f0000040eb0078fd0700dff8970010c0b30017
:1052000075fd0700080078004f0478000080fa0060
:10521000000006000200fa00881f7800e0bf9f002f
:1052200020c0b30068fe07000080fb0001f02f00e3
:10523000010464000004740030c0b30062fe070083
:105240004200dd00c03fb20000004000000040000e
:10525000000040000000400000004000000040004e
:105260000884fb0000047400cff8970020c0b3004e
:1052700059fd0700dff8970030c0b30056fd070066
:10528000080078004f0478000080fa000000060053
:105290000800fa00889fbe008a9fbe008c9fbe0057
:1052a00001c8b300f0c1b3009dfd070001c8b30001
:1052b000f0c1b300cafd0700a1c0b300c0c1b30074
:1052c000c7fd070081c0b300f0c1b30094fd070023
:1052d000beccbf0065405000e14f500071003e0061
:1052e0000004eb00c0c1b30037fe07006a00600095
:1052f00004003a000804e800803e2000800f5400bb
:10530000f8ff3a00c0c1b3002ffe07000018a30049
:1053100003003a00703e2000800f54006100360008
:1053200081c0b300f0c1b300adfd07000040eb0049
:1053300025fe07000080fb0008f02f008884640031
:105340008084740010c0b3001ffe07000046780080
:105350004260dd00c03fb20000004000000040009d
:10536000000040000000400000004000000040003d
:10537000f90fb2008084740060c0b30012fe070011
:105380000080fb00080464000004740070c0b300d7
:105390000dfe07004200dd00c03fb20000004000eb
:1053a00000004000000040000000400000004000fd
:1053b00000004000f80fb200000474000804e80088
:1053c00088457800884078000040eb0002fd070027
:1053d0004844de00084578008840780010c0b300db
:1053e000fdfc0700f4865700810020000d007800c6
:1053f0001bfc070008c1b300c0c1b300f2fd0700e9
:105400000018a300210032007fb0970000d8a3004d
:105410001e00320001c8b300f0c1b30040fd070018
:1054200001c8b300f0c1b3006dfd0700a1c0b30017
:10543000c0c1b3006afd070081c0b300f0c1b30072
:1054400037fd0700c0c1b300dffd07006a00600040
:10545000fcff320081c0b300f0c1b30060fd070063
:105460008b4078000040eb00dbfc07008a407800ae
:1054700010c0b300d8fc0700810020000d007800a8
:10548000f7fb07000844e900dbff3a008940780099
:105490000040eb00d0fc07008c40780010c0b30047
:1054a000cdfc07004f06be004f05be004f04be00f6
:1054b0000080fa00000006001400fa00889fbe0079
:1054c0008a1f780000057800810478009011200080
:1054d0005dfd070090c1b300bbfd070000447800ec
:1054e0000000eb0058fd07000000eb000804e0009e
:1054f0003b003200086680000800e00003003a002c
:1055000021fd070008007800350037002066800084
:105510001066880021cc2000914078000040eb000c
:10552000adfc070031cc20009140780010c0b300e2
:10553000a9fc0700410120007a805700c8fb070042
:105540004fb89700f42f020000000000c0bf9f007a
:10555000bfb19700d0ac2000808f51000d003e00fd
:10556000efe0970061c060000a003a005fb1970069
:10557000000128000000610006003a00cfb097004b
:10558000e05e2000808f500002003e000278a30001
:1055900001003a000000fe00236688006e8057007c
:1055a00005000900305d78006a00b1006000b100bc
:1055b00080cceb001ff89700e84f500006003a003f
:1055c0000ff897000004e00002003200e64f5000a0
:1055d00001003a00804c7800c02cef001000200041
:1055e0004f0578004f04be000080fa00000006005e
:1055f000889fbe008a1f78009011200012fd0700ce
:1056000090c1b30070fd070000447800e000200066
:105610000dfd0700e0c0b3006bfd07000080fb003c
:105620000af02f008a84640080847400f0c0b30004
:1056300065fd07004200dd00c03fb20000004000f1
:10564000000040000000400000004000000040005a
:1056500000004000f90fb200808474009011200017
:10566000f9fc070090c1b30057fd0700884f5000b8
:10567000e3ff3a00c0002000f3fc0700c0c0b30005
:1056800051fd07000080fb000a0464000004740060
:10569000d0c0b3004cfd07004200dd00c03fb200a7
:1056a00000004000000040000000400000004000fa
:1056b0000000400000004000f80fb2000004740039
:1056c000888f54000400360088805400d0ac20003d
:1056d0000100500005003700d0ac2000888f540036
:1056e00002003200090054000000e9004f05780074
:1056f0004f04be0000000600f0c1b30032fd0700f9
:105700000080fb004300de000000a200610060009a
:10571000000006000200fa00889fbe00d7c2a80061
:10572000d3c2a9004022ef00b0012000101288006f
:105730004422ef004302a80042a2a80041e2a800d0
:1057400001c2b300e0c1b300a5fc070010002000b7
:10575000a015020000000000d7c2a900f00f200031
:105760004012880040c2bf000018a300fdff3a00ad
:1057700040c2bf000008a300faff320040128000c0
:10578000a0ff9f00d7c2a80010002000a0150200b3
:1057900000000000d0c1b3000bfd07000080fb003b
:1057a0000038a300e6ff3a000080ea00e104600050
:1057b000e3ff3a0018002000086688002966880088
:1057c0008940780080c0b30003fc0700894078005e
:1057d00090c0b30000fc0700d1ccb300c0c0b30040
:1057e000fdfb0700a1c0b300d0c0b300fafb070067
:1057f000d1ccb300a0c0b300f7fb0700a1c0b30039
:10580000b0c0b300f4fb0700e1ccb30040c0b3006c
:10581000f1fb0700a1c0b30050c0b300eefb0700ce
:10582000e1ccb30020c0b300ebfb0700a1c0b30084
:1058300030c0b300e8fb07000940780051fb0700c7
:105840000020200080fc0700d1c0b3000940780090
:10585000e1fb070021c3b30020c0b300defb07005b
:1058600021c1b30040c0b300dbfb070001c4b3009b
:1058700030c0b300d8fb0700f1c3b30090c0b30041
:10588000d5fb070021c1b30060c0b300d2fb070005
:10589000c1c0b30070c0b300cffb0700e1ceb300be
:1058a000a0c0b300ccfb070051c0b300b0c0b30030
:1058b000c9fb07004030200063fc070051b6200000
:1058c0009140780040c0b300c3fb070061b62000e0
:1058d0009140780050c0b300bffb070071b62000b4
:1058e0009140780020c0b300bbfb070081b62000c8
:1058f0009140780030c0b300b7fb070091b620009c
:105900009140780009407800b3fb0700a1b6200061
:105910009140780008407800affb0700894078008c
:1059200050c1b300acfb070020c1b300a6fc0700c8
:10593000beecb7000110200000c1b30057fc070007
:105940002147230040c1b30054fc070089007800c0
:105950000940780051fc0700090078003afc070074
:1059600041c0b300f0c1b300edfb07004f04be001f
:105970000080fa0000000600c2668000d366800046
:105980000043eb008300d1000280d300610161007d
:105990008001eb0060011100e0811900140020007b
:1059a00005002d000401610085816100020168008d
:1059b000838168000643e800ef4f5300f1ff3a008f
:1059c000c2668800d36688000200780000000600e6
:1059d000881f78008a9fbe00ca668000db66800050
:1059e000e00f5000e08f580002003a001000200045
:1059f00001002000c0668800d166880008c1b3009d
:105a0000ddff07000844e900fdff3a000a00be0080
:105a10004f05be004f04780000000600ec874700e9
:105a2000889fbe008a9fbe008c9fbe008e1f78009c
:105a30000019800080bf9f0010198000f0b79f0000
:105a400020198000e0b79f0020088000d0b79f0099
:105a500010088000c0b79f002023ef0000f029004d
:105a600020198800f003200010198800400e28003b
:105a700000198800000028002008880002a1ef001b
:105a8000bdff07006105b8000047eb006066b80085
:105a90008004eb0001003700880478000060fe00fd
:105aa00085c0bf000058a300fdff32000808800039
:105ab0000021ef0085a0a900afff070000017800da
:105ac00008064600e0864e00f03f2200410f20000d
:105ad000800f5600818f5e0005003600a6ff07008c
:105ae00000056d00a4ff070080856d000e003700e3
:105af000888f5400e9ff3200088054000000410004
:105b000001002000b2ff07000a0545008b854d000b
:105b100099ff07000078a300010032000a00a000ee
:105b20000e47e800dcff3a002023ef006fb097003b
:105b3000201988007fb09700101988000fb89700cf
:105b4000001988005fb09700200888004fb09700c8
:105b5000100888000a00be004f0778004f06be00fc
:105b60004f05be004f04be00cf00b100000006008c
:105b7000889fbe0080047800010478006033b8007c
:105b80008041eb008342780036003700e3cf5200bb
:105b900038003e0000cdb30000c140000304e00027
:105ba00019003200e3cf510003003a00e24f4100f8
:105bb0004b003a0002003700e24f410012003a0069
:105bc0005050200021002000800f5300818f5b0087
:105bd00043003e000582fb000781fb0040062000d9
:105be0000091b9004830de006a00b9000041410070
:105bf0000641410002727c008542e8006033b80033
:105c00008041eb0017003700e94f510034003e009f
:105c10008341e8000600430087804b0000004000fd
:105c20008180480000004000818048000000400062
:105c30008180480000004000818048000000400052
:105c4000818048000000400081804800000340003f
:105c5000818348008280fb0000f02f000000630079
:105c600001037000b94078000104e000c7ff3a006a
:105c70000c003700f0c2b30080cf500009003200a2
:105c8000edcf500007003200eacf5000050032008f
:105c90006f40500080cf500002003200e9cf50002a
:105ca0000f003a005050200021002000800f5300c8
:105cb000818f5b000a003e000780fb004206200047
:105cc0000280b9004831de006a11b900024040008c
:105cd00006404000304498001000200001003700ca
:105ce0000000eb004f04be000000060080017800b9
:105cf000010278000000e000160032008003eb0093
:105d00000571220056c0b300110009008581d8003a
:105d10008000fd000100e00002003a000700e00002
:105d20000500320000c3b30000da40000588b90066
:105d30008081510017002000a200200011000900fe
:105d40008282d800800278000643e9000300320016
:105d5000edff370000c3b300005a7800004aeb00a3
:105d600000000600889fbe008a9fbe008c9fbe0078
:105d70008e1f78000004be0002067800e00f50007d
:105d8000e08f58001e0032000007eb000aa02c0034
:105d9000abb92300adc0b3000a01be000800be00cd
:105da000a009020000000000e00f5000e08f580042
:105db00002003a000e00e0000800320002c3b30007
:105dc000025e40000a01be00c0090200000000009f
:105dd0000004540081845c001e002000a20020000a
:105de000030020000a00be00a0090200000000001d
:105df0000005be008d46e90003003200e6ff3700d3
:105e000000c3b300005e7800004eeb004f0778003f
:105e10004f06be004f05be004f04be000000060046
:105e200000017800c800de0063c4b30083cf5000d7
:105e30000c00360000ceb30000c040004200dd0080
:105e4000c03fb200000040000000400000004000e1
:105e5000000040000000400000004000f20fb200cf
:105e600000017100834f51000600360000ceb300e0
:105e7000004041000080fb0001f02f0001016100a3
:105e800000017100c810de00f20fb20090c3b30031
:105e900080cf50000200360090ccb30001003700e4
:105ea00000cdb30000c040004200dd00c03fb200a2
:105eb00000004000000040000000400000004000e2
:105ec00000004000000040000001710082407800a6
